:020000041000EA
:1000000000B5324B212058609868022188439860DF
:10001000D860186158612E4B002199600221596106
:100020000121F02299502B49196001219960352056
:1000300000F044F80222904214D00621196600F024
:1000400034F8196E01211966002018661A6600F04E
:100050002CF8196E196E196E052000F02FF8012189
:100060000842F9D1002199601B49196000215960AB
:100070001A491B48016001219960EB211966A021F2
:10008000196600F012F800219960164914480160C1
:100090000121996001BC002800D000471248134993
:1000A000086003C880F30888084703B5996A0420EC
:1000B0000142FBD001200142F8D103BD02B5186610
:1000C0001866FFF7F2FF186E186E02BD00000240BE
:1000D000000000180000070000035F00212200005C
:1000E000F4000018222000A00001001008ED00E03C
:1000F00000000000000000000000000074B24E7A12
:1001000000200420F7010010C3010010C5010010F9
:10011000C1010010C1010010C1010010C101001097
:10012000C1010010C1010010C1010010C701001081
:10013000C1010010C1010010C9010010CB01001065
:10014000CD010010CD010010CD010010CD01001037
:10015000CD010010CD010010CD010010CD01001027
:10016000CD010010CD010010CD010010CD01001017
:10017000CD010010CD010010CD010010CD01001007
:10018000CD010010CD010010CD010010CD010010F7
:10019000CD010010CD010010CD010010CD010010E7
:1001A000CD010010CD010010CD010010CD010010D7
:1001B000CD010010CD010010CD010010CD010010C7
:1001C00000BE00BE00BE00BE00BE00BEEFF3058054
:1001D000103800BEF2EB8871406901105C690110B3
:1001E0003402001090A31AE700201F49086006C8D7
:1001F00081F3088810471D48006800282FD10DA4FE
:100200000ECC002902D000F012F8F9E71849194A7B
:10021000002000E001C19142FCD1174988471749ED
:1002200088471749884700BEFDE701C901C29A42C5
:10023000FBD370475C690110C0000020EC1A00205D
:10024000888301100000042000000420888301102E
:10025000001004200010042000000000704709482E
:1002600005F0B4FC0047000008ED00E0000000D0FD
:10027000F01A00208C1F0020254900105D15001089
:10028000E34800105756000006005250ABB36053CD
:100290004037011006005250861C030250370110EF
:1002A000060052505422A29D5C37011005005250A6
:1002B000DE65F46888830110F8B5C04610B5064CB9
:1002C0002378002B07D1054B002B02D0044800E017
:1002D00000BF0123237010BDF01B002000000000B0
:1002E00038270110044B10B5002B03D003490448F4
:1002F00000E000BF10BDC04600000000F41B00205D
:10030000382701100020704770B504000D00012847
:1003100005D0002C02D10B4B9D420AD070BD094B79
:100320009942F6D1084806F00BFE084806F008FE90
:10033000EFE7064B06491960064A1A60024B19603E
:100340001A60EBE7FFFF0000F01C0020281D0020D2
:100350004C29011064380110274B03604B6843603F
:10036000264B03600B7A03724B7A43728B7A83724B
:10037000CB7AC3720B7B0373CB89C3810B8A038255
:100380008B7C8374CB7CC37414228B5E8382162295
:100390008B5EC3820B7E03764B7E43768B7E8376A9
:1003A000CB7EC3768B8B8383CB8BC3830B8C0384F5
:1003B0004B8C43842423CA56C2540133CA56C254B8
:1003C0000133CA56C2540133CA56C2540133CA5605
:1003D000C2540133CA5CC254CB6AC3620B8E03861B
:1003E000074B03603223CA5CC2540133CA5CC25457
:1003F0000133CA5CC2547047803801106438011060
:100400004C29011010B582B0FA20800003F078FD6D
:10041000FA210F4C0F4A4901200007F073FA132309
:100420000193013B0093013B03220F21200006F0C2
:10043000D4FDA0230093203B00220021200007F0E0
:100440003FFA0021200007F047FA02B010BDC04675
:10045000F01C002000C0034010B582B0FA208000DC
:1004600003F04EFDFA210F4C0F4A4901200007F01E
:1004700049FA0B230193013B0093013B0422102115
:10048000200006F0AAFDA0230093203B00220021BB
:10049000200007F015FA0021200007F01DFA02B035
:1004A00010BDC046281D002000000440F0B5CE4617
:1004B000474680B593B004000FAB99464D4B4A4672
:1004C00003CB03C21B8813800DAB98464A4B4246B0
:1004D00003CB03C20BAF494B3A0003CB03C2484BDB
:1004E0001A6809929A8869460A859B796A462A2180
:1004F00052181370434B1A6807929A8869460A8407
:100500009B796A462221521813703F4B1A68059254
:100510009A8869460A839B798B760021200008F02F
:10052000E1FB0121200007F00FFA022602960025C8
:100530000195364B00934B4605220521200008F01B
:1005400069F80221200007F0FFF902960195FC23CB
:10055000DB000093434619220521200008F05AF8D9
:100560000321200007F0F0F9029601951F23009364
:100570003B002D220521200008F04CF8042120002A
:1005800007F0E2F902960195214B009309AB412255
:100590000521200008F03EF80521200007F0D4F9DD
:1005A00002960195F8231B02009307AB5522052103
:1005B000200008F02FF80621200007F0C5F9029668
:1005C0000195144B009305AB69220521200008F02A
:1005D00021F8114803F094FC0021200008F082FB70
:1005E0000121200007F0B0F913B0C0BCB946B046F5
:1005F000F0BDC04638270110442701104C270110D8
:10060000542701105C27011064270110FFFF000030
:10061000FF070000E0FF000088130000F0B5DE4691
:1006200057464E464546E0B59DB004001AAB6E4AAB
:1006300011681A9192889A8018AA93466B4A116899
:100640001891127959460A71694A179215AA924669
:10065000684A11681591928851468A8013AA91467A
:10066000654A11681391127949460A7111AF634ABC
:10067000390021CA21C1624A11680F9191886846E8
:1006800040254019018092796946422009180A7074
:100690000DAA90465B4A11680D91127941460A7184
:1006A000594A0C92594A11680A91928869468A857A
:1006B000574A07A921CA21C11088088092788A70F8
:1006C000544A11680591918868460183927982762F
:1006D00001260296002501954F4A00920A22052123
:1006E000200007F097FF029601951F2300935B46B9
:1006F00019220521200007F08DFF02960195F823AD
:100700001B02009317AB28220521200007F082FF6F
:1007100002960195FC23DB00009353463722052106
:10072000200007F077FF029601953C4B00934B4663
:1007300046220521200007F06DFF02960195384BF7
:1007400000933B0055220521200007F063FF02962D
:100750000195344B00930FAB0A223721200007F09C
:1007600059FF02960195304B0093434619223721D9
:10077000200007F04FFF029601952C4B00930CAB25
:1007800028223721200007F045FF02960195284BCB
:1007900000930AAB37223721200007F03BFF029677
:1007A0000195E0235B00009307AB46223721200030
:1007B00007F030FF02960195FC231B02009305AB66
:1007C00055223721200007F025FF1A4803F098FB37
:1007D0000021200008F086FA1DB0F0BCBB46B246EE
:1007E000A946A046F0BDC0466C2701107427011031
:1007F000524544007C270110842701108C270110EA
:10080000942701109C27011054414E00A427011089
:10081000AC270110B8270110FFFF0000FF07000000
:100820001FF80000E0FF0000D19C000001ED000077
:100830000162000088130000F0B585B006000025B5
:100840000524052701E00135EDB27D2D14D80123E3
:10085000029300230193FC23DB0000932B003A005A
:100860002100300007F00AFE0A34E4B2642CEAD911
:100870000A37FFB20024E6E7164803F041FB0021E7
:10088000300008F02FFA7F250524052701E0013507
:10089000EDB2FD2D14D80123029300230193FC2314
:1008A000DB0000932B003A002100300007F0E6FD4A
:1008B0000A34E4B2642CEAD90A37FFB20024E6E72E
:1008C000044803F01DFB0021300008F00BFA05B0CE
:1008D000F0BDC0468813000070B588B00400032145
:1008E00007F032F8154A164906A805F043F9032621
:1008F0000296002501951F23009306AB05220521D2
:10090000200007F087FE00220E4B0F4904A805F0D7
:1009100031F902960195F8231B02009304AB4122A2
:100920000521200007F076FEFA20C00003F0E8FA67
:100930000021200008F0D6F908B070BDA303000024
:10094000C0270110FB210940C427011030B583B036
:100950000400012108F0D5F90A220A21200008F03C
:10096000CDF90121200006F0EFFF5249200008F0E8
:10097000E4F90221200006F0E7FF0A2232212000DC
:1009800008F0BCF90A224C49200008F04AFA02217A
:10099000200008F0B6F9494DF8212A00090220008C
:1009A00008F0B4F90195142300936433192205214A
:1009B000200008F03DF919220521200008F09EF9D9
:1009C0000321200006F0C0FF0A223D49200008F064
:1009D00028FA19224121200008F090F90421200072
:1009E00006F0B2FF01230093364A374B200008F08F
:1009F000F9FA37220A21200008F080F907212000A7
:100A000006F0A2FF02250095304A314B200008F085
:100A1000E9FA5F220A21200008F070F900222D492E
:100A2000200008F073F90821200006F08DFF0095E2
:100A3000294A2A4B200008F0D5FA294D280003F056
:100A40005FFA0021200008F04DF90621200006F091
:100A50007BFF05220521200008F050F90A222F21F2
:100A6000200008F0DEF919220521200008F046F9DF
:100A700002222F21200008F0D4F92D220521200088
:100A800008F03CF908222F21200008F0CAF9412281
:100A90000521200008F032F910222F21200008F053
:100AA000C0F9280003F02CFA0021200008F01AF900
:100AB00003B030BDCC270110DB040000E0FF0000D4
:100AC00014FEFFFF4C37894160650940A4703D0A60
:100AD000D7A31440FFFF0000B81E85EB51385340E8
:100AE00088130000F0B5C64600B586B0040004AB1C
:100AF0009846224B1A6804929B884246938002AE25
:100B00001F4B1A6802929B88B380072106F01CFFD6
:100B100000270197F8252D02009536230022002199
:100B2000200007F07DFA0195164B009343462822DA
:100B30000021200007F0DEFA0821200006F004FF63
:100B40000197114B009337234B220021200007F01F
:100B500067FA0195FC23DB00009333006422002137
:100B6000200007F0C7FA094803F0CAF90021200065
:100B700008F0B8F806B080BCB846F0BDD427011024
:100B8000DC270110E0FF0000FFFF000088130000D9
:100B900070B586B00400012106F0D6FE04AB1C4AF5
:100BA0001168049192889A8002220292002601968E
:100BB000184D009503320021200007F02BFD032380
:100BC000029301960095303319220021200007F08E
:100BD00055FC0423029301960095303337220021FF
:100BE000200007F04BFC052302930196009530335B
:100BF00055220021200007F041FCFA20C00003F03C
:100C00007FF90021200008F06DF806B070BDC046E5
:100C1000E4270110FFFF000030B583B004001B4D36
:100C20002B000522552106F07BFF2B0007225721C0
:100C3000200006F075FF2B0009225921200006F044
:100C40006FFFF8231B0201931E2300930A220A213F
:100C5000200007F0FFF8FC23DB0000932823282264
:100C60002821200007F07DFA094B009328233C221D
:100C70003C21200007F0C7FDFA20C00003F040F936
:100C80000021200008F02EF803B030BDFFFF000067
:100C9000E0FF000030B585B00400F8231B0201938B
:100CA0001425009514230522052107F0F0FD1A4BA9
:100CB00001930095142305222D21200007F0B8FF91
:100CC000FC23DB000193009514230522552120000D
:100CD00007F061FB114B0293052301931E3500952C
:100CE0002D333C220F21200007F004FE0C4B029311
:100CF0000A230193009528333C224621200007F067
:100D000071FBFA20C00003F0FBF80021200007F07F
:100D1000E9FF05B030BDC046E0FF0000FF0700005E
:100D2000FFFF000010B582B00400FC23DB0000933D
:100D30000F231422282106F010FF054B00930F23E8
:100D400014225021200007F005FB02B010BDC04660
:100D5000E0FF000010B584B00400134B0393502350
:100D600002930F330193373B00930A33502205213E
:100D700007F0D8F8F8231B02039378230293073374
:100D80000193253B00930A3378223721200007F096
:100D900045FEFA20C00003F0B3F80021200007F060
:100DA000A1FF04B010BDC046FF070000F0B589B038
:100DB000060005AA214B13CB13C20024092C12D81C
:100DC000A200A21852000332D2B2012302930023E0
:100DD00001931B4B009305AB0021300007F01AFC78
:100DE0000134E4B2EAE7012300220021300006F0DA
:100DF00018FC0027032505E0FA20800003F080F8A6
:100E00000137FFB2092F0ED80024092CF4D829008D
:100E1000300006F06DFC0135EDB2052003F070F8EE
:100E20000134E4B2F1E70021300006F071FC00214A
:100E3000300007F057FF09B0F0BDC046EC270110A5
:100E4000FFFF0000F0B5CE46474680B589B00400EC
:100E500005AE2C4B320003CB03C2198811809B785E
:100E60009370294B0293082301933C250095463348
:100E70000A221921200007F0B5FAF8231B02039378
:100E80002823984602935A2701970095023314228B
:100E90002A21200007F0C2FD0223029300230193C0
:100EA000FC23DB00994600933300502205212000EB
:100EB00007F0B0FBFA26B600300003F021F81F233C
:100EC00003934346029301970095023314222A218B
:100ED000200007F0A3FD300003F012F84B46039307
:100EE0004346029301970095023314222A212000E1
:100EF00007F094FD300003F003F809B0C0BCB94618
:100F0000B046F0BDF8270110FFFF0000F0B5DE4647
:100F100057464E464546E0B591B004000DAE4A4BEB
:100F2000320003CB03C21B7813700AAD474B2A0073
:100F300003CB03C21B88138007AF454B3A0003CB9A
:100F400003C2198811809B78937004AB9846414B7B
:100F5000424603CB03C2198811809B78937000210D
:100F6000200007F0BFFE0021200006F04EFC012308
:100F70009B46029300239A460193FC23DB0099468B
:100F80000093330014221421200007F043FBFA26BB
:100F9000F600300002F0B4FF0021200007F0A2FEAE
:100FA0000121200006F031FC5B4602935346019379
:100FB0004B4600932B0014221421200007F02AFB3B
:100FC000300002F09DFF0021200007F08BFE02217F
:100FD000200006F01AFC5B460293534601934B46F1
:100FE00000933B0014221421200007F013FB300073
:100FF00002F086FF0021200007F074FE032120008C
:1010000006F003FC5B460293534601934B46009364
:10101000434614221421200007F0FCFA300002F0AD
:101020006FFF0021200006F0F0FB0021200006F0F9
:101030006FFB0021200007F055FE11B0F0BCBB464D
:10104000B246A946A046F0BD0428011010280110A0
:101050001C2801102828011030B589B0040005AD06
:10106000294B2A0003CB03C21B881380274B029312
:10107000082301933433009312330A2219212000EC
:1010800007F0B0F901230293F8231B020193204BD0
:1010900000932B0050221E21200007F0BBFAFA25F6
:1010A000ED00280002F02CFF0021200006F030FBAC
:1010B000280002F025FF0421200006F029FB28006B
:1010C00002F01EFF0021200006F022FB280002F0A3
:1010D00017FF0621200006F01BFB280002F010FF7E
:1010E0000521200006F014FB280002F009FF03216F
:1010F000200006F00DFB280002F002FF0021200076
:1011000006F006FB09B030BD34280110E0FF0000F6
:10111000FFFF0000F0B5DE4657464E464546E0B5B7
:10112000A1B00400002107F0DDFD19AB99468C4BFE
:101130004A4603CB03C216AE8A4B320023CB23C2EE
:10114000894B13AA23CB23C20FAB9C4687491A00B5
:101150000800A8C8A8C2006810600BAA90460A0040
:1011600010324046A8CAA8C01268026009AA934675
:101170007F4A584628CA28C005AF0B0020333A00E2
:1011800023CB23C21B68136063460293794B9A46B4
:10119000019300250095102302220221200006F071
:1011A000F9FE434602935346019300951023022211
:1011B0001421200006F0EEFE5B4602935346019395
:1011C0000095082302222821200006F0E3FE029762
:1011D000534601930095102302226621200006F059
:1011E000D9FE02960195FC23DB0000930C23142208
:1011F0000521200006F0CEFE13AB02935E4B019357
:10120000F826360200960C2314221421200006F042
:10121000C1FE0123029301951E3300934B46142215
:101220005021200007F0F6F900967F2311220021BB
:10123000200007F0E8FA00967F23202200212000FA
:1012400007F0E1FA00967F2350220021200007F0EA
:10125000DAFA00967F2376220021200007F0D3FAE5
:101260000721200006F070FB002398461E27053357
:10127000994605339A46142641E0404B404A3F21A7
:10128000404803F031FBFA21890004F0F3FC05002B
:1012900040E053460133DBB29A46002700239946CB
:1012A0000721200006F050FB00974B465246364976
:1012B0001BA804F05FFC00230193FC23DB000093D8
:1012C0001BAB2D220021200006F014FF0821200076
:1012D00006F03AFB32002D491EA804F04BFCF8231F
:1012E0001B020193244B00931EAB552200212000CA
:1012F00006F000FF013EB6B2A846012E1CD002F057
:10130000A9FD0029B9DBBED0FA229200002304F027
:10131000EFFC05004346EB1AFA2292009342ECD30D
:101320000137FFB23C2FBBD14B460133DBB29946AC
:101330003C2BAED00027B3E7FA20C00002F0E0FD5E
:101340000021200007F0CEFC0121200006F0FCFA6D
:1013500021B0F0BCBB46B246A946A046F0BDC0468F
:10136000EC280110F428011004290110582901105B
:1013700014290110FFFF0000E0FF000040280110C9
:101380005C28011094280110D4280110E4280110D1
:10139000F0B5DE4657464E464546E0B587B00400F8
:1013A000012107F0AEFC4F4F002500239846002690
:1013B000994605939B4680E04B4B4C4A3F214C4855
:1013C00003F092FAFA21890004F054FC5B46C31A38
:1013D000FA229200934215D34B469DB26B469B8AEC
:1013E000ED1AADB28346434601339BB2984610F0E6
:1013F000EDF8404904F016FC8FB23F4B9E4269D88D
:101400004B46059301239C46E1440136B6B20F22B8
:101410000521200007F072FC3849200007F08DFC00
:101420000F223221200007F069FC0A2241462000E9
:1014300007F0F7FC19220521200007F05FFC304976
:10144000200007F07AFC19223221200007F056FC18
:101450000A222900200007F0E4FC232205212000B5
:1014600007F04CFC2749200007F067FC23223221BB
:10147000200007F043FC0A223100200007F0D1FCD5
:1014800000970A235A225A21200006F066FB7B00AF
:101490009BB2019314239A460093502228212000E6
:1014A00007F0F5F97B08029302230193534600935A
:1014B00050220521200007F01DFA02F0CBFC002984
:1014C00000DA79E700D17DE7FA229200002304F0E8
:1014D0000FFC7BE707B0F0BCBB46B246A946A0466E
:1014E000F0BDC04622220000402801105C280110F7
:1014F0009428011060EA0000B70B000020290110B9
:10150000282901103029011030B589B0040005AD3B
:10151000104B2A0003CB03C2198811809B7893706B
:101520000021200007F0DEFB022302930023019339
:10153000FC23DB0000932B0032220521200007F062
:1015400069F8054802F0DCFC200006F03DF909B01E
:1015500030BDC0463829011088130000F0B5DE46C2
:1015600057464E464546E0B591B0FEF74BFFFEF7B5
:1015700073FF0023009360E02A4B02932A4B5A68C2
:1015800003922A4C02941A7A02A90A725A7A4A726F
:101590009A7A8A72DA7ACA721A7B0A73DA89CA81EB
:1015A0001A8A0A829A7C8A74DA7CCA749A8A8A8233
:1015B000DA8ACA821A7E0A765A7E4A769A7E8A76B3
:1015C000DA7ECA769A8B8A83DA8BCA831A8C0A846B
:1015D0005A8C4A842422995C02A881540132995C75
:1015E00081540132995C81540132995C81540132F9
:1015F000995C81540132995C8154DA6A0D921A8E99
:1016000002860B4D02953222995C81540132995C1D
:10161000815401329B5C8354FFF7BAFE0295029419
:1016200001F095FB80380110F01C00206438011097
:101630004C290110009B01330093009B632B01DDBB
:1016400001F0E1FBE74B0293E74C63680393E74E3D
:101650000296237A02AA1372637A5372A37A937260
:10166000E37AD372237B1373E389D381238A1382B2
:10167000A37C9374E37CD374A38A9382E38AD3829A
:10168000237E1376637E5376A37E9376E37ED376B2
:10169000A38B9383E38BD383238C1384638C538436
:1016A00024239B46E35C5946535425239A46E35C26
:1016B0005146535426239946E35C49465354272305
:1016C0009846E35C414653542820235C135402316E
:1016D000635C5354E26A0D92238E02AA1386C44FB0
:1016E00002973222A35C02ADAB540132A35CAB542F
:1016F0000B31635C6B542800FEF7D8FE029702960C
:10170000B84D0295BB4D6B68039302962B7A02A8E5
:1017100003726B7A4372AB7A8372EB7AC3722B7B60
:101720000373EB89C3812B8A0382AB7C8374EB7CCC
:10173000C374AB8A8382EB8AC3822B7E03766B7E73
:101740004376AB7E8376EB7EC376AB8B8383EB8B6A
:10175000C3832B8C03846B8C43845B46EB5C5A46BF
:1017600083545346EB5C524683544B46EB5C4A46EB
:1017700083544346EB5C4246835428202B5C02AAE8
:10178000135429231900EB5C10005354EB6A0D939A
:101790002B8E1386029732231A00EB5C835401329E
:1017A000AB5C83540B316B5C4354FEF77FFE0297B6
:1017B00002968C4B0293636803930296237A02A8E5
:1017C0000372637A4372A37A8372E37AC372237BD0
:1017D0000373E389C381238A0382A37C8374E37C3C
:1017E000C374A38A8382E38AC382237E0376637EE3
:1017F0004376A37E8376E37EC376A38B8383E38BDA
:10180000C383238C0384638C43845B46E35C5A4626
:1018100083545346E35C524683544B46E35C4A464A
:1018200083544346E35C424683542820235C02AA47
:10183000135429231900E35C10005354E36A0D93F9
:10184000238E1386029732231A00E35C83540132FD
:10185000A35C83540B31635C4354FEF7DFFE0297B5
:101860000296604B02936B68039302962B7A02A850
:1018700003726B7A4372AB7A8372EB7AC3722B7BFF
:101880000373EB89C3812B8A0382AB7C8374EB7C6B
:10189000C374AB8A8382EB8AC3822B7E03766B7E12
:1018A0004376AB7E8376EB7EC376AB8B8383EB8B09
:1018B000C3832B8C03846B8C43845B46EB5C5A465E
:1018C00083545346EB5C524683544B46EB5C4A468A
:1018D00083544346EB5C4246835428202B5C02AA87
:1018E000135429231900EB5C10005354EB6A0D9339
:1018F0002B8E1386029732231A00EB5C835401323D
:10190000AB5C83540B316B5C4354FEF787FE02974C
:101910000296344B0293636803930296237A02A8DB
:101920000372637A4372A37A8372E37AC372237B6E
:101930000373E389C381238A0382A37C8374E37CDA
:10194000C374A38A8382E38AC382237E0376637E81
:101950004376A37E8376E37EC376A38B8383E38B78
:10196000C383238C0384638C43845B46E35C5A46C5
:1019700083545346E35C524683544B46E35C4A46E9
:1019800083544346E35C424683542820235C02AAE6
:10199000135429231900E35C10005354E36A0D9398
:1019A000238E1386029732231A00E35C835401329C
:1019B000A35C83540B31635C0C004354FEF73CFF83
:1019C00002970296074B02936B68039302962B7A59
:1019D00002AE33726B7A7372AB7AB372EB7AF372D4
:1019E0002B7B09E080380110F01C002064380110C6
:1019F0004C290110281D00203373EB89F3812B8AB9
:101A00003382AB7CB374EB7CF374E64DAB8AB38268
:101A1000EB8AF3822B7E33766B7E7376AB7EB37666
:101A2000EB7EF376AB8BB383EB8BF3832B8C33841E
:101A30006B8C73842426AB5D02AFBB5525239B467C
:101A4000EB5C59467B5426239A46EB5C51467B540B
:101A500027239946EB5C49467B5428202B5C3B545A
:101A600002316B5C7B54EB6A0D932B8E3B86CE4B25
:101A7000984602933227EB5D02A9CB553322AB5C2B
:101A80008B542B5D0B550800FEF7D6FE43460293A0
:101A9000C64F0297C64B0293C64C636803930297E6
:101AA000237A02A80372637A4372A37A8372E37A79
:101AB000C372237B0373E389C381238A0382A37CDC
:101AC0008374E37CC374A38A8382E38AC382237E04
:101AD0000376637E4376A37E8376E37EC376A38B11
:101AE0008383E38BC383238C0384638C4384A35D50
:101AF00083555B46E35C5A4683545346E35C524647
:101B000083544B46E35C4A4683542820235C02AA54
:101B100013542921635C5354E36A0D93238E138677
:101B20004346029332231900E35C53543322A35CEF
:101B300002A883540231635C4354FEF7CDFE434652
:101B4000029302979A4B02936B68039302972B7A46
:101B500002AA13726B7A5372AB7A9372EB7AD372D6
:101B60002B7B1373EB89D3812B8A1382AB7C937409
:101B7000EB7CD374AB8A9382EB8AD3822B7E137671
:101B80006B7E5376AB7E9376EB7ED376AB8B938373
:101B9000EB8BD3832B8C13846B8C5384AB5D93556D
:101BA0005B46EB5C584613545346EB5C504613546B
:101BB0004B46EB5C4846135401302B5C13542923ED
:101BC0001A00EB5C02A88354EB6A0D932B8E0386FC
:101BD0004346029332231900EB5C43540A32AB5C58
:101BE000835402316B5C4354FEF776FE4346029306
:101BF00002976F4B0293636803930297237A02A8BC
:101C00000372637A4372A37A8372E37AC372237B8B
:101C10000373E389C381238A0382A37C8374E37CF7
:101C2000C374A38A8382E38AC382237E0376637E9E
:101C30004376A37E8376E37EC376A38B8383E38B95
:101C4000C383238C0384638C4384A35D83555B46E9
:101C5000E35C5A4683545346E35C524683544B46F6
:101C6000E35C4A4683542820235C02AA13542923A8
:101C70001A00E35C02A88354E36A0D93238E038663
:101C80004346029332231900E35C43540A32A35CB7
:101C900083540231635C4354FEF758FE434602937B
:101CA0000297434B02936B68039302972B7A02A827
:101CB00003726B7A4372AB7A8372EB7AC3722B7BBB
:101CC0000373EB89C3812B8A0382AB7C8374EB7C27
:101CD000C374AB8A8382EB8AC3822B7E03766B7ECE
:101CE0004376AB7E8376EB7EC376AB8B8383EB8BC5
:101CF000C3832B8C03846B8C4384AB5D83555B4621
:101D0000EB5C594643545346EB5C514643544B46B7
:101D1000EB5C4946435428202B5C02A90B54292331
:101D20001A00EB5C08008B54EB6A0D932B8E0B862C
:101D30004346029332231900EB5C43540A32AB5CF6
:101D4000835402316B5C4354FEF700FE4546029516
:101D50000297174D0295656803950297237A02ADA5
:101D60002B72637A6B72A37AAB72E37AEB72237B8A
:101D70002B73E389EB81238A2B82A37CAB74E37CF6
:101D8000EB74A38AAB82E38AEB82237E2B76637E9D
:101D90006B76A37EAB76E37EEB76A38BAB83E38B94
:101DA0000AE0C046281D00204C29011064380110AB
:101DB00080380110F01C0020EB83238C2B84638C73
:101DC0006B84A35DAB55E84D25242B5D02AC5F46CB
:101DD000E35526242B5D02AC5746E35527242B5DA3
:101DE00002AC4F46E3552824A0462B5D02AC474683
:101DF000E3550137EB5DE355EC6A0D942B8E02AC95
:101E00002386DA4C02940E36AB5D02ACA355332226
:101E1000AB5CA35434216B5C63542000FEF762FE7C
:101E2000D24C0294D24C0294D24C0294D24C6368AD
:101E30000393CF4B0293237A02A80372637A43720F
:101E4000A37A8372E37AC372237B0373E389C3812A
:101E5000238A0382A37C8374E37CC374A38A838272
:101E6000E38AC382237E0376637E4376A37E8376F2
:101E7000E37EC376A38B8383E38BC383238C0384AA
:101E8000638C438424231800E35C02A90B545B4653
:101E9000E35C5A468B545346E35C52468B544B46A4
:101EA000E35C4A468B544346E35C42468B54E35D15
:101EB000CB55E36A0D93238E0B86AC4B0293A35D47
:101EC0008B550B32A35C8B543421635C02AA5354B0
:101ED0001000FEF707FEA54B0293A54B0293A54BFE
:101EE00002936B680393A24B02932B7A02A90B72A5
:101EF0006B7A4B72AB7A8B72EB7ACB722B7B0B7358
:101F0000EB89CB812B8A0B82AB7C8B74EB7CCB7403
:101F1000AB8A8B82EB8ACB822B7E0B766B7E4B76E9
:101F2000AB7E8B76EB7ECB76AB8B8B83EB8BCB83D5
:101F30002B8C0B846B8C4B8424231800EB5C0B5490
:101F40005B46EB5C5A468B545346EB5C52468B54D3
:101F50004B46EB5C4A468B544346EB5C42468B5403
:101F6000EB5DCB55EB6A0D932B8E0B867F4B02936B
:101F7000AB5D8B550B32AB5C8B5434216B5C02AA8E
:101F800053541000FEF704FE784B0293784B0293F3
:101F9000784B029363680393754B0293237A02A9EB
:101FA0000B72637A4B72A37A8B72E37ACB72237BC8
:101FB0000B73E389CB81238A0B82A37C8B74E37C34
:101FC000CB74A38A8B82E38ACB82237E0B76637EDB
:101FD0004B76A37E8B76E37ECB76A38B8B83E38BD2
:101FE000CB83238C0B84638C4B8424231800E35C09
:101FF0000B545B46E35C58460B545346E35C504637
:102000000B544B46E35C48460B544346E35C404666
:102010000B54E35DCB55E36A0D93238E0B86534B34
:102020000293A35D8B553322A35C8B543421635CF4
:1020300002A84354FEF7ACFD4C4B02934C4B029369
:102040004C4B02936B680393494B02932B7A02A982
:102050000B726B7A4B72AB7A8B72EB7ACB722B7BF7
:102060000B73EB89CB812B8A0B82AB7C8B74EB7C63
:10207000CB74AB8A8B82EB8ACB822B7E0B766B7E0A
:102080004B76AB7E8B76EB7ECB76AB8B8B83EB8B01
:10209000CB832B8C0B846B8C4B8424231800EB5C40
:1020A0000B545B46EB5C58460B545346EB5C504676
:1020B0000B544B46EB5C48460B544346EB5C4046A6
:1020C0000B54EB5DCB55EB6A0D932B8E0B86274B98
:1020D0000293AB5D8B553322AB5C8B5434216B5C2C
:1020E00002AD6B542800FEF797FD204B0293204B66
:1020F0000293204B0293636803931D4B0293237A50
:102100002B72637A6B72A37AAB72E37AEB72237BE6
:102110002B73E389EB81238A2B82A37CAB74E37C52
:10212000EB74A38AAB82E38AEB82237E2B76637EF9
:102130006B76A37EAB76E37EEB76A38BAB83E38BF0
:10214000EB83238C2B84638C6B842425635D02A832
:1021500043555D46635D050058462B545546635D07
:1021600002AD50460AE0C046F01C00204C29011088
:102170006438011080380110281D00202B544D4672
:10218000635D02AD48462B544546635D02AD404653
:102190002B54E35DEB55E56A0D95238E02AD2B863E
:1021A000E74D0295A35D02ADAB553323E25C2C00F5
:1021B000EA54E44D0B37EB5DE3552000FEF72CFDB0
:1021C000DF4CA0460294E04E0296E04C0294E04CB4
:1021D000636803930296237A02A80372637A4372B8
:1021E000A37A8372E37AC372237B0373E389C38187
:1021F000238A0382A37C8374E37CC374A38A8382CF
:10220000E38AC382237E0376637E4376A37E83764E
:10221000E37EC376A38B8383E38BC383238C038406
:10222000638C438424239B46E35C59464354252313
:102230001800E35C02A90B5426231900E35C02AAF0
:10224000535427231800E35C13540130235C1354C8
:1022500029231A00E35C02A98B54E36A0D93238EB1
:102260000A000B864346029332239A46E35C5146AA
:10227000535433239946E35C49465354E35DD355A5
:102280001000FEF707FD434602930296AF4B029300
:102290006B68039302962B7A02AA13726B7A5372BD
:1022A000AB7A9372EB7AD3722B7B1373EB89D38166
:1022B0002B8A1382AB7C9374EB7CD374AB8A9382AE
:1022C000EB8AD3822B7E13766B7E5376AB7E93762E
:1022D000EB7ED376AB8B9383EB8BD3832B8C1384E6
:1022E0006B8C53845B46EB5C594653542523180092
:1022F000EB5C135426231900EB5C5354272318007E
:10230000EB5C135401302B5C135429231A00EB5C53
:1023100002A98B54EB6A0D932B8E0A000B86434661
:1023200002935346EB5C514653544B46EB5C494693
:102330005354EB5DD3551000FEF7ACFC43460293BB
:102340000296824B0293636803930296237A02AA51
:102350001372637A5372A37A9372E37AD372237BF4
:102360001373E389D381238A1382A37C9374E37C60
:10237000D374A38A9382E38AD382237E1376637E07
:102380005376A37E9376E37ED376A38B9383E38BFE
:10239000D383238C1384638C53845B46E35C59465C
:1023A000535425231800E35C135426231900E35CDF
:1023B000535427231800E35C13540130235C135457
:1023C00029231A00E35C02A98B54E36A0D93238E40
:1023D0000A000B86434602935346E35C514653542E
:1023E0004B46E35C49465354E35DD3551000FEF77A
:1023F00099FC434602930296544B02936B680393F5
:1024000002962B7A02AA13726B7A5372AB7A93728A
:10241000EB7AD3722B7B1373EB89D3812B8A1382D4
:10242000AB7C9374EB7CD374AB8A9382EB8AD382BC
:102430002B7E13766B7E5376AB7E9376EB7ED376D4
:10244000AB8B9383EB8BD3832B8C13846B8C538458
:102450005B46EB5C5946535425231800EB5C135440
:1024600026231900EB5C535427231800EB5C13540C
:1024700001302B5C135429231A00EB5C02A98B5406
:10248000EB6A0D932B8E0A000B864346029353464C
:10249000EB5C514653544B46EB5C49465354EB5D61
:1024A000D3551000FEF73EFC434602930296274B9D
:1024B0000293636803930296237A02AA1372637AE3
:1024C0005372A37A9372E37AD372237B1373E389F3
:1024D000D381238A1382A37C9374E37CD374A38A6D
:1024E0009382E38AD382237E1376637E5376A37E20
:1024F0009376E37ED376A38B9383E38BD383238C72
:102500001384638C53845B46E35C59465354252300
:102510001800E35C135426231800E35C11001354E5
:1025200027231800E35C13540130235C1354292340
:102530001A00E35C08008B54E36A0D93238E09E0D4
:102540004C290110281D002064380110803801102A
:10255000F01C00200B86434602935346E35C524630
:102560008B544B46E35C4A468B54E35D0C00CB55E1
:10257000FEF7F0FB434602930296E74B02936B682B
:10258000039302962B7A23726B7A6372AB7AA372EF
:10259000EB7AE3722B7B2373EB89E381DF4C238A95
:1025A00002AF3B82A37CBB74E37CFB74A38ABB8237
:1025B000E38AFB82237E3B76637E7B76A37EBB76BB
:1025C000E37EFB76A38BBB83E38BFB83238C3B8473
:1025D000638C7B842423E35C5D467B5525239A46EC
:1025E000E35C55467B5526239946E35C4D467B5577
:1025F00027239846E35C45467B552820235C3B54C3
:102600000235635D7B55E76A0D97238E02AF3B86EB
:10261000C34F02973226A35D02ADAB553322A35CB4
:10262000AB543421635C6B542800FEF793FB029794
:10263000BC4E0296B84D0295BB4D6B680393029653
:102640002B7A02AA13726B7A5372AB7A9372EB7A7B
:10265000D3722B7B1373EB89D3812B8A1382AB7CD0
:102660009374EB7CD374AB8A9382EB8AD3822B7EF8
:1026700013766B7E5376AB7E9376EB7ED376AB8B05
:102680009383EB8BD3832B8C13846B8C53845B46AB
:10269000EB5C594653545346EB5C514653544B46FE
:1026A000EB5C494653544346EB5C41465354282067
:1026B0002B5C135429231800EB5C1354EB6A0D9325
:1026C0002B8E1386029732231A00EB5C02A98B54DF
:1026D0000132AB5C8B5434216B5C02AA5354100062
:1026E000FEF764FB029702968B4B02936368039399
:1026F0000296237A02A90B72637A4B72A37A8B72C9
:10270000E37ACB72237B0B73E389CB81238A0B8221
:10271000A37C8B74E37CCB74A38A8B82E38ACB8209
:10272000237E0B76637E4B76A37E8B76E37ECB7621
:10273000A38B8B83E38BCB83238C0B84638C4B84A5
:102740005B46E35C5A468B545346E35C52468B54DB
:102750004B46E35C4A468B544346E35C42468B540B
:102760002820235C0B5429231800E35C0B54E36AF4
:102770000D93238E0B86029732231A00E35C8B5451
:102780000132A35C8B543421635C02AA53541000C1
:10279000FEF70CFB029702965F4B02936B68039364
:1027A00002962B7A02A90B726B7A4B72AB7A8B7200
:1027B000EB7ACB722B7B0B73EB89CB812B8A0B8251
:1027C000AB7C8B74EB7CCB74AB8A8B82EB8ACB8239
:1027D0002B7E0B766B7E4B76AB7E8B76EB7ECB7651
:1027E000AB8B8B83EB8BCB832B8C0B846B8C4B84D5
:1027F0005B46EB5C5A468B545346EB5C52468B541B
:102800004B46EB5C4A468B544346EB5C42468B544A
:1028100028202B5C0B5429231800EB5C0B54EB6A2B
:102820000D932B8E0B86029732231A00EB5C8B5490
:102830000132AB5C8B5434216B5C02AA5354100000
:10284000FEF700FB02970296334B029363680393F3
:102850000296237A02A90B72637A4B72A37A8B7267
:10286000E37ACB72237B0B73E389CB81238A0B82C0
:10287000A37C8B74E37CCB74A38A8B82E38ACB82A8
:10288000237E0B76637E4B76A37E8B76E37ECB76C0
:10289000A38B8B83E38BCB83238C0B84638C4B8444
:1028A0005B46E35C5A468B545346E35C52468B547A
:1028B0004B46E35C4A468B544346E35C42468B54AA
:1028C0002820235C0B540130235C0B54E36A0D93E6
:1028D000238E0B8602973220235C0B540C32A35CB0
:1028E0008B543421635C02AA0C0053541000FEF791
:1028F000A9FA02970296084B02936B68039302961B
:102900002B7A02A90B726B7A4B72AB7A8B72EB7AD1
:10291000CB722B7B0B7309E080380110281D00203F
:102920004C29011064380110F01C0020EB89CB8188
:102930002B8A0B82AB7C8B74EB7CCB74AB8A8B8247
:10294000EB8ACB822B7E0B766B7E4B76AB7E8B76C7
:10295000EB7ECB76AB8B8B83EB8BCB83E64D2B8CDB
:102960000B846B8C4B842423EB5C5E468B552523B8
:10297000EB5C56468B552623EB5C4E468B55272346
:10298000EB5C46468B552827EB5DCB550236AB5D9D
:102990008B55EB6A0D932B8E0B86D84B029332200E
:1029A0002B5C0B543322AB5C8B542B5D0B55080016
:1029B000FEF7ACFAD14B0293D14B0293D14B029369
:1029C000D14C63680393CE4B0293237A02A90B7216
:1029D000637A4B72A37A8B72E37ACB72237B0B738D
:1029E000E389CB81238A0B82A37C8B74E37CCB7439
:1029F000A38A8B82E38ACB82237E0B76637E4B761F
:102A0000A37E8B76E37ECB76A38B8B83E38BCB830A
:102A1000238C0B84638C4B845B46E35C5A468B545B
:102A20005346E35C52468B544B46E35C4A468B5418
:102A30004346E35C42468B54E35DCB55A35D8B5527
:102A4000E36A0D93238E0B86AC4B02933220235CFA
:102A50000B540C32A35C8B543421635C02AA535494
:102A60001000FEF753FAA54B0293A54B0293A54B1A
:102A700002936B680393A24B02932B7A02AA137200
:102A80006B7A5372AB7A9372EB7AD3722B7B13739C
:102A9000EB89D3812B8A1382AB7C9374EB7CD37448
:102AA000AB8A9382EB8AD3822B7E13766B7E53762E
:102AB000AB7E9376EB7ED376AB8B9383EB8BD3831A
:102AC0002B8C13846B8C53845B46EB5C59465354BC
:102AD0005346EB5C514653544B46EB5C49465354CA
:102AE0004346EB5C41465354EB5DD355AB5D935588
:102AF000EB6A0D932B8E1386804B029332202B5C56
:102B000013543322AB5C02A98B5434216B5C02A8B2
:102B10004354FEF7A1FA794B0293794B0293794B18
:102B2000029363680393764B0293237A02A90B7294
:102B3000637A4B72A37A8B72E37ACB72237B0B732B
:102B4000E389CB81238A0B82A37C8B74E37CCB74D7
:102B5000A38A8B82E38ACB82237E0B76637E4B76BD
:102B6000A37E8B76E37ECB76A38B8B83E38BCB83A9
:102B7000238C0B84638C4B845B46E35C58460B547C
:102B80005346E35C50460B544B46E35C48460B54BB
:102B90004346E35C40460B54E35DCB55A35D8B5548
:102BA000E36A0D93238E0B86544B02930B30235C08
:102BB0000B543322A35C8B543421635C02A843542E
:102BC000FEF74AFA4D4B02934D4B02934D4B029345
:102BD0006B6803934A4B02932B7A02A90B726B7AB0
:102BE0004B72AB7A8B72EB7ACB722B7B0B73EB89CC
:102BF000CB812B8A0B82AB7C8B74EB7CCB74AB8A46
:102C00008B82EB8ACB822B7E0B766B7E4B76AB7EF8
:102C10008B76EB7ECB76AB8B8B83EB8BCB832B8C4A
:102C20000B846B8C4B845B46EB5C58460B545346D1
:102C3000EB5C50460B544B46EB5C48460B5443460A
:102C4000EB5C40460B54EB5DCB55AB5D8B55EB6AB3
:102C50000D932B8E0B86294B02930B302B5C0B5460
:102C60003322AB5C08008B540132AB5C8B54FEF713
:102C700051FA224B0293224B0293224B0293636838
:102C800003931F4B0293237A02AA1372637A53723F
:102C9000A37A9372E37AD372237B1373E389D3818C
:102CA000238A1382A37C9374E37CD374A38A9382D4
:102CB000E38AD382237E1376637E5376A37E937654
:102CC000E37ED376A38B9383E38BD383238C13840C
:102CD000638C53845B46E35C594653545346E35C30
:102CE000514653544B46E35C494653544346E35CD8
:102CF00041465354E35D09E0F01C00204C290110CB
:102D00006438011080380110281D0020D355A35DC0
:102D10009355E36A01930D93494B1A8E02A90A86D3
:102D2000484C02943222995C02A881540132995C89
:102D3000815401329B5C8354FEF7ECF90294424BC0
:102D40000293424B1B78002B01D0FEF715FC3F4B42
:102D50001B78002B01D1FEF76DFC3D4B0293384BE5
:102D60005A680392384C02941A7A02A90A725A7A63
:102D70004A729A7A8A72DA7ACA721A7B0A73DA8982
:102D8000CA811A8A0A829A7C8A74DA7CCA749A8AFC
:102D90008A82DA8ACA821A7E0A765A7E4A769A7EAF
:102DA0008A76DA7ECA769A8B8A83DA8BCA831A8C01
:102DB0000A845A8C4A842422995C02A881540132E4
:102DC000995C81540132995C81540132995C81543F
:102DD0000132995C81540132995C8154DA6A0D9216
:102DE0001A8E0286174D02953222995C8154013267
:102DF000995C815401329B5C8354FEF7C9FA0295B9
:102E00000294FEF717FC134902A8FDF7A5FA02A8E1
:102E1000FEF77AFB0B4D02950B4C0294084902A871
:102E2000FDF79AFA02A8FEF76FFB029502940020C4
:102E300011B0F0BCBB46B246A946A046F0BDC046A4
:102E4000281D00204C29011064380110C0110020F9
:102E500080380110F01C002010B502490120FDF758
:102E600053FA10BDFFFF000010B58300084A9446D6
:102E700063441C6840226240C024144080225201F6
:102E800013431C60C000034B9C466044416010BD6E
:102E900004C001400040014010B501238340D0220E
:102EA0001206936293610521FFF7DEFF10BD00005B
:102EB000034B1B6802201840431E9841C0B2704764
:102EC00000C00640EFF3108072B6034B1B68002B66
:102ED000FBD0BFF35F8F70472C0100D0BFF35F8F33
:102EE000024B00221A6080F3108870472C0100D03A
:102EF000F8B506000C001500FFF7E4FFE308F7182B
:102F0000F15C07222240012393400B4205D1DBB242
:102F10000B433B70FFF7E2FFF8BD2100280001F0F2
:102F20007DFD0000002307E0054A9A189200BFF3D8
:102F30005F8F0021116001331F2BF5D97047C04608
:102F400040000034054A1078431CDBB21370172B85
:102F500002D9130010221A707047C046C111002018
:102F6000074B9B68103080001950BFF35F8FBFF391
:102F70005F8F044B0021196082F310887047C046B0
:102F800000ED00E0240100D010B5091A081F0A4B1B
:102F90009C466144094A914208D8C30706D44010B0
:102FA0004005400D064B184380B210BD054B064A44
:102FB000A321064801F098FCFC070000FE0F00006A
:102FC00000E0FFFF88290110D42B0110B82901105F
:102FD00010B5091A04394C08090B08D14905490DE7
:102FE000064A11430180064B2343438010BD054B25
:102FF000054AAB21054801F077FCC04600F0FFFF11
:1030000000F8FFFFF0290110A82B0110B8290110CA
:1030100001238340034A10681840431E9841C0B200
:103020007047C04600E100E0002904D0034B18605F
:10303000034B18607047034B1860FBE780E200E029
:1030400000E100E080E100E010B5012383401800BA
:10305000FFF7EAFF10BD0000024B9B6810308000B4
:10306000C058704700ED00E070B504000D00EFF3AC
:10307000108672B60C4B1B68002BFBD0BFF35F8F22
:103080002000FFF7E9FF094B984201D0A84205D183
:10309000320029002000FFF763FF70BD044B054A92
:1030A0008621054801F020FC240100D0CD0100104C
:1030B000002A0110F02B0110B8290110F0B5CE46FE
:1030C000474680B583B006000D00EFF3108872B656
:1030D000564B1B68002BFBD0BFF35F8F544B9A6895
:1030E00034001034A300D758524B9F4207D0AF4250
:1030F00000D198E00197504BFB1A2F2B09D942467B
:1031000039003000FFF72CFF03B0C0BCB946B04611
:10311000F0BD3000FFF77CFF814600213000FFF753
:1031200093FFBFF35F8FEFF30581002901D08C423D
:1031300011D10123019C9C430022A368AB4212D011
:103140000622A256002A0DDB53009B189B0022008A
:10315000394CE418F1E73621384B394AFF31394808
:1031600001F0C2FB2200AB4256D106256557002D67
:1031700038DB6B005B199A002F4B9B189A68A26092
:10318000DA79E27106229A56A2719B795BB2002B22
:103190000FDA2D48A0806B005B199B00264AD318DC
:1031A0002A4A11789971157049463000FFF74CFF93
:1031B000A5E7201D6B005B199B001F4A9B181A1D79
:1031C0009B88D90A1C2907D15B055B15023359007E
:1031D0005118FFF7D9FEDDE71D4B1E4AB1211948F2
:1031E00001F082FB002912D1002A0ED0FF23937137
:1031F000194B9380154A1378A371184B0E49641A22
:10320000644163431B0D1370CEE70A4FF2E7201DA4
:103210001349FFF7DDFEC7E76A21124B084AFF3169
:10322000084801F061FB034F69E7C046240100D064
:1032300000ED00E0CD010010C4110020142B01109E
:10324000C02B0110B829011001BD00008A1F002009
:10325000FC2A0110E02B011001BDFFFFAAAA00000B
:10326000FE110020482B011070B5012101432E4BA7
:10327000CB1A2F2B28D8EFF30583002B2BD0EFF39D
:10328000108C72B6294A1268002AFBD0BFF35F8FF8
:10329000274A0400244D641B64416243120D54B25A
:1032A000244A92689B00D2588A421BD00022032AEB
:1032B00032D853009B189B001B49CB189B795BB2FB
:1032C000A3421FD00132F2E7C7211B4B1B4A490022
:1032D0001B4801F009FB92211A4B184AFF3118488C
:1032E00001F002FB134A92681749D150174B1A7824
:1032F00082711C70BFF35F8F0C4B00221A608CF33D
:10330000108870BD0D005300991889006918FF26B8
:103310008E710F4A8A80E9E7D1210E4B074A490096
:10332000074801F0E1FAC046C4110020240100D092
:10333000AAAA000000ED00E0502B01108C2B011018
:10334000B8290110782B0110CD0100108A1F002030
:1033500001BDFFFF842B01100022044B02E0044951
:1033600002C30132072AFAD97047C04600E400E0E0
:1033700080808080024B9C466144890001607047D8
:103380004000003410B50400FFF7DCFD0100200010
:10339000FFF7F0FFFF232371BFF35F8F10BD10B560
:1033A0000400FFF7CFFD01002000FFF7E3FFFF233C
:1033B000237100236371BFF35F8F10BD70B50500EB
:1033C0000C00080000F070FE0949200000F0B0FD7C
:1033D000FFF7B8FD074B9C466044800068602C7581
:1033E000D0231B061B786B75A400034BE55070BD02
:1033F0000137001040000034601D00200A4B1A689D
:10340000EFF3108172B61368002BFCD0BFF35F8F0F
:10341000054B1B68BFF35F8F00221A6081F3108891
:1034200040BF002000217047741F002010B5002904
:1034300022D003681B7B99421ED8174B9C466144DF
:10344000090183689C4661440C684968002A19D0C8
:1034500003681B7B9A4215D883680F4884466244F0
:1034600012019A1810685368020001208B4201D89B
:103470000ED00020C0B210BD084B094A3C210948BB
:1034800001F032FA054B064A3C21064801F02CFABD
:10349000A242EFD8EDE7C046FFFFFF0FFC2C011062
:1034A000082F0110CC2C011010B500291ED0037B71
:1034B00099421BD84B005B18033B0468A446634445
:1034C000002919D0002A1DD0914221D0002A25D0F0
:1034D000047BA24222D804685000801803382018C8
:1034E0008170197800291FD11A7010BD104B114A34
:1034F0006821114801F0F8F9104B114A6F310E485C
:1035000001F0F2F90F4B0E4A70210B4801F0ECF973
:103510000D4B0B4A7121084801F0E6F9044B054AAE
:103520006821054801F0E0F941701A70DDE7C046F6
:10353000202D0110742F01103C2D0110802D011041
:10354000502F01108C2D0110982D011070B5060020
:103550000D001400002914D0002A14D0806873686C
:103560009847002806D0220029003000FFF79CFF72
:10357000280007E02A0021003000FFF795FF200017
:1035800000E0100070BD0800FCE70000F0B583B05B
:103590000500009201930AAB1C780BAB1F78002C3E
:1035A00026D003685A7B944207D10123002B19D1FE
:1035B000002C3BD1200003B0F0BD002C0CD01A7BB6
:1035C000944209D81A6863001B19033BD3189B78EF
:1035D000002BEBD00123E9E73E4B3F4A68213F48EF
:1035E00001F082F93E4B3F4A67213F4801F07CF9E8
:1035F00003689C7B002CDBD012D01A7B94420FD83E
:1036000062001219033A19688C4662445178997322
:10361000002900D1D9730023937053701370C7E74A
:103620002C4B2D4A68212D4801F05EF9002C3AD030
:103630002B681B7B9C4236D82C4BE3181B01AA68D5
:1036400094466344009A1A60019A5A60089A9A60F4
:10365000099ADA602E68002C2BD030D0337B9C4244
:103660002DD863001B19033B326894466344002243
:103670009A705A701A70717B22003000FFF766FF53
:103680007073844200D095E7287D009A019B00F07A
:1036900097FC061E01D0002F17D00C9B002B00D1E9
:1036A00088E71E7086E7124B124A3C210E4801F053
:1036B0001BF9114B114AA521084801F015F9054BDA
:1036C000054A6821054801F00FF92868210000F03B
:1036D000AFFEE2E7202D0110742F01103C2D0110E8
:1036E000B02D0110802F0110CC2C0110FFFFFF0F17
:1036F000FC2C0110082F0110C82C0110642F0110A0
:10370000F0B5DE4657464E464546E0B58BB00990CB
:10371000002308938200B54BD658370052E0B44BD3
:10372000B44A3F21B44801F0DFF8B44BB44A3C211D
:10373000B44801F0D9F8002901D1002869D100214D
:10374000404600F06BFEA04219D12A686B680692D1
:103750000793AB689846EB689A464346002B14D013
:10376000002C18D03B681B7B9C4214D8631EFA685F
:10377000D35C08931B0218433861002015E0A24B6C
:10378000A24A8E219F4801F0AFF8A14B9F4A922197
:103790009C4801F0A9F8994B9E4A4121994801F0B3
:1037A000A3F800239A46984600207B68BFF35F8FFA
:1037B00000221A6086F310884346002B32D100287D
:1037C00000D10CE100F046FB02000B1EA7DB00203D
:1037D0000021069007917868EFF3108672B60168B1
:1037E0000029FCD0BFF35F8F396888464C7B002CE2
:1037F000D7D09AD0097B8C4297D8874965182D017C
:10380000B9688C46654428686968801A994100291E
:1038100091DD2A686B68099800F0D2FB00239A4674
:103820009846C2E7089B1B0223439946514618005D
:10383000C04705000E007A68EFF3108B72B613686C
:1038400059424B41D9B2002BF9D1BFF35F8F002E03
:103850001EDB002E46DD3B69002B47D04B456DD16A
:1038600000F0F8FA02000B1E6EDB52197341002BB8
:1038700070DB002B72DB0021049101310391029473
:1038800051460191414600913800FFF77FFE4CE020
:103890003B69002BDDD04B4514D1069A079B521B88
:1038A000B341002B14DB002B16DB00210491013106
:1038B0000391029451460191414600913800FFF76F
:1038C00065FE32E0554B514AA1214E4801F00CF8FB
:1038D00001225242524BE6E7454B464A3F214648B9
:1038E00001F002F8002E01D1002DB4D13B68002C6C
:1038F00050D05A7B944237D1012100294AD1DA7B3A
:10390000002A4DD19A7B002A03D1DA7B002A5AD1B2
:103910009C73DC73002C5CD03B681B7B9C4258D8AA
:10392000FA68013C135D0133135500233B617A684B
:10393000BFF35F8F13608BF3108843E7374B334A35
:10394000A421304800F0D0FF294B2A4A3F212A48C1
:1039500000F0CAFF01225242314B8AE7244B254A2C
:103960003F21254800F0C0FF002C0DD01A7B944267
:103970000AD862001219033A1868844662449278A1
:10398000002ABAD00121B8E7264B274A68212748E8
:1039900000F0AAFF264B274AF621244800F0A4FF96
:1039A000002A0AD0197B8A4207D851008A18033AA4
:1039B00019688C4662445470A4E71A4B1A4A68216D
:1039C0001A4800F091FF1C4B1A4AFB21174800F0DF
:1039D0008BFF0A4B0F4A41210A4800F085FF0BB0CC
:1039E000F0BCBB46B246A946A046F0BD601D002013
:1039F00040280110D42E011094280110FC2C011035
:103A0000082F0110CC2C0110D82D0110EC2E011024
:103A1000F02D01102C2F0110FFFFFF0FFC2D0110C6
:103A2000FFFFFF7F202D0110742F01103C2D01108E
:103A3000382E0110402F01105C2E011010B50C4BD8
:103A40005B68002B04D00A210A48FFF793FC10BDE5
:103A5000074C2300084A1021206800F0EFFB0320E8
:103A600000F0ECF903212000FFF7A8FCEBE7C046CB
:103A70000C120020741F00202D34001010B5064BCE
:103A80005B68002B01D0044810BD044B044A5E2142
:103A9000044800F029FFC0460C120020702E0110CF
:103AA000142F0110CC2C0110F0B5DE4657464E46BF
:103AB0004546E0B58BB0804616001F00149B9A4621
:103AC000159B994616AB1B789B461F2302AA94466A
:103AD000634400221A702BE0002809D04246126885
:103AE000127B904204D8421E4146C9688A5C41E07C
:103AF000404B414A4121414800F0F6FE07984CE016
:103B0000361BAF41002F07DB002F11DA3C4B3D4A3B
:103B10003F213D4800F0E8FE012676423B4FF3E7A7
:103B2000374B384A3F21384800F0DEFE002F4FDB8C
:103B300043465A68EFF3108472B6136859424B41FA
:103B4000D9B20791002BF8D1BFF35F8F1F3302AAC0
:103B50009446634404930023039302934B460193DA
:103B60005346009332003B004046FFF70FFD031E13
:103B7000B2D1020041464968BFF35F8F00250D6056
:103B800084F31088002B29D01F2302A98C4663449C
:103B90001B78002BB2D112021043002B20D05B46C1
:103BA000002B1DD04946D04704000D0003000B43F5
:103BB0001DD00029A4DB00F04DF906000F1EAFDB7D
:103BC00036196F41002FB1DA012676420F4FADE76B
:103BD0000B4B0C4A3F210C4800F086FE012040426E
:103BE0000BB0F0BCBB46B246A946A046F0BD079854
:103BF000F6E7C046FC2C01102C2F0110CC2C011034
:103C000040280110D42E011094280110FFFFFF7FDF
:103C1000F8B504004268EFF3108572B61368584295
:103C20004341D8B2002BF9D1BFF35F8FCBB22268EA
:103C3000567BB3421BD10120002848D0206988421E
:103C40002BD0090AC9B2002B2ED02068007B8342FA
:103C50002AD8581EE668305C88422BD00020636862
:103C6000BFF35F8F00221A6085F31088F8BD002B28
:103C70000DD0167BB3420AD85E00F618033E1768D3
:103C8000BC466644B678002ED6D00120D4E7134B4C
:103C9000134A6821134800F027FE9521124B134A5E
:103CA0004900134800F020FE124B134A41211048EE
:103CB00000F01AFE1900100000F0BAFB0028CED167
:103CC00032210E4B094AFF31094800F00DFE2369ED
:103CD0008B42C4D100232361C1E7C046202D0110CF
:103CE000742F01103C2D0110942E0110BC2E0110D8
:103CF000CC2C0110FC2C01102C2F0110B82E01101F
:103D000070B584B005000C00EFF30583002B1ED1C5
:103D1000FFF7B4FE002302930193224B00932A0085
:103D20002300FFF7C1FE061E23DD20BFFFF7A6FE1E
:103D30003100FFF76DFF1C4B5B6A9C422DD81A4A7D
:103D4000926AAA422CD29C4225D0012026E0164B32
:103D50005B6A994209D8144A926A824207D2994210
:103D600001D001201AE0002018E0002016E0012018
:103D700014E00D4B5B6A9C4209D80B4A926AAA4236
:103D800007D29C4201D0012008E0002006E000207C
:103D900004E0012002E0002000E0002004B070BD3B
:103DA0000120FBE7FD3300100040054070B5EFF344
:103DB00005801038EFF3108C72B61A4B1B68002B7D
:103DC000FBD0BFF35F8F01221300834016494B6382
:103DD00016490B60164909780C00C440224214D0E1
:103DE000114A546A8200134D5259944206D38200FC
:103DF000114C125999430E4B197007E00A4A031DE2
:103E00009B0099589950002200E00022BFF35F8F79
:103E1000044B002119608CF31088002A00D09047D1
:103E200070BDC046280100D0004005403C700540F0
:103E30008B1F0020781F0020681C002010B5010097
:103E4000024A0348FFF754F810BDC046A02F0110E6
:103E5000891F0020044B5B6A034A906A1900536A69
:103E60009942F9D17047C04600400540084B5B6A53
:103E700001E0074B5B6A8B42FBD301E0044B5B6ABA
:103E80008B4203D1024B9B6A8342F7D37047C046F3
:103E90000040054070B504000D00FFF7DBFF020095
:103EA0000B0020002900801859418B4202D804D110
:103EB000824202D901204042C117002902DBFFF7EC
:103EC000D5FF70BD024B034A3F21034800F00CFDB3
:103ED00040280110403001109428011010B500282E
:103EE00007DB064B9A6A054B9B6A9B1A8342FAD3FF
:103EF00010BD0021FFF7CEFFFAE7C04600400540A5
:103F000010B50A4B984207D843011B1A9B0018189A
:103F1000C000FFF7E3FF10BDFA229200002300214A
:103F200002F0E4FCFFF7B6FFF5E7C0469BC42000B3
:103F300070B504000D00EFF3108672B61B4B1B68C2
:103F4000002BFBD0BFF35F8F002D1CD02000FFF7AC
:103F500083F8174B83420BD019002000FFF784F839
:103F600001212000FFF770F80123A340114A1360DC
:103F7000A400114BE550BFF35F8F0C4B00221A6079
:103F800086F3108870BDA2000B4B0021D150012296
:103F9000A2400A490B7893430B7005492000FFF7B4
:103FA0008DF800212000FFF74FF8E4E7280100D04A
:103FB000AD3D001038600540681C00208B1F0020BC
:103FC000F0B5DE4600B584B00400150001921E0075
:103FD0000293FFF73FFF03958E4202D84ED18542F0
:103FE0004CD9EFF3108B72B6274B1B68002BFBD01C
:103FF000BFF35F8F254A17780125A540EBB23B43FD
:104000001370234B5D63221D92000199D150A200D1
:104010002049029850501B6A2B4212D11C4B1B6C3A
:104020002B4208D00020BFF35F8F174B00221A608D
:104030008BF3108823E0184B184AC521184800F06C
:1040400053FCFFF707FF8E4214D802D1039B834233
:1040500010D80E4B1B78BB420ED00D4B1D625D631A
:104060001F2004400123A3400E4A1360074B1F701A
:104070001E38D8E70020D6E70120D4E7012004B09D
:1040800080BCBB46F0BDC046280100D08B1F00207D
:1040900000400540781F0020C42F0110243001107B
:1040A000E82F011080E200E0EFF3108C72B60B4BAA
:1040B0001B68002BFBD0BFF35F8F01238340084AAE
:1040C000136208490A789A430A70BFF35F8F034B63
:1040D00000221A608CF310887047C046280100D077
:1040E000004005408B1F002010B500291ED0037B27
:1040F00099421BD84B005B18033B0468A4466344F9
:10410000002919D0002A1DD0914221D0002A25D0A3
:10411000047BA24222D8046850008018033820187B
:104120008170197800291FD11A7010BD104B114AE7
:104130006821114800F0D8FB104B114A6F310E482E
:1041400000F0D2FB0F4B0E4A70210B4800F0CCFB65
:104150000D4B0B4A7121084800F0C6FB044B054A81
:104160006821054800F0C0FB41701A70DDE7C046C9
:10417000202D0110403101103C2D0110802D011027
:104180002C3101108C2D0110982D011070B50600F6
:104190000D001400002914D0002A14D08068736820
:1041A0009847002806D0220029003000FFF79CFF26
:1041B000280007E02A0021003000FFF795FF2000CB
:1041C00000E0100070BD0800FCE7000010B50023FF
:1041D000437301338373037BC3730123027B9A42CE
:1041E00014D9002B0CD0027B934209D85A00D21864
:1041F000033A01688C4662440133DBB25370EDE749
:104200000B4B0C4A68210C4800F06EFB002A09D0C9
:10421000924207D8016853009A18033A8A1800237B
:10422000537010BD024B034A6821034800F05CFB49
:10423000202D0110403101103C2D011010B50173EB
:1042400042608360FFF7C2FF10BD000070B504003C
:10425000081E00D170BD002934D0237B994231D88B
:104260004B005B18033B2268944663445A78002A4B
:10427000F0D02DD0237B9A422AD853009B18033BC1
:1042800021688C4663445D7800215970002825D050
:10429000237B984222D843001B18033B21688C469D
:1042A00063440021597001002000FFF76FFF0600F2
:1042B00029002000FFF7CAFF020031002000FFF7AD
:1042C00065FFC7E7084B094A6821094800F00CFB65
:1042D000054B064A6821064800F006FB024B034ADC
:1042E0006821034800F000FB202D0110403101102F
:1042F0003C2D011070B505000C00160000292FD0D0
:1043000034D0037B994231D84B005B18033B0268E1
:10431000944663445A78002A2ED19A78002A31D1E3
:104320001978FFF793FF0300002E0AD0EA7B002ADA
:104330002ED1AA7B002A03D1EA7B002A3BD1AC73A1
:10434000EC73002B3DD1002C4FD02B7B9C424CD8E2
:104350002B6861000C19033C1C190023637070BDAD
:10436000254B264A3821264800F0BEFA254B264A1E
:104370006821264800F0B8FA254B204A3A21204807
:1043800000F0B2FA234B1D4A3B211D4800F0ACFA65
:10439000002A0AD0297B8A4207D851008A18033A9A
:1043A00029688C4662445470C3E7164B164A68214C
:1043B000164800F099FA184B104A4221104800F0B4
:1043C00093FA002B0BD02A7B934208D843001B188A
:1043D000033B2A689446634400229A70B3E7094B72
:1043E000094A6821094800F07FFA064B064A68210D
:1043F000064800F079FAC046583001101831011013
:1044000060300110202D0110403101103C2D0110B1
:1044100094300110BC3001105C2E011070B5040006
:104420000A00457B2900FFF765FF6073280070BD17
:1044300070B50400002967D0437B8B420ED0002961
:1044400011D0037B99420ED84B005B18033B0268E6
:10445000D0188378002B0CD1002056E00121FFF703
:10446000DDFF012051E0294B294A6821294800F04D
:104470003BFA002B20D0227B93421DD85A00D31840
:10448000033B2268D2182568EB5C8B421AD0002BC4
:104490001BD0227B934218D85A00D318033B2268C2
:1044A000D21853788B4216D0002BF0D11A4B1B4AEE
:1044B0006B211B4800F018FA144B154A6821154867
:1044C00000F012FA4378137007E0104B104A68218D
:1044D000104800F009FA437853700023837043704A
:1044E00001222000FFF706FF0200617B814205D018
:1044F0002000FFF74BFE6073012006E0094B074ADE
:104500007121074800F0F0F9002070BD202D011046
:10451000403101103C2D0110842B0110003101109D
:1045200060300110E0300110F8B5DE4657464E46C7
:104530004546E0B505000F0092460A9A93424ED3D5
:104540001A0E91461E020A9A00233000494601F0D5
:10455000CFFB80466C006419A4002F4B9C4664443A
:104560006368834200D260602B1FDBB29B46012B45
:104570003BD9C0239B012343802212011A60AB0068
:10458000264A9958002905D0506901F073FB013083
:104590000138FDD153465A0123685A40E0231A409E
:1045A00080235B0123431A605A46012A28D98023BD
:1045B0009B012343802212011A60434663604246F6
:1045C00000233000494601F093FBAD00134B5851D6
:1045D0000120F0BCBB46B246A946A046F8BD104B30
:1045E000104A2D21104800F07FF9012FC1D1C023BE
:1045F0009B01234303221A60A368DB07FCD5C9E7AC
:104600002168794003220A401A60A2680123BB4056
:104610001342FAD0CBE7C04600800040781C00204F
:104620004C3101109C3101106031011030B583B064
:104630000C2000F017F9FEF73BFC00280DD00023FA
:1046400004E099002D4A2E4888500133092BF8D9EF
:104650002A4B2C4A5A6203B030BD2B4B00229A677A
:1046600000F008F9294B01221A60274B5B6C012BE3
:10467000FBD1274B03221A60234B9B6B012BFBD1F1
:10468000013300930433234A0121234800F054F8F6
:1046900005230093214A0121214800F04DF8214BC8
:1046A0000093002202210420FFF73EFF1E4D0095DB
:1046B0002B00002201210520FFF736FF104C00944B
:1046C0002300002200210720FFF72EFF0094230083
:1046D000002200210820FFF727FF0A4B0093230048
:1046E000002200210920FFF71FFF00952B00002268
:1046F00000210620FFF718FFADE7C046781C002018
:10470000006CDC021BB70000008000403CB00040A1
:1047100030B00040002F685900800240008C86476E
:1047200000C00240001BB700405973078000014BD6
:10473000C0587047781C0020F0B5C64600B504008C
:104740000D00170098460C2001F094FA0600394B32
:10475000FA18394B9A4241D843011B1A9901C91AD8
:10476000C90009188901380001F084FA0200103AE2
:1047700098235B009A4237D84346013B062B39D831
:10478000069B013B062B35D83F09B74238D3434639
:104790001E04069B1A0316432368002B36DB274BA7
:1047A0009C4244D080225201254B1A60254B1A604E
:1047B000254B9B6811009943FAD12560A060231D09
:1047C000C02292011A43212313602368002BFCDAD4
:1047D000E6600823136080BCB846F0BD1B4B1C4A42
:1047E00011211C4800F080F81B4B194A1921194867
:1047F00000F07AF8194B164A1C21164800F074F89C
:10480000174B134A2321134800F06EF822683F2308
:104810001340AB42C3D1A3681B051B0D8342BED11D
:10482000E368EE22D2021340B342B8D1D3E780222C
:104830009201B9E780E84BD380F8A93200C002406A
:1048400000E0004000F0004000C00040AC3101102A
:10485000C83201100C3201104432011060320110D4
:10486000AC32011080239B000343014AD36270479E
:1048700000800540064BAA2212011A602F22DA603E
:10488000044B054A1A60024B5B68002BFBDA704749
:10489000004002400060024000B0FA0000BEFDE7A8
:1048A00003000A4A1268002A08D0084A1068C31890
:1048B000074A9A4206D3054A13607047034A0549DE
:1048C0001160F2E701204042F7E7C046EC1C0020EF
:1048D000000004208C1F002000207047012040426F
:1048E000704710B5FFF7DAFF10B582B00C00190061
:1048F000002A0CD0084B002A0BD001920093230011
:104900000200064802F092FA0120FFF7C7FF044BAD
:10491000F1E7034AF1E7C046D4320110E432011056
:10492000B837011070B52B4B2B4A1A602B4B2C4A11
:104930001A602C4B9A682A4B9343FAD12A4C01E017
:1049400008CC9847294B9C42FAD3FFF76FFE234BC4
:10495000274A1A60234B9B68DB43DB01FAD1254BC6
:1049600040229A675A671A67DA66234C09E0234B9C
:10497000234A86212348FFF7B7FF2000FEF702FDF8
:104980000834214B9C4209D22368002BF5D0012B1F
:10499000EDD12000FEF703FD0834F2E71B4CA168BF
:1049A0001B4DC022280002F089F8A560EFF30583B3
:1049B000002B00D000BEFEF7B5FAFEF7CDFCFFF7E6
:1049C0003DF8144C01E008CC9847134B9C42FAD3B5
:1049D00070BDC04600E00040BFCDFBFE00F00040CF
:1049E000FE7F3C0000C00040D01A0020E01A0020EA
:1049F000FFFFFF0100F00140C81A0020143301102E
:104A00008033011034330110D01A002000ED00E093
:104A100000000020E01A0020EC1A00200FB400B5BE
:104A200083B0084802F0D2F9049B002B07D005A9F7
:104A30000191180002F0DAF9034802F0C7F90120E9
:104A4000FFF72CFF70330110E84A01109A4200D2A0
:104A500088547047704710B5002802D00B68496829
:104A6000984710BD0100002007E083001B185B0081
:104A7000501C08601078C01830380A681378303B32
:104A8000DBB2092BF1D97047F0B5DE4657464E46EA
:104A90004546E0B583B093461F000C9B9A460D9C9B
:104AA0000E9B99460F9B9B0703D0B8460F0006004C
:104AB00022E00192A34688464E46B9460700B4421A
:104AC00007D2551C4B4641462020B84701342A00E6
:104AD000F5E73D004F465C46019B9B46B146464686
:104AE000B84637002E0007E0013C551C5346185DC0
:104AF00043463900B0472A00002CF5D135003E006E
:104B000047460F9B9B0707D4100003B0F0BCBB4681
:104B1000B246A946A046F0BDB0464E46B9462F0063
:104B20005D46531BB342EFD2541C4B4641462020F6
:104B3000B8472200F5E7F0B5CE46474680B585B0C8
:104B4000944698460C9D0D9C0EAB1B789946109A86
:104B5000119B129EB7071CD4002B0CD0F7070AD567
:104B60004F46002F02D10C37374204D0013B02E000
:104B700030272F550134944201D21F2CF8D9F70762
:104B800007D59C4205D21F2C03D830272F5501345E
:104B9000F5E7F70615D5770505D4002C03D0944228
:104BA00024D09C4222D00F9A102A2BD00F9A102A80
:104BB00030D00F9A022A35D01F2C02D830222A5525
:104BC00001341F2C05D84A46002A31D02D222A55FF
:104BD0000134039602930194009543466246FFF721
:104BE00053FF05B0C0BCB946B046F0BD621E012CF3
:104BF00006D00F9F102F01D01400D4E7023CD2E75B
:104C00001400D0E7B206D1D41F2CCFD878222A5571
:104C10000134D1E7B206CCD51F2CCAD858222A5568
:104C20000134C9E71F2CC7D860322A550134C3E7C5
:104C3000720703D52B222A550134CAE73207C8D59B
:104C400020222A550134C4E7F0B5DE4657464E46C9
:104C50004546E0B593B081468A46089209931CAB5D
:104C600010CB1B789B461E9D219B9846002C03D1A0
:104C7000102342469A4390468023DB0046461E405E
:104C800042461A4212D0002C22D000260EE03033C9
:104C9000D9B2771C0AAB99552900200000F0EAFF31
:104CA000AC4216D31F2F14D83E0004002900200068
:104CB00000F0E0FFCBB2092BE9D94246920605D5B8
:104CC0004121C918C9B20A39C9B2E2E76121F8E73E
:104CD000270043460693209B05931F9B049303954F
:104CE0005B46029301970AAB0093099B089A5146D1
:104CF0004846FFF720FF13B0F0BCBB46B246A946BA
:104D0000A046F0BDF0B5DE4657464E464546E0B5F6
:104D100095B0089009910A920B931E9E1F9C20ABA0
:104D20001B789B46229B9946239D269B9A463300DF
:104D3000234303D1103352469A4392468023DB002B
:104D400057461F4052461A4219D0330023432DD0F4
:104D5000002714E03033DAB27B1C98460CABDA55EE
:104D60004A462B003000210000F0C2FFA5421FD8A8
:104D700019D043461F2B1BD8474606000C004A4655
:104D80002B003000210000F0B3FFD3B2092BE1D992
:104D90005246920605D54122D218D2B20A3AD2B270
:104DA000DAE76122F8E7B145E3D901E0002398464C
:104DB00053460693259B0593249B04934B460393EC
:104DC0005B460293434601930CAB00930B9B0A9AFC
:104DD00009990898FFF7AFFE15B0F0BCBB46B24684
:104DE000A946A046F0BD0000F0B5DE4657464E4647
:104DF0004546E0B591B083468A460C9298461A9C87
:104E000008941B9D099522002B002000290001F029
:104E1000FAF9002800D0E5E001225242D74B2000E9
:104E2000290001F0EBF9002800D0DBE0012252421A
:104E3000D34B2000290001F0CBF9002800D0D1E0AD
:104E400000220023089E3000099D290001F0C0F9CE
:104E5000002800D0DDE0089809990690079180238A
:104E6000DB001E9A1A400D921E9A1A4201D10623A7
:104E70001C930698079904000D000A0006000243DF
:104E800000D1D1E0080D4005400DBE4CA446604461
:104E90000A03120BBC4B13431F0001F0C7F9BB4AB6
:104EA000BB4B01F052F9BB4ABB4B01F027F90400A0
:104EB0000D000022B94B3000390001F016F9B84A54
:104EC000B84B01F042F902000B002000290001F06C
:104ED00015F901F0C3F9814601F0A8F904000D00AD
:104EE000B14AB24B01F031F90022B14B01F006F9A1
:104EF00001F0B4F90600AF4AAF4B2000290001F0E1
:104F000024F904000D00300001F090F9AB4AAC4BDD
:104F100001F01BF902000B002000290001F0E5F868
:104F200004000D0002000B0001F00FF90A900B9134
:104F3000A44BF31800261F0522002B002000290097
:104F400001F0DCF80E900F9122002B000020802150
:104F5000C90501F0CAF804000D0000229A4B0A9816
:104F60000B9901F0D4F80022984B01F0C7F8020029
:104F70000B000A980B9901F0CAF80022944B01F03B
:104F8000BDF802000B000A980B9901F0C0F802006E
:104F90000B002000290001F0B1F802000B000E9870
:104FA0000F9901F0B4F80022774B01F0A7F8320016
:104FB0003B0001F0CAF806000F0004000D00069A3D
:104FC000079B01F01BF9002830D001235B429C466F
:104FD000E14400227D4B3000390001F098F80400D4
:104FE0000D0023E01E9B04931D9B03931C9B0293C7
:104FF000089A099B0092019343460C9A51465846E1
:1050000000F0FCF811B0F0BCBB46B246A946A04681
:10501000F0BD0023002406930794069680231B0608
:105020009C46654407951AE7002399464B4663332F
:10503000C62B1ED804261E9B1B0526D52B002343FA
:105040000FD0644A644B0698079901F0CFF8002806
:1050500079D00022614B0698079901F0B9F8002831
:1050600071D01C9B4B4506DD4A46981A431E1C9383
:1050700003E00526DFE700231C938023DB001E9A54
:105080001A431E920026002399461D9B9E4264D21D
:105090009F1B02231E9A1A400A921E9A134202D0A4
:1050A000002E00D000274B46002B07D022002B00FB
:1050B0000698079901F02BF806900791002200232B
:1050C0000898099901F084F8002848D1444B1E9AA9
:1050D0001340049303971C9B0293069B079C009329
:1050E000019443460C9A5146584600F087F8002E2A
:1050F00000D187E71E9B9B063DD54525441C4346B2
:10510000020051462800D8474B46DA179B185340F7
:1051100005220592013E0496002203920A32029271
:105120004A46D00F0190009343462200514658460C
:10513000FFF78AFD0A9B002B00D163E702005F4660
:105140000C9E1D9D54E01C9B002B9ED00D9B002BA4
:105150009BD01C9B013B1C9397E7002799E7069C7B
:10516000079D2200290080200006844661440B0030
:1051700006920793AAE76525C0E7C046FFFFEF7FC9
:10518000FFFFEFFF01FCFFFF0000F03FFB799F50A6
:105190001344D33FB3C8608B288AC63F0000F83F52
:1051A00061436F63A787D23F71A379094F930A4088
:1051B0000000E03F1655B5BBB16B0240EF39FAFE77
:1051C000422EE63FFF03000000002C400000244078
:1051D000000018402D431CEBE2361A3F80842E411C
:1051E000FFF7FFFF541C434651462020B8472200DA
:1051F000931BAB42F6D3100004E7C046F0B5DE4681
:1052000057464E464546E0B595B006900791934601
:105210009946209F1E9A1F9B1000190000F0F3FF73
:10522000002831D101225242BF4B1E981F9900F035
:10523000CFFF002837D101225242BC4B1E981F9944
:1052400000F0DCFF00283DD10022B94B1E981F99C9
:1052500000F0D4FF002850D10022B64B1E981F99B1
:1052600000F0B6FF002848D1002200231E981F99A5
:1052700000F0AEFF002850D100239846229B5B052A
:1052800000D4B6E0002458E0229B0393219B0293B4
:1052900003230193A84B00934B465A46079906985F
:1052A000FFF7F2FB0EE1229B0393219B0293042361
:1052B0000193A24B00934B465A4607990698FFF775
:1052C000E3FBFFE00423229A1A4022990B4210D0FC
:1052D0009B4B002A0FD0042222990391219902911D
:1052E000019200934B465A4607990698FFF7CCFB6C
:1052F000E8E0944BEDE70322EEE7229B0493219B29
:10530000039302971E9B1F9C009301944B465A46A1
:1053100007990698FFF768FDD4E01E9A1F9B0020AE
:10532000002100F0E2FE1E901F9101239846A5E7A0
:105330000CAB30221A55013F01341F2C01D8092F24
:10534000F6D81E981F9900F089FF050000F06EFF47
:1053500002000B001E981F9900F0C7FEFA007A4B5E
:105360009B181A685B680A920B9300F0EEFE089097
:10537000099100F097FF060000F054FF02000B00B7
:105380000898099900F0B1FE0890099100226F4B2E
:1053900000F034FF00282ED00136300000F042FF2C
:1053A00002000B000A980B9900F018FF002801D0AA
:1053B00001350026002F2CD1280000F037FF020015
:1053C0000B001E981F9900F090FE06000F000022AF
:1053D0005E4B00F0FDFE002846D100225B4B300002
:1053E000390000F00BFF00283ED1EB073CD501351A
:1053F0003AE0062746E70022544B0898099900F046
:10540000E7FE0028D6D1002E01D0F307D2D5013611
:10541000D0E7AA461F2C11D8013F0A21300000F026
:1054200029FC651C30310CAB19550A21300000F005
:1054300021FC092E0ED906002C00EBE755461F2C47
:105440000CD87B1E002F09D00CAA302111551F004B
:105450000134F4E72B0055461C00F0E71F2C03D85D
:105460000CAB2E221A5501341F2C10D80A2128000B
:1054700000F0D8FB661C30310CAB19550A2128000E
:1054800000F0D0FB051E01D03400EDE7340003230B
:10549000229A1340012B1CD01F2C06D84346002B08
:1054A00032D00CAB2D221A550134229B0393219B41
:1054B000029301940CAB00934B465A460799069809
:1054C000FFF7E2FA15B0F0BCBB46B246A946A046CB
:1054D000F0BD219B002B13D04346002B02D10C338F
:1054E00013420FD0219B013B2193190003E00CAB29
:1054F00030221A5501348C42CED21F2CF7D9CBE77B
:105500002199F8E72199F6E7229B5B0704D50CABBC
:105510002B221A550134C8E7229B1B07C5D50CABBB
:1055200020221A550134C0E7FFFFEFFFFFFFEF7F96
:1055300065CDCD4165CDCDC19C330110A0330110A7
:105540009433011090330110883501100000E03FC2
:10555000F0B5DE4657464E464546E0B593B0824626
:105560008B4690461193002900D1EBE20027554667
:10557000119B1878002800D1E7E2252809D07C1C6F
:1055800043463A005946A847119B0133119327001F
:10559000EEE7013311930024119A11780B00203BA0
:1055A000D8B2102803D88300D048C3589F460B00B8
:1055B000303BDBB2092B2CD92A292FD000230A93A8
:1055C000119B1A782E2A39D000239A46119A137803
:1055D000683BD9B2122976D88B00C549CB589F4673
:1055E00001231C4301321192D6E702231C430132EE
:1055F0001192D1E704231C4301321192CCE7082316
:105600001C4301321192C7E710231C43013211924F
:10561000C2E711A8FFF726FA0A90D1E71C9B1A1DD2
:105620001C921868002804DB0A90119B0133119327
:10563000C6E702231C4343420A93F6E78022D200C6
:1056400014435A1C11925A781300303BDBB2092BD9
:1056500004D92A2A07D000239A46B7E711A8FFF7F2
:1056600001FA8246B2E71C9B1A1D1C92186800289A
:1056700004DB8246119B01331193A7E70020F8E772
:1056800080235B002343511C119152786C2A01D076
:105690001C0018E0C0239B001C430131119112E053
:1056A00080232343511C11915278682A01D01C0099
:1056B00009E0C0231C430131119104E080235B0009
:1056C0001C4301321192119B18780300253BDAB27A
:1056D000532A00D92CE29300864AD3589F46802350
:1056E0009B001C4301321192EDE780235B001C43B9
:1056F00001321192E7E7782809D0582838D06F286E
:1057000038D0622838D010239C430A2600E01026A7
:10571000582833D0692803D0642801D00C22944340
:10572000630501D50122944369282AD0642828D032
:10573000A30500D59FE0E30500D5B8E0630600D4DB
:10574000CAE01C9A111D1C911168FF220A400594A1
:105750000A9B0493534603930296002301930092FD
:1057600043463A0059462800FFF76EFA070027E043
:105770001026CDE70826CBE70226C9E720221443EE
:10578000C8E7A30520D4E30550D4630666D51C9A68
:10579000111D1C911168FF220A40D317D1185940DE
:1057A00005940A9B0493534603930296D20F0192E9
:1057B000009143463A0059462800FFF745FA070092
:1057C000119B01331193D3E61C9BDA1D07218A43F9
:1057D000110008311C91116853689C46DB170C932B
:1057E0000D930C9A0D9B100048400E90624653405A
:1057F0000F930E980F990C9A0D9B801A99410E9059
:105800000F9108940A9B079353460693049600232E
:1058100005936346DA0F02920090019143463A00E5
:1058200059462800FFF76EFA0700C9E71C9A111DB8
:105830001C911268D317D118594005940A9B049300
:10584000534603930296D20F0192009143463A00C9
:1058500059462800FFF7F8F90700B1E7230605D5F8
:105860001C9A111D1C910023D25E96E71C9A111DF3
:105870001C91126891E71C9BDA1D07218A431100D5
:1058800008311C9108940A9B07935346069304968B
:1058900000230593029313685468009301944346D0
:1058A0003A0059462800FFF72DFA070088E71C9AAE
:1058B000111D1C9105940A9B049353460393029671
:1058C000002301931368009343463A005946280089
:1058D000FFF7BAF9070073E723060DD51C9A111DCF
:1058E0001C9112681204120C31E7C046A833011053
:1058F000EC330110383401101C9A111D1C911268F0
:1059000025E746281AD01C9B0733072293431A0029
:1059100008321C9204940A9A0392524602925C68DE
:105920001B680093019443463A0059462800FFF74C
:1059300065FC0700119B0133119319E620231C43DA
:10594000E1E7672801D0472802D180231B011C43CF
:10595000452801D0472801D120231C431C9B073335
:10596000072293431A0008321C9204940A9A039265
:10597000524602925C681B680093019443463A00C9
:1059800059462800FFF730FA0700119B01331193A5
:10599000EEE502231A002240924623421FD0012442
:1059A0001C9B1A1D1C927A1C9146187843463A009B
:1059B0005946A8475346002B16D1119B013311932A
:1059C0004F46D5E5561C434659462020B84723008C
:1059D00032005C1C9D42F5D83D001700E0E7012332
:1059E0003A002F000A9DF4E74A46A9460A9D06E0C0
:1059F000571C434659462020C84734003A00661CCD
:105A0000A542F5D84D469146D7E71C9B1A1D1C921E
:105A10001B6899465346002B00D1013B4E4601E0DE
:105A2000013613003278002A02D05A1E002BF7D11B
:105A30004B46F21A10928023DB0026001E401C42C7
:105A400003D0524501D95346109302231A00224035
:105A50000B92234205D03A0037004C46A9465546E2
:105A600020E03A00109B5F46B3462E0006E0551C2E
:105A7000434639002020B04723002A005C1C0A99C5
:105A80009942F4D835005E46BB46109437004C4628
:105A9000A946554606E01D000134561C43465946AA
:105AA000C84732002078002804D0002FF4D06B1EA5
:105AB000002DF0D117004D460B9B002B03D1119BFD
:105AC0000133119354E50A9F109B06E0561C434690
:105AD00059462020A847230032005C1C9F42F5D87D
