:020000041000EA
:1000000000B5324B212058609868022188439860DF
:10001000D860186158612E4B002199600221596106
:100020000121F02299502B49196001219960352056
:1000300000F044F80222904214D00621196600F024
:1000400034F8196E01211966002018661A6600F04E
:100050002CF8196E196E196E052000F02FF8012189
:100060000842F9D1002199601B49196000215960AB
:100070001A491B48016001219960EB211966A021F2
:10008000196600F012F800219960164914480160C1
:100090000121996001BC002800D000471248134993
:1000A000086003C880F30888084703B5996A0420EC
:1000B0000142FBD001200142F8D103BD02B5186610
:1000C0001866FFF7F2FF186E186E02BD00000240BE
:1000D000000000180000070000035F00212200005C
:1000E000F4000018222000A00001001008ED00E03C
:1000F00000000000000000000000000074B24E7A12
:1001000000200420F7010010C3010010C5010010F9
:10011000C1010010C1010010C1010010C101001097
:10012000C1010010C1010010C1010010C701001081
:10013000C1010010C1010010C9010010CB01001065
:10014000CD010010CD010010CD010010CD01001037
:10015000CD010010CD010010CD010010CD01001027
:10016000CD010010CD010010CD010010CD01001017
:10017000CD010010CD010010CD010010CD01001007
:10018000CD010010CD010010CD010010CD010010F7
:10019000CD010010CD010010CD010010CD010010E7
:1001A000CD010010CD010010CD010010CD010010D7
:1001B000CD010010CD010010CD010010CD010010C7
:1001C00000BE00BE00BE00BE00BE00BEEFF3058054
:1001D000103800BEF2EB88719C7C0110C47C0110C9
:1001E0003402001090A31AE700201F49086006C8D7
:1001F00081F3088810471D48006800282FD10DA4FE
:100200000ECC002902D000F012F8F9E71849194A7B
:10021000002000E001C19142FCD1174988471749ED
:1002200088471749884700BEFDE701C901C29A42C5
:10023000FBD37047C47C0110C0000020882400203C
:100240008CA0011000000420000004208CA00110EC
:10025000001004200010042000000000704709482E
:1002600004F06EF80047000008ED00E0000000D048
:1002700088240020E4320020993000100906001084
:10028000573000105756000006005250ABB3605371
:100290006844011006005250861C03027844011085
:1002A000060052505422A29D88440110050052506D
:1002B000DE65F4688CA00110F8B5C04610B5064C98
:1002C0002378002B07D1054B002B02D0044800E017
:1002D00000BF0123237010BD902500200000000006
:1002E00040340110044B10B5002B03D003490448DF
:1002F00000E000BF10BDC0460000000094250020B3
:10030000403401100020704770B504000D00012832
:1003100005D0002C02D10B4B9D420AD070BD094B79
:100320009942F6D1084808F09BFB084808F098FB72
:10033000EFE7064B06491960064A1A60024B19603E
:100340001A60EBE7FFFF000010300020483000206B
:10035000C0350110C44B0110274B03604B6843604C
:10036000264B03600B7A03724B7A43728B7A83724B
:10037000CB7AC3720B7B0373CB89C3810B8A038255
:100380008B7C8374CB7CC37414228B5E8382162295
:100390008B5EC3820B7E03764B7E43768B7E8376A9
:1003A000CB7EC3768B8B8383CB8BC3830B8C0384F5
:1003B0004B8C43842423CA56C2540133CA56C254B8
:1003C0000133CA56C2540133CA56C2540133CA5605
:1003D000C2540133CA5CC254CB6AC3620B8E03861B
:1003E000074B03603223CA5CC2540133CA5CC25457
:1003F0000133CA5CC2547047D84B0110C44B011082
:10040000C035011010B582B0FA20800002F0C8F8A3
:10041000FA210F4C0F4A4901200008F0B4FE1323C3
:100420000193013B0093013B03220F21200008F0C0
:1004300064FBA0230093203B00220021200008F051
:1004400080FE0021200008F088FE02B010BDC046EA
:100450001030002000C0034010B582B0FA208000A8
:1004600002F09EF8FA210F4C0F4A4901200008F0D3
:100470008AFE0B230193013B0093013B04221021D0
:10048000200008F03AFBA0230093203B002200212B
:10049000200008F056FE0021200008F05EFE02B0A9
:1004A00010BDC0464830002000000440F0B5CE46E4
:1004B000474680B593B004000FAB9946494B4A4676
:1004C00003CB03C21B8813800DAB9846464B4246B4
:1004D00003CB03C20BAF454B3A0003CB03C2444BE3
:1004E0001A6809929A8869460A859B796A462A2180
:1004F000521813703F4B1A6807929A8869460A840B
:100500009B796A462221521813703B4B1A68059258
:100510009A8869460A839B798B760021200009F02E
:1005200099FB0121200008F051FE022602960025C9
:100530000195324B00934B4605220521200009F01E
:10054000C7F90221200008F041FE02960195FC2324
:10055000DB000093434619220521200009F0B8F979
:100560000321200008F032FE02960195F8231B02B9
:1005700000933B002D220521200009F0A9F9042158
:10058000200008F023FE029601951D4B009309AB55
:1005900041220521200009F09BF90521200008F0E7
:1005A00015FE029601951F23009307AB55220521E6
:1005B000200009F08DF90621200008F007FE0296C0
:1005C0000195104B009305AB69220521200009F02D
:1005D0007FF90121200008F0F9FD13B0C0BCB94635
:1005E000B046F0BD403401104C34011054340110B9
:1005F0005C340110643401106C340110FFFF000002
:10060000E0FF0000FF070000F0B5DE4657464E460B
:100610004546E0B5CFB0FFF7F5FEFFF71DFF9C495B
:1006200007A8FFF799FE07A8FFF740FF994D079528
:10063000994C0794994907A8FFF78EFE07A8FFF782
:1006400035FF07950794964801F0AAFF05F0B8FC1E
:10065000944805F079FC9449944808F0BDF90321C9
:100660000C2000F0A1FD03210D2000F09DFD0022D3
:1006700001210C2000F0B0FD002201210D2000F02E
:10068000ABFD762200213FA800F04AFA60227621D5
:100690003FA800F06BFD81467722002130A800F0D2
:1006A0003FFA6022762130A800F060FD80462DAA36
:1006B0007F4B03CB03C21B8813802AAA7D4B03CB3D
:1006C00003C211001A880A809B788B7027AA7A4B84
:1006D00003CB03C211001A880A809B788B7079E1E2
:1006E0003FA800F035FB82463FA800F05DFB061CEA
:1006F0003FA800F0D5FB714904F0E9FE071C7049E2
:100700003FA800F099FC011C3A1C3FA800F02EFA0B
:100710008346504604F0A2FF04000D0002000B00C7
:10072000684805F041FC381C04F098FF02000B00FB
:10073000654805F039FC584604F090FF0490059197
:1007400002000B00614805F02FFC301C04F086FF0E
:1007500006000F0002000B005D4805F025FC5D4B14
:100760009B4622002B00594624A803F0BDFD320011
:100770003B0059461EA803F0B7FD049A059B594655
:1007800018A803F0B1FD0021504604F0EFFE002848
:1007900014D15149504604F0E9FE00286ED14F496A
:1007A000504604F0E3FE00286CD14D49504604F059
:1007B000DDFE002869D04B4B9A4601E04A4B9A4631
:1007C000334C0021200009F045FA0121200008F0F7
:1007D000FDFC0226029600250195444F00972DABA3
:1007E0000A220021200009F073F802960195009773
:1007F0002AAB41220021200009F06AF802960195F7
:10080000009727AB78220021200009F061F804212D
:10081000200008F0DBFC029601955346009324ABC0
:1008200023221321200009F053F802960195FC239E
:10083000DB0000931EAB58221321200009F048F87A
:1008400002960195284B009318AB902205212000B9
:1008500009F03EF80121200008F0B8FC244D009575
:10086000802337220021200009F02BF900958023F6
:1008700070220021200009F024F9AFE0F8231B02C8
:100880009A469DE71A4B9A469AE71F239A4697E79E
:1008900010300020C0350110C44B0110483000203A
:1008A0008813000074340110A0860100F01B0020A2
:1008B00094350110A0350110AC3501100000C8427C
:1008C00000507D44BC340110D4340110F8340110C0
:1008D0001035011024350110000020410000A04116
:1008E0000000F0411FF80000E0FF0000FFFF0000E3
:1008F000FF070000774B9A46774C0021200009F053
:10090000A9F90121200008F061FC022602960025C9
:100910000195724F00972DAB0A220021200008F0AC
:10092000D7FF0296019500972AAB412200212000B3
:1009300008F0CEFF02960195009727AB78220021A0
:10094000200008F0C5FF0421200008F03FFC0296BB
:1009500001955346009321AB23221321200008F078
:10096000B7FF02960195FC23DB0000931BAB5822D6
:100970001321200008F0ACFF02960195554B00931F
:1009800015AB90220521200008F0A2FF01212000D4
:1009900008F01CFC524D00958023372200212000D6
:1009A00009F08FF80095802370220021200009F0C3
:1009B00088F8FA24A400200001F0F2FD200001F0E4
:1009C000EFFD200001F0ECFD200001F0E9FD20002A
:1009D00001F0E6FD4B46002B00D081E64346002B9C
:1009E000E7D030A800F0B4F9824630A800F0DCF976
:1009F000061C30A800F054FA3A4904F068FD071CC0
:100A0000394930A800F018FB011C3A1C30A800F04E
:100A1000ADF88346504604F021FE04000D000200AC
:100A20000B00324805F0C0FA381C04F017FE020033
:100A30000B002F4805F0B8FA584604F00FFE04905A
:100A4000059102000B002B4805F0AEFA301C04F0B3
:100A500005FE06000F0002000B00274805F0A4FA6F
:100A6000264B9B4622002B00594621A803F03CFC54
:100A700032003B0059461BA803F036FC049A059B44
:100A8000594615A803F030FC0021504604F06EFDD5
:100A9000002800D02EE71A49504604F067FD0028D0
:100AA0000ED11849504604F061FD00280CD11649BA
:100AB000504604F05BFD002809D0144B9A461BE712
:100AC000F8231B029A4617E7054B9A4614E71F23A3
:100AD0009A4611E7E0FF000048300020FFFF0000C9
:100AE000FF0700000000C84200507D442C35011073
:100AF000443501106835011080350110243501108E
:100B0000000020410000A0410000F0411FF800005B
:100B100010B502490120FFF7F7FB10BDFFFF0000F1
:100B2000F0B5002303717624447183603033C45CD4
:100B30000726B443C454E4B23825AC43C454E4B2E9
:100B40004027BC43C454E7B27F243C40C454043320
:100B5000C45CB443C454E4B2AC43C454E5B23F24CF
:100B60002C40C45401714271F0BD000010B5081C46
:100B7000141C084904F0ABFC011CFE20800504F0A5
:100B80009CFC054904F0A6FE011C201C04F09FFCFF
:100B900010BDC046002A2D47F628A84070B584B085
:100BA00004006B4619734179094D00260096012314
:100BB00003AA280007F03CFF61790096012303AAED
:100BC000280007F041FF6B46187B04B070BDC0469B
:100BD000F01B0020F0B585B0050003AC2170417911
:100BE0000A4E0027009701232200300007F020FF63
:100BF0006979009702232200300007F025FF23784F
:100C00001B026078184305B0F0BDC046F01B002001
:100C100010B5FFF7DFFF0300000A00B21B02184304
:100C200080B210BD10B5FFF7F3FF00B210BD70B574
:100C300004008821FFF7ECFFA0818A212000FFF744
:100C4000F1FFE0818C212000FFF7ECFF20828E2154
:100C50002000FFF7DDFF608290212000FFF7E2FF18
:100C6000A08292212000FFF7DDFFE0829421200086
:100C7000FFF7D8FF208396212000FFF7D3FF608382
:100C800098212000FFF7CEFFA0839A212000FFF7D4
:100C9000C9FFE0839C212000FFF7C4FF20849E2130
:100CA0002000FFF7BFFF6084A1212000FFF776FF3F
:100CB0002423E054E1212000FFF7B4FFE084E32186
:100CC0002000FFF76BFF2823E054E4212000FFF70A
:100CD00065FF40B20501E5212000FFF75FFF0F230C
:100CE00003402B436385E6212000FFF757FF40B206
:100CF0000501E5212000FFF751FF0009C0B228439C
:100D0000A085E7212000FFF749FF2E23E05470BDA6
:100D1000F0B585B0050003AC217041790B4E00277A
:100D2000009701232200300007F082FE69790097C6
:100D300003232200300007F087FE20780004637848
:100D40001B021843A378184305B0F0BDF01B002028
:100D500070B504008368002B01D1114870BDFA21E1
:100D6000FFF7D6FF0300C011A1894A00821A0E25A1
:100D7000605F5043C0121B125B1A5B431B131021B0
:100D8000625E53439B13C318A3639800C01880305E
:100D9000001204F0F7FB034904F099FBDEE7C046BC
:100DA0000000C07F0000C84270B50400FFF7D0FF0C
:100DB000FD212000FFF70EFF80231B02984268D020
:100DC000A16B354B9C46614482032A23E55E2D05C9
:100DD0002C20235E4B43501BC01A8023DB019C4612
:100DE0006044C3175B045B0C1818C0132E23E55630
:100DF0004D43EA179205930D5B199B122822A55CBF
:100E00004D43EA175205510D4919C91280221202A9
:100E1000944661445943CA179205930D5B189B127F
:100E200080229203944663442621625E53438022CB
:100E3000920194466344DA179204920CD3189B13E0
:100E40005843C2175204520C1218D2135243D117EE
:100E50007F230B409A18D2112423E35C5A43D11705
:100E60000F230B409A181211801A10D4C8235B0567
:100E7000984200DD1800C3171B051B0D181800133E
:100E800004F07AFBEA21890504F037FB70BD0020ED
:100E9000ECE70248FAE7C04600D4FEFF0000C07F3E
:100EA000F0B5DE4657464E464546E0B583B080462F
:100EB0008368002B07D15D4803B0F0BCBB46B24647
:100EC000A946A046F0BDFFF743FFF7214046FFF7D4
:100ED0001FFF0311994643469C6BE517544A0123B3
:100EE0005B42A4185D4122002B002000290004F081
:100EF000C7FA83468A4643461C229A5ED31704F0FB
:100F0000BFFA06000F0043461A20185EC1172200E0
:100F10002B0004F0B5FAC30B9C464B0461460B430F
:100F20004204B6185F4143461821595E0022CB00A7
:100F300092197B4100920193434616229A5ED31781
:100F40005846514604F09CFA0B06060A1E430F123F
:100F500043461420185EC11722002B0004F090FABB
:100F6000040D0B0323430203B6185F4100208021C8
:100F700009028019794143465A8A002304F080FA15
:100F80004C10CD1723002B434ED080235B034946E2
:100F90005B1A5910D807009A019B801A9941254A7B
:100FA000002304F06DFA22002B0003F043FA040042
:100FB0000D0043462220185EC117EB04660B1E434A
:100FC0006F1332003B0004F05BFA02000B003000AC
:100FD000390004F055FACB01460E1E434F16434626
:100FE0002020185EC11722002B0004F049FA4B03A1
:100FF000C20C1A43CB14A4197D41A4185D412B06E1
:10100000200A1843291243461E241C5FE617250FA9
:1010100033012B4322018018594104F011FBEE21CA
:10102000890504F06AFA47E7002045E70000C07F21
:10103000000CFEFF350C000010B50C1CFFF730FF54
:10104000084904F044FA211C04F041FA064904F06E
:1010500041FC011CFE20800504F02FFA034904F036
:101060004CFA10BD0000C84201DE423E002A2D4766
:1010700000B585B06B465A7319734179002300930C
:10108000023303AA024807F0D3FC05B000BDC046F6
:10109000F01B0020F8B5CE46474680B5040008A8EE
:1010A000067809A8007881460AAD2D78AC4603255C
:1010B000294031358F01615D88463F21404601401E
:1010C00039436155072707210A409046625DBA43BC
:1010D0004046024362550B40DA00635D382080468B
:1010E0008343134363550E40720126781F23334018
:1010F00013432370302648460840C200A35D404693
:1011000083431343A35563461940A35DBB4319436F
:10111000A155CAB27F231340A3550022F421200019
:10112000FFF7A6FF22785209F2212000FFF7A0FF67
:10113000A35D5A07120E9906490F89000A43DB097D
:101140001A43F5212000FFF793FF635D5A07120E43
:101150009906490F89000A439B091A43F42120008C
:10116000FFF786FFC0BCB946B046F8BD30B585B0C4
:10117000040015004171D021FFF710FDA060A842C6
:1011800002D0002005B030BD2000FFF750FD002345
:101190000293019305330093052203212000FFF7FA
:1011A00079FF0120EEE7000010B58300084A94465D
:1011B00063441C6840226240C024144080225201D3
:1011C00013431C60C000034B9C466044416010BD4B
:1011D00004C001400040014080000B4B9C4660442D
:1011E00000290DD00823002A0CD0042213430268E2
:1011F00053400C2213408022520110430360704779
:101200000023F0E70022F1E704C0014010B50123FC
:101210008340D0221206936293610521FFF7C4FF39
:1012200010BD0000034B1B6802201840431E98416C
:10123000C0B2704700C00640EFF3108072B6034B97
:101240001B68002BFBD0BFF35F8F70472C0100D0D1
:10125000BFF35F8F024B00221A6080F31088704743
:101260002C0100D0F8B506000C001500FFF7E4FFD4
:10127000E308F718F15C07222240012393400B4258
:1012800005D1DBB20B433B70FFF7E2FFF8BD210055
:10129000280001F07DFFF0B583B006000191140035
:1012A0001F00FFF7C9FF00E00134BC420CD8E3087F
:1012B000F518F35C0721214001228A401A42F3D13C
:1012C000D2B21A432A7001E001246442FFF7C0FF42
:1012D000002C02DB200003B0F0BD019B002BF9D0F5
:1012E000089801F055FF0000002307E0054A9A180E
:1012F0009200BFF35F8F0021116001331F2BF5D9DE
:101300007047C04640000034054A1078431CDBB2E9
:101310001370172B02D9130010221A707047C046A1
:10132000181B002000B583B00100044B00931F235D
:1013300018220348FFF7AFFF03B000BDEC350110E2
:10134000642B0020074B9B68103080001950BFF3BE
:101350005F8FBFF35F8F044B0021196082F3108809
:101360007047C04600ED00E0240100D010B5091A16
:10137000081F0A4B9C466144094A914208D8C3079A
:1013800006D440104005400D064B184380B210BDF6
:10139000054B064AA321064801F060FEFC07000049
:1013A000FE0F000000E0FFFF08360110703801104A
:1013B0003836011010B5091A04394C08090B08D148
:1013C0004905490D064A11430180064B23434380DA
:1013D00010BD054B054AAB21054801F03FFEC04654
:1013E00000F0FFFF00F8FFFF7036011044380110D5
:1013F0003836011001238340034A10681840431E09
:101400009841C0B27047C04600E100E0002904D016
:10141000034B1860034B18607047034B1860FBE7E1
:1014200080E200E000E100E080E100E010B501238F
:1014300083401800FFF7EAFF10BD0000012383403E
:10144000014A13607047C04600E200E0024B9B680F
:1014500010308000C058704700ED00E010B5FFF775
:10146000F5FF002805D0054BC01A2F2803D801200E
:1014700010BD0020FCE70020FAE7C0461C1B00203E
:1014800070B504000D00EFF3108672B60C4B1B68AC
:10149000002BFBD0BFF35F8F2000FFF7D7FF094B76
:1014A000984201D0A84205D1320029002000FFF760
:1014B00049FF70BD044B054A8621054801F0CEFD69
:1014C000240100D0CD01001080360110A438011095
:1014D00038360110F0B5DE4657464E464546E0B573
:1014E00089B0814601911500EFF3108A72B6744BF2
:1014F0001B68002BFBD0BFF35F8F724B0027DF57B9
:10150000002F40DB7C00E419A4006F482418062259
:10151000A2566C4B1A706D4B9A684B4610339B0069
:10152000D35898461E001B1A2F2B38D9684B984564
:101530002FD105AE674B33807B009B46D8198000C6
:10154000614B9846404402306349FFF70FFF7080BB
:10155000624BB380FF23B371F571019B07935F4426
:10156000BF0047440ECE0EC701231C43A04652467F
:1015700041464846FFF7E6FE09B0F0BCBB46B2461E
:10158000A946A046F0BD564B564AD721564801F011
:1015900065FD564B534ADE21534801F05FFDC043C1
:1015A00040440C2102F020FF002912D101239E4368
:1015B000B34633000026DA79AA4211D906215956DA
:1015C00000290CDB4A00521892001E003E4B9B186B
:1015D000F1E7474B434AEA21434801F03FFD1E0033
:1015E000002E3AD005AB434A1A80813A5A8006232E
:1015F000F3560293002B17DA3F4805AB9B469880C1
:10160000029A9A71DD71019A0792301D2100FFF74D
:10161000ADFEB080B7717B00DB199B002A4FFF182D
:101620005B4607CB07C7A2E77800C0198000264BAE
:10163000C0180430321DB388D90A1C2907D15B05B4
:101640005915023149005118FFF790FED5E72B4B91
:101650002B4AB121244801F001FD05AE1D4B33801A
:101660007B000293D8198000174A9046020042443A
:101670000392901C1849FFF779FE7080039A101DA1
:101680005946FFF773FEB0801E4B5A464146521A28
:10169000524153431B0DB371F571019A0792029B9E
:1016A0009C466744BF0047440ECE0EC7114B5A46B6
:1016B0001380813B538001231C43A04657E7C0465B
:1016C000240100D0DA3200201C1B002000ED00E0D5
:1016D000CD01001000A1FFFF4C1B002001BDFFFF4A
:1016E000B83601108C38011038360110E036011080
:1016F000083701100148000001BD00007C370110CF
:101700007C380110AAAA0000F0B5CE46474680B545
:1017100083B006000D00EFF3108872B6564B1B68BD
:10172000002BFBD0BFF35F8F544B9A68340010340A
:10173000A300D758524B9F4207D0AF4200D198E048
:101740000197504BFB1A2F2B09D942463900300024
:10175000FFF7F8FD03B0C0BCB946B046F0BD30009D
:10176000FFF748FE814600213000FFF75FFEBFF320
:101770005F8FEFF30581002901D08C4211D1012345
:10178000019C9C430022A368AB4212D00622A256C1
:10179000002A0DDB53009B189B002200394CE418F3
:1017A000F1E73621384B394AFF31394801F056FC10
:1017B0002200AB4256D106256557002D38DB6B0061
:1017C0005B199A002F4B9B189A68A260DA79E27134
:1017D00006229A56A2719B795BB2002B0FDA2D4834
:1017E000A0806B005B199B00264AD3182A4A117807
:1017F0009971157049463000FFF718FEA5E7201DC6
:101800006B005B199B001F4A9B181A1D9B88D90A05
:101810001C2907D15B055B15023359005118FFF7EE
:10182000A5FDDDE71D4B1E4AB121194801F016FC4C
:10183000002912D1002A0ED0FF239371194B9380F7
:10184000154A1378A371184B0E49641A6441634317
:101850001B0D1370CEE70A4FF2E7201D1349FFF767
:10186000A9FDC7E76A21124B084AFF31084801F079
:10187000F5FB034F69E7C046240100D000ED00E00E
:10188000CD0100101C1B0020943701105C380110A2
:101890003836011001BD0000DA3200207C3701101B
:1018A0007C38011001BDFFFFAAAA0000561B0020D2
:1018B000C837011070B5012101432E4BCB1A2F2BD5
:1018C00028D8EFF30583002B2BD0EFF3108C72B6E2
:1018D000294A1268002AFBD0BFF35F8F274A040011
:1018E000244D641B64416243120D54B2244A926831
:1018F0009B00D2588A421BD00022032A32D85300C0
:101900009B189B001B49CB189B795BB2A3421FD04D
:101910000132F2E7C7211B4B1B4A49001B4801F06B
:101920009DFB92211A4B184AFF31184801F096FB93
:10193000134A92681749D150174B1A7882711C705C
:10194000BFF35F8F0C4B00221A608CF3108870BDC0
:101950000D005300991889006918FF268E710F4AEF
:101960008A80E9E7D1210E4B074A4900074801F078
:1019700075FBC0461C1B0020240100D0AAAA000051
:1019800000ED00E0D0370110283801103836011082
:10199000F8370110CD010010DA32002001BDFFFF41
:1019A000043801100022044B02E0044902C3013252
:1019B000072AFAD97047C04600E400E080808080A2
:1019C00000B583B00100064B0093052300220548B3
:1019D000FFF761FC002801DB1F23181A03B000BDCC
:1019E0000C380110E0320020024B9C466144890013
:1019F000016070474000003410B50400FFF784FC1C
:101A000001002000FFF7F0FFFF232371BFF35F8F7A
:101A100010BD10B50400FFF777FC01002000FFF7B0
:101A2000E3FFFF23237100236371BFF35F8F10BDBA
:101A3000034B9C46614489000160BFF35F8F704790
:101A40004000003410B504000120FFF76BFC0100DA
:101A50002000FFF7EDFF10BD70B505000C00080079
:101A600000F072FE0949200000F0B2FDFFF74CFCC7
:101A7000074B9C466044800068602C75D0231B0691
:101A80001B786B75A400034BE55070BD9D1D0010C5
:101A9000400000348C3000200A4B1A68EFF31081AC
:101AA00072B61368002BFCD0BFF35F8F054B1B6829
:101AB000BFF35F8F00221A6081F3108840BF0020BF
:101AC00000217047A832002010B5002922D00368F9
:101AD0001B7B99421ED8174B9C46614409018368C1
:101AE0009C4661440C684968002A19D003681B7B36
:101AF0009A4215D883680F488446624412019A18A6
:101B000010685368020001208B4201D80ED00020DB
:101B1000C0B210BD084B094A3C21094801F09EFAA9
:101B2000054B064A3C21064801F098FAA242EFD83C
:101B3000EDE7C046FFFFFF0F243A0110303C0110D3
:101B4000F439011010B500291ED0037B99421BD82F
:101B50004B005B18033B0468A4466344002919D07A
:101B6000002A1DD0914221D0002A25D0047BA24218
:101B700022D8046850008018033820188170197822
:101B800000291FD11A7010BD104B114A682111484D
:101B900001F064FA104B114A6F310E4801F05EFA01
:101BA0000F4B0E4A70210B4801F058FA0D4B0B4AAF
:101BB0007121084801F052FA044B054A6821054892
:101BC00001F04CFA41701A70DDE7C046483A011046
:101BD0009C3C0110643A0110A83A0110783C0110B5
:101BE000B43A0110C03A011070B506000D0014009F
:101BF000002914D0002A14D0806873689847002800
:101C000006D0220029003000FFF79CFF280007E0E3
:101C10002A0021003000FFF795FF200000E01000AF
:101C200070BD0800FCE70000F0B583B0050000922D
:101C300001930AAB1C780BAB1F78002C26D00368ED
:101C40005A7B944207D10123002B19D1002C3BD1A0
:101C5000200003B0F0BD002C0CD01A7B944209D8B0
:101C60001A6863001B19033BD3189B78002BEBD039
:101C70000123E9E73E4B3F4A68213F4801F0EEF976
:101C80003E4B3F4A67213F4801F0E8F903689C7BDF
:101C9000002CDBD012D01A7B94420FD862001219AC
:101CA000033A19688C46624451789973002900D12F
:101CB000D9730023937053701370C7E72C4B2D4AD0
:101CC00068212D4801F0CAF9002C3AD02B681B7B03
:101CD0009C4236D82C4BE3181B01AA6894466344F7
:101CE000009A1A60019A5A60089A9A60099ADA6012
:101CF0002E68002C2BD030D0337B9C422DD8630033
:101D00001B19033B32689446634400229A705A7050
:101D10001A70717B22003000FFF766FF70738442F7
:101D200000D095E7287D009A019B00F099FC061EE3
:101D300001D0002F17D00C9B002B00D188E71E701C
:101D400086E7124B124A3C210E4801F087F9114BED
:101D5000114AA521084801F081F9054B054A68217F
:101D6000054801F07BF92868210000F0B1FEE2E7A8
:101D7000483A01109C3C0110643A0110D83A011015
:101D8000A83C0110F4390110FFFFFF0F243A0110A5
:101D9000303C0110F03901108C3C0110F0B5DE46EA
:101DA00057464E464546E0B58BB009900023089350
:101DB0008200B54BD658370052E0B44BB44A3F21AD
:101DC000B44801F04BF9B44BB44A3C21B44801F09B
:101DD00045F9002901D1002869D10021404600F0D1
:101DE0006DFEA04219D12A686B6806920793AB6812
:101DF0009846EB689A464346002B14D0002C18D026
:101E00003B681B7B9C4214D8631EFA68D35C089322
:101E10001B0218433861002015E0A24BA24A8E2114
:101E20009F4801F01BF9A14B9F4A92219C4801F069
:101E300015F9994B9E4A4121994801F00FF9002369
:101E40009A46984600207B68BFF35F8F00221A6095
:101E500086F310884346002B32D1002800D10CE1D4
:101E600000F048FB02000B1EA7DB002000210690BB
:101E700007917868EFF3108672B601680029FCD0EC
:101E8000BFF35F8F396888464C7B002CD7D09AD03F
:101E9000097B8C4297D8874965182D01B9688C4613
:101EA000654428686968801A9941002991DD2A688B
:101EB0006B68099800F0D4FB00239A469846C2E765
:101EC000089B1B022343994651461800C047050052
:101ED0000E007A68EFF3108B72B6136859424B41CB
:101EE000D9B2002BF9D1BFF35F8F002E1EDB002E7D
:101EF00046DD3B69002B47D04B456DD100F0FAFA27
:101F000002000B1E6EDB52197341002B70DB002B9D
:101F100072DB002104910131039102945146019139
:101F2000414600913800FFF77FFE4CE03B69002BF3
:101F3000DDD04B4514D1069A079B521BB341002BB1
:101F400014DB002B16DB0021049101310391029474
:101F500051460191414600913800FFF765FE32E09D
:101F6000554B514AA1214E4801F078F801225242C6
:101F7000524BE6E7454B464A3F21464801F06EF892
:101F8000002E01D1002DB4D13B68002C50D05A7BDB
:101F9000944237D1012100294AD1DA7B002A4DD160
:101FA0009A7B002A03D1DA7B002A5AD19C73DC7316
:101FB000002C5CD03B681B7B9C4258D8FA68013CE3
:101FC000135D0133135500233B617A68BFF35F8FC4
:101FD00013608BF3108843E7374B334AA421304812
:101FE00001F03CF8294B2A4A3F212A4801F036F8F3
:101FF00001225242314B8AE7244B254A3F21254892
:1020000001F02CF8002C0DD01A7B94420AD8620003
:102010001219033A1868844662449278002ABAD0AA
:102020000121B8E7264B274A6821274801F016F816
:10203000264B274AF621244801F010F8002A0AD03E
:10204000197B8A4207D851008A18033A19688C46CE
:1020500062445470A4E71A4B1A4A68211A4800F0E7
:10206000FDFF1C4B1A4AFB21174800F0F7FF0A4BF3
:102070000F4A41210A4800F0F1FF0BB0F0BCBB460B
:10208000B246A946A046F0BD8C30002010390110A0
:10209000FC3B01102C390110243A0110303C011096
:1020A000F4390110003B0110143C0110183B0110E1
:1020B000543C0110FFFFFF0F243B0110FFFFFF7F87
:1020C000483A01109C3C0110643A0110603B011039
:1020D000683C0110843B011010B50C4B5B68002B71
:1020E00004D00A210A48FFF77FFC10BD074C2300EB
:1020F000084A1021206800F0F1FB032000F0EEF9FF
:1021000003212000FFF7A8FCEBE7C046641B00207A
:10211000A8320020C91A001010B5064B5B68002BCE
:1021200001D0044810BD044B044A5E21044800F06D
:1021300095FFC046641B0020983B01103C3C0110F9
:10214000F4390110F0B5DE4657464E464546E0B537
:102150008BB0804616001F00149B9A46159B99462B
:1021600016AB1B789B461F2302AA944663440022A9
:102170001A702BE0002809D042461268127B904268
:1021800004D8421E4146C9688A5C41E0404B414A3E
:102190004121414800F062FF07984CE0361BAF41F7
:1021A000002F07DB002F11DA3C4B3D4A3F213D4811
:1021B00000F054FF012676423B4FF3E7374B384A95
:1021C0003F21384800F04AFF002F4FDB43465A6852
:1021D000EFF3108472B6136859424B41D9B207919C
:1021E000002BF8D1BFF35F8F1F3302AA94466344DC
:1021F00004930023039302934B46019353460093A9
:1022000032003B004046FFF70FFD031EB2D1020033
:1022100041464968BFF35F8F00250D6084F3108845
:10222000002B29D01F2302A98C4663441B78002B66
:10223000B2D112021043002B20D05B46002B1DD0E0
:102240004946D04704000D0003000B431DD0002970
:10225000A4DB00F04FF906000F1EAFDB36196F410B
:10226000002FB1DA012676420F4FADE70B4B0C4A37
:102270003F210C4800F0F2FE012040420BB0F0BCC0
:10228000BB46B246A946A046F0BD0798F6E7C04651
:10229000243A0110543C0110F43901101039011096
:1022A000FC3B01102C390110FFFFFF7FF8B5040043
:1022B0004268EFF3108572B6136858424341D8B2B2
:1022C000002BF9D1BFF35F8FCBB22268567BB342AC
:1022D0001BD10120002848D0206988422BD0090A50
:1022E000C9B2002B2ED02068007B83422AD8581E0A
:1022F000E668305C88422BD000206368BFF35F8FB4
:1023000000221A6085F31088F8BD002B0DD0167BD3
:10231000B3420AD85E00F618033E1768BC4666440E
:10232000B678002ED6D00120D4E7134B134A68218B
:10233000134800F093FE9521124B134A49001348AD
:1023400000F08CFE124B134A4121104800F086FE2B
:102350001900100000F0BCFB0028CED132210E4B3A
:10236000094AFF31094800F079FE23698B42C4D144
:1023700000232361C1E7C046483A01109C3C01108C
:10238000643A0110BC3B0110E43B0110F439011028
:10239000243A0110543C0110E03B0110407D70478D
:1023A00070B584B005000C00EFF30583002B1ED13F
:1023B000FFF7B2FE002302930193224B00932A0001
:1023C0002300FFF7BFFE061E23DD20BFFFF7A4FE9C
:1023D0003100FFF76BFF1C4B5B6A9C422DD81A4AF9
:1023E000926AAA422CD29C4225D0012026E0164BAC
:1023F0005B6A994209D8144A926A824207D299428A
:1024000001D001201AE0002018E0002016E0012091
:1024100014E00D4B5B6A9C4209D80B4A926AAA42AF
:1024200007D29C4201D0012008E0002006E00020F5
:1024300004E0012002E0002000E0002004B070BDB4
:102440000120FBE7991A00100040054070B5EFF33A
:1024500005801038EFF3108C72B61A4B1B68002BF6
:10246000FBD0BFF35F8F01221300834016494B63FB
:1024700016490B60164909780C00C440224214D05A
:10248000114A546A8200134D5259944206D3820075
:10249000114C125999430E4B197007E00A4A031D5B
:1024A0009B0099589950002200E00022BFF35F8FF3
:1024B000044B002119608CF31088002A00D090474B
:1024C00070BDC046280100D0004005403C7005406A
:1024D000DF320020B43200204C2A002010B5010069
:1024E000024A0348FEF7BEFE10BDC046C83C0110BC
:1024F000D9320020044B5B6A034A906A1900536A80
:102500009942F9D17047C04600400540084B5B6ACC
:1025100001E0074B5B6A8B42FBD301E0044B5B6A33
:102520008B4203D1024B9B6A8342F7D37047C0466C
:102530000040054070B504000D00FFF7DBFF02000E
:102540000B0020002900801859418B4202D804D189
:10255000824202D901204042C117002902DBFFF765
:10256000D5FF70BD024B034A3F21034800F076FDC2
:1025700010390110683D01102C39011010B50028E8
:1025800007DB064B9A6A054B9B6A9B1A8342FAD378
:1025900010BD0021FFF7CEFFFAE7C046004005401E
:1025A00010B50A4B984207D843011B1A9B00181814
:1025B000C000FFF7E3FF10BDFA22920000230021C4
:1025C00002F05EFFFFF7B6FFF5E7C0469BC42000B0
:1025D00070B504000D00EFF3108672B61B4B1B683C
:1025E000002BFBD0BFF35F8F002D1CD02000FEF727
:1025F0002DFF174B83420BD019002000FEF740FF40
:1026000001212000FEF712FF0123A340114A1360AD
:10261000A400114BE550BFF35F8F0C4B00221A60F2
:1026200086F3108870BDA2000B4B0021D15001220F
:10263000A2400A490B7893430B7005492000FFF72D
:1026400063F800212000FEF7F1FEE4E7280100D046
:102650004D240010386005404C2A0020DF32002055
:10266000F0B5DE4600B584B00400150001921E00EE
:102670000293FFF73FFF03958E4202D84ED1854269
:102680004CD9EFF3108B72B6274B1B68002BFBD095
:10269000BFF35F8F254A17780125A540EBB23B4376
:1026A0001370234B5D63221D92000199D150A2004B
:1026B0002049029850501B6A2B4212D11C4B1B6CB4
:1026C0002B4208D00020BFF35F8F174B00221A6007
:1026D0008BF3108823E0184B184AC521184800F0E6
:1026E000BDFCFFF707FF8E4214D802D1039B834243
:1026F00010D80E4B1B78BB420ED00D4B1D625D6394
:102700001F2004400123A3400E4A1360074B1F7093
:102710001E38D8E70020D6E70120D4E7012004B016
:1027200080BCBB46F0BDC046280100D0DF3200208F
:1027300000400540B4320020EC3C01104C3D01103B
:10274000103D011080E200E0EFF3108C72B60B4BED
:102750001B68002BFBD0BFF35F8F01238340084A27
:10276000136208490A789A430A70BFF35F8F034BDC
:1027700000221A608CF310887047C046280100D0F0
:1027800000400540DF32002010B500291ED0037B39
:1027900099421BD84B005B18033B0468A446634472
:1027A000002919D0002A1DD0914221D0002A25D01D
:1027B000047BA24222D804685000801803382018F5
:1027C0008170197800291FD11A7010BD104B114A61
:1027D0006821114800F042FC104B114A6F310E483D
:1027E00000F03CFC0F4B0E4A70210B4800F036FC09
:1027F0000D4B0B4A7121084800F030FC044B054A90
:102800006821054800F02AFC41701A70DDE7C046D7
:10281000483A0110683E0110643A0110A83A0110CC
:10282000543E0110B43A0110C03A011070B50600D0
:102830000D001400002914D0002A14D08068736899
:102840009847002806D0220029003000FFF79CFF9F
:10285000280007E02A0021003000FFF795FF200044
:1028600000E0100070BD0800FCE7000010B5002378
:10287000437301338373037BC3730123027B9A4247
:1028800014D9002B0CD0027B934209D85A00D218DD
:10289000033A01688C4662440133DBB25370EDE7C2
:1028A0000B4B0C4A68210C4800F0D8FB002A09D0D9
:1028B000924207D8016853009A18033A8A180023F5
:1028C000537010BD024B034A6821034800F0C6FB59
:1028D000483A0110683E0110643A011010B50173C6
:1028E00042608360FFF7C2FF10BD000070B50400B6
:1028F000081E00D170BD002934D0237B994231D805
:102900004B005B18033B2268944663445A78002AC4
:10291000F0D02DD0237B9A422AD853009B18033B3A
:1029200021688C4663445D7800215970002825D0C9
:10293000237B984222D843001B18033B21688C4616
:1029400063440021597001002000FFF76FFF06006B
:1029500029002000FFF7CAFF020031002000FFF726
:1029600065FFC7E7084B094A6821094800F076FB74
:10297000054B064A6821064800F070FB024B034AEB
:102980006821034800F06AFB483A0110683E0110D4
:10299000643A011070B505000C00160000292FD014
:1029A00034D0037B994231D84B005B18033B02685B
:1029B000944663445A78002A2ED19A78002A31D15D
:1029C0001978FFF793FF0300002E0AD0EA7B002A54
:1029D0002ED1AA7B002A03D1EA7B002A3BD1AC731B
:1029E000EC73002B3DD1002C4FD02B7B9C424CD85C
:1029F0002B6861000C19033C1C190023637070BD27
:102A0000254B264A3821264800F028FB254B264A2C
:102A10006821264800F022FB254B204A3A21204815
:102A200000F01CFB234B1D4A3B211D4800F016FB08
:102A3000002A0AD0297B8A4207D851008A18033A13
:102A400029688C4662445470C3E7164B164A6821C5
:102A5000164800F003FB184B104A4221104800F0C2
:102A6000FDFA002B0BD02A7B934208D843001B1899
:102A7000033B2A689446634400229A70B3E7094BEB
:102A8000094A6821094800F0E9FA064B064A68211C
:102A9000064800F0E3FAC046803D0110403E0110B8
:102AA000883D0110483A0110683E0110643A011057
:102AB000BC3D0110E43D0110843B011070B50400E1
:102AC0000A00457B2900FFF765FF6073280070BD91
:102AD00070B50400002967D0437B8B420ED00029DB
:102AE00011D0037B99420ED84B005B18033B026860
:102AF000D0188378002B0CD1002056E00121FFF77D
:102B0000DDFF012051E0294B294A6821294800F0C6
:102B1000A5FA002B20D0227B93421DD85A00D3184F
:102B2000033B2268D2182568EB5C8B421AD0002B3D
:102B30001BD0227B934218D85A00D318033B22683B
:102B4000D21853788B4216D0002BF0D11A4B1B4A67
:102B50006B211B4800F082FA144B154A6821154876
:102B600000F07CFA4378137007E0104B104A68219C
:102B7000104800F073FA4378537000238370437059
:102B800001222000FFF706FF0200617B814205D091
:102B90002000FFF74BFE6073012006E0094B074A57
:102BA0007121074800F05AFA002070BD483A011020
:102BB000683E0110643A011004380110283E0110EB
:102BC000883D0110083E0110F8B5DE4657464E46D6
:102BD0004546E0B505000F0092460A9A93424ED34F
:102BE0001A0E91461E020A9A00233000494601F04F
:102BF00039FC80466C006419A4002F4B9C46644449
:102C00006368834200D260602B1FDBB29B46012BBE
:102C10003BD9C0239B012343802212011A60AB00E1
:102C2000264A9958002905D0506901F0DDFB013092
:102C30000138FDD153465A0123685A40E0231A4017
:102C400080235B0123431A605A46012A28D9802336
:102C50009B012343802212011A604346636042466F
:102C600000233000494601F0FDFBAD00134B5851E5
:102C70000120F0BCBB46B246A946A046F8BD104BA9
:102C8000104A2D21104800F0E9F9012FC1D1C023CD
:102C90009B01234303221A60A368DB07FCD5C9E725
:102CA0002168794003220A401A60A2680123BB40D0
:102CB0001342FAD0CBE7C04600800040682B0020CA
:102CC000743E0110C43E0110883E011030B583B03F
:102CD0000C2000F017F9FEF7A5FA00280DD000230C
:102CE00004E099002D4A2E4888500133092BF8D969
:102CF0002A4B2C4A5A6203B030BD2B4B00229A67F4
:102D000000F072F9294B01221A60274B5B6C012BF2
:102D1000FBD1274B03221A60234B9B6B012BFBD16A
:102D2000013300930433234A0121234800F054F86F
:102D300005230093214A0121214800F04DF8214B41
:102D40000093002202210420FFF73EFF1E4D009554
:102D50002B00002201210520FFF736FF104C0094C4
:102D60002300002200210720FFF72EFF00942300FC
:102D7000002200210820FFF727FF0A4B00932300C1
:102D8000002200210920FFF71FFF00952B000022E1
:102D900000210620FFF718FFADE7C046682B002092
:102DA000006CDC021BB70000008000403CB000401B
:102DB00030B00040002F685900800240008C8647E8
:102DC00000C00240001BB700405973078000014B50
:102DD000C0587047682B0020F0B5C64600B5040007
:102DE0000D00170098460C2001F0FEFA0600394B42
:102DF000FA18394B9A4241D843011B1A9901C91A52
:102E0000C90009188901380001F0EEFA0200103AF1
:102E100098235B009A4237D84346013B062B39D8AA
:102E2000069B013B062B35D83F09B74238D34346B2
:102E30001E04069B1A0316432368002B36DB274B20
:102E40009C4244D080225201254B1A60254B1A60C7
:102E5000254B9B6811009943FAD12560A060231D82
:102E6000C02292011A43212313602368002BFCDA4D
:102E7000E6600823136080BCB846F0BD1B4B1C4ABB
:102E800011211C4800F0EAF81B4B194A1921194876
:102E900000F0E4F8194B164A1C21164800F0DEF841
:102EA000174B134A2321134800F0D8F822683F2318
:102EB0001340AB42C3D1A3681B051B0D8342BED197
:102EC000E368EE22D2021340B342B8D1D3E78022A6
:102ED0009201B9E780E84BD380F8A93200C00240E4
:102EE00000E0004000F0004000C00040D43E01106F
:102EF000F03F0110343F01106C3F0110883F01107A
:102F0000D43F011080239B000343014AD3627047E2
:102F100000800540024B1A68024B5A607047C04659
:102F20000C3000200080054010B50200164B8020B8
:102F3000C0051860154B1648186000290AD0154BBB
:102F4000E021C9041960002A09D1124B802212061F
:102F50001A6010BD0C4BE021C9041960F3E753015E
:102F60009B1A9800801800010B4B186080235B04AB
:102F7000984202D3084B094A1A60FFF7CBFF054B72
:102F80008022D2051A60E4E700B005400820014025
:102F9000FCFF010000A005400C300020FFFFFF00F7
:102FA00010B5030010000C4A8024E4051460002BC7
:102FB0000DD001221343094A094CD461094C5C40ED
:102FC0001462516293620021FFF7AEFF10BD034B04
:102FD0000022DA61F7E7C04600B0054000800540F6
:102FE000D3C007B02D3FF84F064BAA2212011A603A
:102FF0002F22DA60044B054A1A60024B5B68002BF3
:10300000FBDA7047004002400060024000B0FA0066
:1030100000BEFDE703000A4A1268002A08D0084AE9
:103020001068C318074A9A4206D3054A13607047CE
:10303000034A05491160F2E701204042F7E7C04624
:10304000082C002000000420E432002000207047FB
:1030500001204042704710B5FFF7DAFF10B582B08B
:103060000C001900002A0CD0084B002A0BD001924A
:10307000009323000200064802F096FF0120FFF7AC
:10308000C7FF044BF1E7034AF1E7C046FC3F0110DC
:103090000C400110344B011070B52B4B2B4A1A60B9
:1030A0002B4B2C4A1A602C4B9A682A4B9343FAD12B
:1030B0002A4C01E008CC9847294B9C42FAD3FFF7F1
:1030C00005FE234B274A1A60234B9B68DB43DB0139
:1030D000FAD1254B40229A675A671A67DA66234C61
:1030E00009E0234B234A86212348FFF7B7FF20003E
:1030F000FEF782FC0834214B9C4209D22368002B46
:10310000F5D0012BEDD12000FEF783FC0834F2E767
:103110001B4CA1681B4DC022280002F077FDA56062
:10312000EFF30583002B00D000BEFEF7DDF8FEF7BD
:1031300039FCFEF7D1FF144C01E008CC9847134B43
:103140009C42FAD370BDC04600E00040BFCDFBFEFC
:1031500000F00040FE7F3C0000C0004068240020DA
:1031600078240020FFFFFF0100F0014060240020D0
:103170003C400110A84001105C4001106824002070
:1031800000ED00E0000000207824002088240020CA
:103190000FB400B583B0084802F0D6FE049B002BA4
:1031A00007D005A90191180002F0DEFE034802F0E5
:1031B000CBFE0120FFF72CFF984001100C350110C9
:1031C0009A4200D288547047704710B5002802D048
:1031D0000B684968984710BD0100002007E0830094
:1031E0001B185B00501C08601078C01830380A6843
:1031F0001378303BDBB2092BF1D97047F0B5DE46CE
:1032000057464E464546E0B583B093461F000C9B9B
:103210009A460D9C0E9B99460F9B9B0703D0B84680
:103220000F00060022E00192A34688464E46B946AA
:103230000700B44207D2551C4B4641462020B847F0
:1032400001342A00F5E73D004F465C46019B9B4652
:10325000B1464646B84637002E0007E0013C551CF3
:103260005346185D43463900B0472A00002CF5D17B
:1032700035003E0047460F9B9B0707D4100003B064
:10328000F0BCBB46B246A946A046F0BDB0464E468D
:10329000B9462F005D46531BB342EFD2541C4B4638
:1032A00041462020B8472200F5E7F0B5CE46474614
:1032B00080B585B0944698460C9D0D9C0EAB1B784E
:1032C0009946109A119B129EB7071CD4002B0CD064
:1032D000F7070AD54F46002F02D10C37374204D0EA
:1032E000013B02E030272F550134944201D21F2CBC
:1032F000F8D9F70707D59C4205D21F2C03D83027F1
:103300002F550134F5E7F70615D5770505D4002CC0
:1033100003D0944224D09C4222D00F9A102A2BD062
:103320000F9A102A30D00F9A022A35D01F2C02D8BB
:1033300030222A5501341F2C05D84A46002A31D0A4
:103340002D222A5501340396029301940095434699
:103350006246FFF753FF05B0C0BCB946B046F0BDAA
:10336000621E012C06D00F9F102F01D01400D4E74D
:10337000023CD2E71400D0E7B206D1D41F2CCFD83C
:1033800078222A550134D1E7B206CCD51F2CCAD8F1
:1033900058222A550134C9E71F2CC7D860322A5554
:1033A0000134C3E7720703D52B222A550134CAE73B
:1033B0003207C8D520222A550134C4E7F0B5DE46CD
:1033C00057464E464546E0B593B081468A46089238
:1033D00009931CAB10CB1B789B461E9D219B9846E6
:1033E000002C03D1102342469A4390468023DB00F1
:1033F00046461E4042461A4212D0002C22D00026D9
:103400000EE03033D9B2771C0AAB99552900200061
:1034100000F0EAFFAC4216D31F2F14D83E00040080
:103420002900200000F0E0FFCBB2092BE9D9424689
:10343000920605D54121C918C9B20A39C9B2E2E7D5
:103440006121F8E7270043460693209B05931F9BC5
:10345000049303955B46029301970AAB0093099B83
:10346000089A51464846FFF720FF13B0F0BCBB4610
:10347000B246A946A046F0BDF0B5DE4657464E46D8
:103480004546E0B595B0089009910A920B931E9EAF
:103490001F9C20AB1B789B46229B9946239D269B15
:1034A0009A463300234303D1103352469A4392463F
:1034B0008023DB0057461F4052461A4219D0330082
:1034C00023432DD0002714E03033DAB27B1C98461A
:1034D0000CABDA554A462B003000210000F0C2FF49
:1034E000A5421FD819D043461F2B1BD847460600BC
:1034F0000C004A462B003000210000F0B3FFD3B28D
:10350000092BE1D95246920605D54122D218D2B2F2
:103510000A3AD2B2DAE76122F8E7B145E3D901E02D
:103520000023984653460693259B0593249B0493BA
:103530004B4603935B460293434601930CAB0093C7
:103540000B9B0A9A09990898FFF7AFFE15B0F0BCDB
:10355000BB46B246A946A046F0BD0000F0B5DE4627
:1035600057464E464546E0B591B083468A460C9292
:1035700098461A9C08941B9D099522002B00200058
:10358000290001F0FAF9002800D0E5E001225242BA
:10359000D74B2000290001F0EBF9002800D0DBE038
:1035A00001225242D34B2000290001F0CBF9002820
:1035B00000D0D1E000220023089E3000099D2900A0
:1035C00001F0C0F9002800D0DDE0089809990690C4
:1035D00007918023DB001E9A1A400D921E9A1A4210
:1035E00001D106231C930698079904000D000A00D8
:1035F0000600024300D1D1E0080D4005400DBE4C4D
:10360000A44660440A03120BBC4B13431F0001F095
:10361000C7F9BB4ABB4B01F052F9BB4ABB4B01F0A7
:1036200027F904000D000022B94B3000390001F0E9
:1036300016F9B84AB84B01F042F902000B0020001D
:10364000290001F015F901F0C3F9814601F0A8F94C
:1036500004000D00B14AB24B01F031F90022B14B28
:1036600001F006F901F0B4F90600AF4AAF4B2000B3
:10367000290001F024F904000D00300001F090F958
:10368000AB4AAC4B01F01BF902000B0020002900F3
:1036900001F0E5F804000D0002000B0001F00FF945
:1036A0000A900B91A44BF31800261F0522002B0053
:1036B0002000290001F0DCF80E900F9122002B0071
:1036C00000208021C90501F0CAF804000D00002285
:1036D0009A4B0A980B9901F0D4F80022984B01F00C
:1036E000C7F802000B000A980B9901F0CAF80022F3
:1036F000944B01F0BDF802000B000A980B9901F001
:10370000C0F802000B002000290001F0B1F802000F
:103710000B000E980F9901F0B4F80022774B01F0DE
:10372000A7F832003B0001F0CAF806000F000400C1
:103730000D00069A079B01F01BF9002830D00123E9
:103740005B429C46E14400227D4B3000390001F091
:1037500098F804000D0023E01E9B04931D9B039327
:103760001C9B0293089A099B0092019343460C9A72
:103770005146584600F0FCF811B0F0BCBB46B246CA
:10378000A946A046F0BD00230024069307940696A0
:1037900080231B069C46654407951AE7002399463B
:1037A0004B466333C62B1ED804261E9B1B0526D50D
:1037B0002B0023430FD0644A644B0698079901F00D
:1037C000CFF8002879D00022614B0698079901F0C4
:1037D000B9F8002871D01C9B4B4506DD4A46981A63
:1037E000431E1C9303E00526DFE700231C93802380
:1037F000DB001E9A1A431E920026002399461D9B49
:103800009E4264D29F1B02231E9A1A400A921E9A5D
:10381000134202D0002E00D000274B46002B07D0C9
:1038200022002B000698079901F02BF806900791CB
:10383000002200230898099901F084F8002848D153
:10384000444B1E9A1340049303971C9B0293069BC0
:10385000079C0093019443460C9A5146584600F049
:1038600087F8002E00D187E71E9B9B063DD5452596
:10387000441C4346020051462800D8474B46DA17FD
:103880009B18534005220592013E049600220392A4
:103890000A3202924A46D00F01900093434622001A
:1038A00051465846FFF78AFD0A9B002B00D163E77B
:1038B00002005F460C9E1D9D54E01C9B002B9ED079
:1038C0000D9B002B9BD01C9B013B1C9397E7002773
:1038D00099E7069C079D2200290080200006844667
:1038E00061440B0006920793AAE76525C0E7C0462E
:1038F000FFFFEF7FFFFFEFFF01FCFFFF0000F03F46
:10390000FB799F501344D33FB3C8608B288AC63FCE
:103910000000F83F61436F63A787D23F71A3790925
:103920004F930A400000E03F1655B5BBB16B024013
:10393000EF39FAFE422EE63FFF03000000002C4064
:1039400000002440000018402D431CEBE2361A3FD3
:1039500080842E41FFF7FFFF541C43465146202030
:10396000B8472200931BAB42F6D3100004E7C046D1
:10397000F0B5DE4657464E464546E0B595B0069052
:10398000079193469946209F1E9A1F9B100019008D
:1039900000F0F3FF002831D101225242BF4B1E98A4
:1039A0001F9900F0CFFF002837D101225242BC4BB3
:1039B0001E981F9900F0DCFF00283DD10022B94B72
:1039C0001E981F9900F0D4FF002850D10022B64B5A
:1039D0001E981F9900F0B6FF002848D1002200234E
:1039E0001E981F9900F0AEFF002850D10023984682
:1039F000229B5B0500D4B6E0002458E0229B039391
:103A0000219B029303230193A84B00934B465A46F4
:103A100007990698FFF7F2FB0EE1229B0393219B87
:103A2000029304230193A24B00934B465A460799F5
:103A30000698FFF7E3FBFFE00423229A1A4022993D
:103A40000B4210D09B4B002A0FD0042222990391E5
:103A500021990291019200934B465A460799069884
:103A6000FFF7CCFBE8E0944BEDE70322EEE7229B67
:103A70000493219B039302971E9B1F9C0093019428
:103A80004B465A4607990698FFF768FDD4E01E9A00
:103A90001F9B0020002100F0E2FE1E901F910123D9
:103AA0009846A5E70CAB30221A55013F01341F2C74
:103AB00001D8092FF6D81E981F9900F089FF05003C
:103AC00000F06EFF02000B001E981F9900F0C7FE69
:103AD000FA007A4B9B181A685B680A920B9300F005
:103AE000EEFE0890099100F097FF060000F054FFE9
:103AF00002000B000898099900F0B1FE08900991A6
:103B000000226F4B00F034FF00282ED00136300029
:103B100000F042FF02000B000A980B9900F018FF1A
:103B2000002801D001350026002F2CD1280000F0FC
:103B300037FF02000B001E981F9900F090FE060050
:103B40000F0000225E4B00F0FDFE002846D100224F
:103B50005B4B3000390000F00BFF00283ED1EB0733
:103B60003CD501353AE0062746E70022544B089839
:103B7000099900F0E7FE0028D6D1002E01D0F30706
:103B8000D2D50136D0E7AA461F2C11D8013F0A2111
:103B9000300000F029FC651C30310CAB19550A21AE
:103BA000300000F021FC092E0ED906002C00EBE7B6
:103BB00055461F2C0CD87B1E002F09D00CAA302193
:103BC00011551F000134F4E72B0055461C00F0E7A7
:103BD0001F2C03D80CAB2E221A5501341F2C10D8E1
:103BE0000A21280000F0D8FB661C30310CAB1955B7
:103BF0000A21280000F0D0FB051E01D03400EDE7BB
:103C000034000323229A1340012B1CD01F2C06D80A
:103C10004346002B32D00CAB2D221A550134229B87
:103C20000393219B029301940CAB00934B465A469D
:103C300007990698FFF7E2FA15B0F0BCBB46B2460A
:103C4000A946A046F0BD219B002B13D04346002B74
:103C500002D10C3313420FD0219B013B2193190059
:103C600003E00CAB30221A5501348C42CED21F2C0B
:103C7000F7D9CBE72199F8E72199F6E7229B5B0773
:103C800004D50CAB2B221A550134C8E7229B1B0725
:103C9000C5D50CAB20221A550134C0E7FFFFEFFF5A
:103CA000FFFFEF7F65CDCD4165CDCDC1C440011093
:103CB000C8400110BC400110B8400110B0420110D2
:103CC0000000E03FF0B5DE4657464E464546E0B5BB
:103CD00093B082468B4690461193002900D1EBE2C7
:103CE00000275546119B1878002800D1E7E22528C7
:103CF00009D07C1C43463A005946A847119B013322
:103D000011932700EEE7013311930024119A1178E3
:103D10000B00203BD8B2102803D88300D048C358EA
:103D20009F460B00303BDBB2092B2CD92A292FD020
:103D300000230A93119B1A782E2A39D000239A4621
:103D4000119A1378683BD9B2122976D88B00C549ED
:103D5000CB589F4601231C4301321192D6E7022320
:103D60001C4301321192D1E704231C43013211920A
:103D7000CCE708231C4301321192C7E710231C43F0
:103D800001321192C2E711A8FFF726FA0A90D1E793
:103D90001C9B1A1D1C921868002804DB0A90119BBA
:103DA00001331193C6E702231C4343420A93F6E70B
:103DB0008022D20014435A1C11925A781300303BCF
:103DC000DBB2092B04D92A2A07D000239A46B7E789
:103DD00011A8FFF701FA8246B2E71C9B1A1D1C923C
:103DE0001868002804DB8246119B01331193A7E772
:103DF0000020F8E780235B002343511C1191527887
:103E00006C2A01D01C0018E0C0239B001C43013128
:103E1000119112E080232343511C11915278682A9A
:103E200001D01C0009E0C0231C430131119104E0C2
:103E300080235B001C4301321192119B1878030010
:103E4000253BDAB2532A00D92CE29300864AD35894
:103E50009F4680239B001C4301321192EDE7802393
:103E60005B001C4301321192E7E7782809D05828FB
:103E700038D06F2838D0622838D010239C430A26C7
:103E800000E01026582833D0692803D0642801D0D8
:103E90000C229443630501D50122944369282AD05A
:103EA000642828D0A30500D59FE0E30500D5B8E03D
:103EB000630600D4CAE01C9A111D1C911168FF22F0
:103EC0000A4005940A9B04935346039302960023E9
:103ED0000193009243463A0059462800FFF76EFAD4
:103EE000070027E01026CDE70826CBE70226C9E722
:103EF00020221443C8E7A30520D4E30550D4630669
:103F000066D51C9A111D1C911168FF220A40D31717
:103F1000D118594005940A9B049353460393029683
:103F2000D20F0192009143463A0059462800FFF70C
:103F300045FA0700119B01331193D3E61C9BDA1D50
:103F400007218A43110008311C91116853689C466F
:103F5000DB170C930D930C9A0D9B100048400E90AC
:103F6000624653400F930E980F990C9A0D9B801A3E
:103F700099410E900F9108940A9B0793534606931C
:103F80000496002305936346DA0F02920090019194
:103F900043463A0059462800FFF76EFA0700C9E782
:103FA0001C9A111D1C911268D317D1185940059401
:103FB0000A9B0493534603930296D20F01920091F9
:103FC00043463A0059462800FFF7F8F90700B1E7E1
:103FD000230605D51C9A111D1C910023D25E96E77D
:103FE0001C9A111D1C91126891E71C9BDA1D072178
:103FF0008A43110008311C9108940A9B0793534689
:104000000693049600230593029313685468009363
:10401000019443463A0059462800FFF72DFA07005D
:1040200088E71C9A111D1C9105940A9B0493534622
:1040300003930296002301931368009343463A00CA
:1040400059462800FFF7BAF9070073E723060DD594
:104050001C9A111D1C9112681204120C31E7C04603
:10406000D040011014410110604101101C9A111D33
:104070001C91126825E746281AD01C9B073307229B
:1040800093431A0008321C9204940A9A03925246EF
:1040900002925C681B680093019443463A005946BB
:1040A0002800FFF765FC0700119B0133119319E607
:1040B00020231C43E1E7672801D0472802D1802351
:1040C0001B011C43452801D0472801D120231C4354
:1040D0001C9B0733072293431A0008321C92049456
:1040E0000A9A0392524602925C681B6800930194FC
:1040F00043463A0059462800FFF730FA0700119B63
:1041000001331193EEE502231A0022409246234226
:104110001FD001241C9B1A1D1C927A1C91461878F2
:1041200043463A005946A8475346002B16D1119BE7
:10413000013311934F46D5E5561C4346594620207E
:10414000B847230032005C1C9D42F5D83D001700A3
:10415000E0E701233A002F000A9DF4E74A46A9460A
:104160000A9D06E0571C434659462020C8473400A4
:104170003A00661CA542F5D84D469146D7E71C9BF0
:104180001A1D1C921B6899465346002B00D1013B17
:104190004E4601E0013613003278002A02D05A1E42
:1041A000002BF7D14B46F21A10928023DB00260039
:1041B0001E401C4203D0524501D95346109302239E
:1041C0001A0022400B92234205D03A0037004C4699
:1041D000A946554620E03A00109B5F46B3462E00A4
:1041E00006E0551C434639002020B04723002A0032
:1041F0005C1C0A999942F4D835005E46BB4610947F
:1042000037004C46A946554606E01D000134561CB1
:1042100043465946C84732002078002804D0002F72
:10422000F4D06B1E002DF0D117004D460B9B002BD8
:1042300003D1119B0133119354E50A9F109B06E0B3
:10424000561C434659462020A847230032005C1CD8
:104250009F42F5D81700ECE721231C431C9B1A1D35
:104260001C921B6800930594082304935346039300
:10427000102302930023019343463A005946280035
:10428000FFF79CF80700119B013311932AE57C1C72
:1042900043463A0059462520A847119B0133119304
:1042A00027001FE57C1C43463A005946A847119B4E
:1042B00001331193270015E50A4B9A4610E5AA46EB
:1042C000474502D343465A1E00E03A00434659464A
:1042D0000020D047380013B0F0BCBB46B246A94618
:1042E000A046F0BDC93100100EB410B585B0010074
:1042F00007AC08CC03940122009452420348FFF714
:10430000E1FC05B010BC08BC03B01847C131001077
:1043100000B585B0029003910121009313004A4239
:1043200002A90248FFF7CEFC05B000BDCB3100105A
:1043300001480421014B1847901B002061430010E5
:1043400010B5010018231B8814221088984710BD4F
:1043500010B5010018231B8816221088984710BD3D
:10436000F0B5C64600B507000E00002501239846AB
:1043700000E00135B5420AD2AC003C192068FFF7D5
:10438000DFFF20600028F4D100239846F1E7404683
:1043900080BCB846F0BD0000124A936F9B0815D24E
:1043A0009066D166002905D0FFE7FFE7FFE7516F70
:1043B000106F704704B580210906C21751400028CC
:1043C00000D0C8430EF0B4FF002104BDF0B5146E58
:1043D000556E576F166FFFF7E3FF14665566576704
:1043E0001667F0BD000000D0114A936F9B0813D2EE
:1043F00010665166002905D0FFE7FFE7FFE7516F20
:10440000106F704704B5002801D00020C0430EF0A3
:104410008FFF002104BDC046F0B5146E556E576F76
:10442000166FFFF7E5FF1466556657671667F0BD10
:10443000000000D094464A4A926F9208624601D228
:1044400028E0C046F0B5464E346E756E776F366F15
:1044500000F020F89446424A14665566576716677E
:104460006246F0BD94463E4A926F9208624601D27F
:1044700054E0C046F0B53A4E346E756E776F366FC5
:1044800000F04CF89446364A14665566576716672E
:104490006246F0BD002B24DB11D000293EDA00B5C6
:1044A000C943404200D1013100F038F8C9434042CD
:1044B00000D10131DB43524200D1013300BD002A5B
:1044C000EBD1002801D1002905D00020C90FC90770
:1044D00001D1C043410800B50EF0F2FE00220023D6
:1044E00000BD00B500290ADBDB43524200D1013395
:1044F00000F014F8C943404200D1013100BDC94366
:10450000404200D10131DB43524200D1013300F07F
:1045100005F8DB43524200D1013300BD002923D10D
:10452000002B18D1002A0CD0BC460D4F38667A6695
:1045300000210023FFE7FFE7FFE77A6F386F674648
:104540007047002801D00748010000B50EF0B8FE02
:104550000022002300BD02000B0000200021704754
:10456000000000D0FFFFFFFF002B00D0BFE0130CC6
:1045700028D1002AE7D080B4114F39667A66FFE768
:10458000FFE730B4040C7B6F396F1B0423433B6699
:104590007A66FFE7FFE7FFE7C04684B27B6F3D6FB7
:1045A0001B0423433B667A66FFE7FFE7C046002310
:1045B0002C042D0C7A6F386F00196941B0BC70471C
:1045C000000000D0F0B594460025140E01D112026F
:1045D0000835140F01D112010435940F01D1920056
:1045E0000235D40F01D152000135D40B0134254FCF
:1045F0007C66254C3C660E0C93B2FFE7FFE7FFE7B5
:104600003C6F6643360C7703BE467343DF0B5B0497
:10461000C01AB941130C7343DB18C91ACE0866439C
:10462000360CB64493B273431F0F1B01C01AB94135
:10463000130C73431F0B1B05C01AB941860D8F0263
:104640003E436643360C092D24DB520A7243801A1E
:104650007703460A6643360C16235B1BDE40DF40B9
:10466000BF1964466643821B704604350633010059
:10467000D940A840C01900D30131A24206D200237C
:10468000F0BD0000000000D0FFFFFFFF121B013053
:10469000F3D3F1E709277F1BFE406446A2B27243C1
:1046A000801A00D20139220C7243130C1204821AB0
:1046B00099410B007046043513370100F940A840BA
:1046C000801900D30131002B02D1A2420AD2F0BDE1
:1046D000013000D30131121BFAD2013BF8D1A242C2
:1046E00000D2F0BD013000D30131121BF7E7F0B565
:1046F0001C0C00D080E00CB400251C0A04D11B0265
:10470000160E3343120208351C0B04D11B01160F81
:104710003343120104359C0B04D19B00960F3343A5
:1047200092000235DC0B02D192185B4101351C006E
:10473000971864410134464F7C66464C3C660E0C2B
:10474000FFE7FFE7FFE7C0463C6F6643360C7703A1
:10475000BE4697B27743C01B00D20139C01B00D2BE
:1047600001399FB27743C91BC91B170C77437E04DD
:10477000FF0B801BB941CE086643360C0C2D33DB92
:10478000B644120B1F053A431B0B97B27743C01B6D
:1047900000D201399FB27743C91B170C77433E04FF
:1047A0003F0C801BB941860D8F023E43664329278B
:1047B0007F1BFE400C3D7746AF40BF1930BCA2B214
:1047C000ABB272437343801A9941220C7243130CAB
:1047D0001204801A994102000B000137001BA94105
:1047E000F9D2781E0021F0BD0C277F1BFE407746D2
:1047F0007F0BAF40FF19E0E700245D1C07D0144F8A
:104800007D663966FFE7FFE7FFE7FFE73C6F95B29C
:104810009EB265436643401BB141150C1E0C6543B7
:10482000664336042F0C3E432D04401BB141994290
:1048300004D202000B0020000021F0BD01D1904203
:10484000F7D3801A994101349942F2D3F6E7000078
:10485000000000D0FFFFFFFF48404140484018B42F
:104860001B4B5B68FC46019308BD04DF7B4B0010CB
:1048700018B4174B1B68FC46019308BD00DF854B3D
:1048800000109446134A926F920809D2624618B4F7
:104890000F4BDB68FC46019308BD0CDF3D4E00105A
:1048A0000C4AF0B5146E556E576F166F6246FFF7DF
:1048B000EEFF084A1466556657671667F0BD18B4D0
:1048C000034B9B68FC46019308BD08DFE14C0010D8
:1048D000A4300020000000D0FFB5504042405040BE
:1048E00059404B40594000E0FFB5154F4C00640D56
:1048F00003D0BC4204D10C0314D80020090D0905D3
:104900005C00640D03D0BC4204D11C030AD8002211
:104910001B0D1B0501264B4009D44B4003D58B4290
:1049200000D18242FFBD9942FCD19042FFBD0B43B2
:10493000DB1803431343F5D0C9434918FFBD0000FA
:10494000FF07000000B5FFF7CFFF804100BDC04664
:1049500000B5FFF7C9FF01D9002000BD012000BD4F
:1049600000B5FFF7B9FF01D9002000BD012000BD4F
:1049700000B5FFF7B1FF804100BD012040054A00AE
:10498000121804D85A00121801D8002070470120CC
:1049900070470020704700000021002805D17047B3
:1049A000C1174840401AFAD0C90713B5064B1B6817
:1049B00098470CBC441CA2401005120B0349091B6C
:1049C00009051943114310BDA43100201F04000044
:1049D00010B54C00620D8023D218DB00D21A5B05A3
:1049E0007E2A10DD9E3A13DACC17090349081943D1
:1049F0005242D140640001341532202A05DAD040F9
:104A00000843604310BD002010BD0846604310BD40
:104A1000C80FC018013810BD18B4044B5B6AFC46BF
:104A2000019308BD24DFED4F00100000A4300020EA
:104A300018B4044BDB6FFC46019308BD7CDF6D505E
:104A400000100000A430002018B4044BDB6CFC46BE
:104A5000019308BD4CDF195200100000A430002063
:104A600018B4044B1B6DFC46019308BD50DFB552D2
:104A700000100000A430002070B513231C78012C16
:104A800014D0012C14DC022C02DC1F4A1F4B9A6448
:104A90001F48FFF755FC1F4B186070BD99001A485E
:104AA0001A4A885001331F2BF8D9EAE70023FAE7A6
:104AB0001948FFF74DFC05001848FFF749FC02387C
:104AC00003789B007F2B19DD802229000F4801F01D
:104AD0009DF8022CD7D1124B1A88B5231B029A429B
:104AE00009D1104B1A88104B9A4204D10F4B1A88E7
:104AF0000F4B9A42C7D00020FEF74AFB0D4B0E4ADF
:104B000032210E48FEF7AAFA414B0010A4300020D3
:104B10004C330000A43100205344000053460000F1
:104B200054380000D8380000494600009C38000086
:104B30005946000000430110A443011060430110D6
:104B400007B56046002800D100BE01880A0A02307D
:104B5000DF2AFAD1C9B2820804D30288408800044F
:104B6000104300E00068024A5050039007BD000067
:104B7000A43000200FB403BC0CBCF0B50124E40742
:104B8000634000E0F0B50C0DCF0F661E3605891BA3
:104B9000640503D3C943404200D30131640D03D0FF
:104BA000661CF60A07D0E41B00207F00791C8907E9
:104BB0008912803C24031D0DDF0F6E1E36059B1BE2
:104BC0006D0503D3DB43524200D301336D0D03D097
:104BD0006E1CF60A07D0ED1B00227F007B1C9B0792
:104BE0009B12803D2D032F1B661B58D4A446202EFC
:104BF00046DA20371400BC401D00BD40F24033416E
:104C00002A4380185941CB0F05D0C943C043002225
:104C100064425041514162464D0D28D10D0D07D1DE
:104C200000281FD0241940414941013A0D0DF9D007
:104C3000640006D3013000D30131002C01D14008BB
:104C40004000013A0BD4941CE40A04D1120511442B
:104C5000DB071944F0BDD907204B194300E0D90701
:104C60000020F0BD0029DDD1002CDBD1F0BD0132E8
:104C7000C6074008CD0728434908002EE1D0D9E7F0
:104C80003C2E29DA203E40371400BC4000D00124DD
:104C9000F24014431A00BB401C43D317ACE7AC46A8
:104CA000202F08DA20360400B4400D00B540F8404B
:104CB00039412843A5E73C2F0CDA203F4036040059
:104CC000B44000D00124F84004430800B1400C4334
:104CD000C117EAE710001900002494E70000F07FF4
:104CE000F0B50C0D661E3605891BE60A6405640DD9
:104CF00002D0651CED0A04D0002001210905803C8A
:104D00002403A4461C0D671E3F05DB1BE70A640550
:104D1000640D02D0651CED0A04D0002201231B059E
:104D2000803C24037740644497B484B296B27443C1
:104D3000070C7E43150C6F4380B26843361802D3CC
:104D4000012000043F183004350C00197D418446D1
:104D500088B29AB250430C0C62431F0C7C438EB253
:104D60007E43921902D301263604A4191604170CA7
:104D70003618674101BC81B29AB25143040C6243B8
:104D80001B0C5C4380B25843121802D3012000046C
:104D900024181004130C401863412D185E410020A4
:104DA000474106BC88B293B258430C0C6343120CC3
:104DB000544389B251435B1802D30121090464189A
:104DC00019041A0C091862416D1856410020474118
:104DD00018BCF902720D1143F0026A0D1043ED0286
:104DE0000A0D03D16D1940414941013B124E9B1BF5
:104DF0007600B3420ED26D0007D301300026714118
:104E00006646354301D1400840001B05C918E40738
:104E10002144F0BD0BDA013306D1013004D1013158
:104E20004F0D01D04908F2E7E1070020F0BD01363F
:104E300031050020EBE70000FF030000F0B51C0D7A
:104E4000671E3F05DB1BE70A6405640D02D0661C84
:104E5000F60A04D0002201231B05803C2403D02540
:104E60002D060026F6432E661E096E66CE0FF61935
:104E7000B44649004F0D02D07E1CF60A03D0002034
:104E80000021403F3F033E1BB600B444013F7F0575
:104E9000C91B49082E6F013676089C02950D2543E3
:104EA0007543ED137543AD1301356D10F603761B95
:104EB0000CB4CC02450D2C43A2B2B3B25A43270C1A
:104EC0007B43350C6F43A4B26C431B1902D30124FE
:104ED00024043F191C041D0CA4187D4124196D41A4
:104EE000009A91B2ACB26143170C7C432B0C5F4328
:104EF00092B25A43A41802D301221204BF1822040A
:104F0000230C52187B41019C6C431B19520ED90192
:104F10000A434401A01A81B2B2B2514303145A4366
:104F2000360C734387B27743D617D21900277E41D8
:104F300036049B191704160C7F185E417316ED1882
:104F4000F301002680337541A90F06D16400690A78
:104F5000E8055B0A184309D22FE004229444803309
:104F60007541A90AA8059B0A184326D34041494127
:104F70002404009A019B0D005543641B4343E41A2B
:104F800095B286B27543170C7E43030C5F4392B211
:104F90005A43B61802D301221204BF183204330C4C
:104FA00052197B4152429C41002C02D40022013014
:104FB00051414008CA071043490802B06246D7076A
:104FC0009210084BD218084B9A4203D21205891846
:104FD000C919F0BD0020002A01DC3900F0BD013301
:104FE0001905F5E7FD030000FE070000002200B5EB
:104FF000203200F004F8080000BD000000220B156C
:105000000AD410B5944600F0A7F81414013400DA5D
:105010000021CB17144C2047002000217047624428
:10502000343A0CD40C2A07DA0400914090405242E2
:105030002032D440214310BDD843D94310BD203283
:1050400007D40C469440524220321141D0402043B4
:1050500010BD0800C917203203D45242203210413B
:1050600010BD1800190010BD1F5000104A00520D4D
:10507000144BD21A13DDFF2A1EDAD205CB0FDB0741
:105080001A43C300400F0903490A084310435B0059
:1050900001D301D0013070474308FBD2704702D0E2
:1050A000C80FC00770470A0312130132F8D1420F2C
:1050B000072AF5D1012200E0FF22C80F0002801864
:1050C000C00570478003000000210A00002104E0B1
:1050D00000210A00C11704E00022002306E0C046B8
:1050E0000022CB1758405940C01A994130B5184C8E
:1050F000A21A002903D1010010D00020203A4C153B
:1051000012D104D2013A001849414C0DFAD3114C86
:10511000A24204D212058918DB07C91830BDD24358
:10512000520D00200021F5E703D4013A001849414F
:10513000FBD50B324405C00A4D052843C90A64005B
:1051400003D0002460416141E1E7E0D34408F8E77F
:1051500032040000FE0700000A0DCC0F531E1B0591
:10516000C91A520503D3C943404200D30131520D3D
:1051700003D0531CDB0A07D0121B00206400611C03
:1051800089078912803A1203014BD21A7047000036
:10519000FF030000023225D40C2A1CDA1125AD1AB7
:1051A0000B002B41083207350600EE40904091403D
:1051B0003143F0CC63431A1500235A4155435643FB
:1051C0005743BF02F412760576196741ED177F1930
:1051D000801BB94170470C220020C91749000131DA
:1051E0000905DBE70902030E19430002534220328E
:1051F00008D40C0019419440D8402043002250416B
:10520000514170470800C917203B2032F1D50020DA
:105210000021002270470000F0B5FFF79DFF54A465
:10522000FFF7B8FF002904DA204C214D001969412D
:10523000013A04B4012752A6002201239B0730CE75
:10524000B446001BA9410BD47E4220361D003D41CF
:105250001C00B4401600FE40344362416B4101E043
:105260000019694166460137212FE8D185B29EB207
:10527000754307147E43190C4F4384B24C43F11716
:1052800036190024614109047F183404310C641973
:105290007941A40F8800204389178018594104BC24
:1052A00052423E32FFF71DFFF0BD00006BDE73F48B
:1052B000FD855C2CF0B54F0050D27F154ED00137E4
:1052C0004FD0FFF749FF04B44902C20D1143400219
:1052D00001272BA6B446002200237E4220360D0073
:1052E0003D410C00B4400600FE40344344414D4172
:1052F000AE0F05D120002900664630CE121BAB410F
:105300000824A4440137212FE7D1890089101218FD
:105310004B4180BC17A413CC0137784379437C43BD
:105320004F05C912CD17C0196941A702A415CD17A1
:10533000C9196C41DD17801859416C413E22CD17C7
:10534000AC4208D000090E07304309092607314353
:105350002411043AF3E7FFF7C4FEF0BD0249002030
:10536000F0BD02490020F0BD0000F0FF0000F07F1A
:10537000AAB800006BDE1300A3EF0F0021170B008B
:10538000F34B98BFEC23F319D6104DCDE3FB470E3A
:105390007AB9BC8ADBC18907CC542C021846E103D8
:1053A000053083E7B029F8011E1FE0874505FE00A0
:1053B000249E41ACA9807F008117624515E03F0023
:1053C000E610ABA902F81F008858455500FE0F00F3
:1053D000C4AAA90A80FF070056455501E0FF030053
:1053E000ABA92A00F8FF010045550500FEFF0000AB
:1053F000AAAA0080FF7F0000551500E0FF3F0000D3
:10540000AB0200F8FF1F0000550000FEFF0F000078
:105410000B0080FFFF0700000100E0FFFF0300001A
:105420000000F8FFFF0100000000FEFFFF00000089
:105430000080FFFF7F00000000E0FFFF3F00000052
:1054400000F8FFFF1F00000000FEFFFF0F0000003C
:1054500080FFFFFF07000000E0FFFFFF03000000E8
:10546000F8FFFFFF01000000FEFFFFFF000000004B
:10547000000000800000000000000040000000006C
:1054800051434343C9188C46110C83B24B4310B4AB
:10549000040C614392B280B2504362431C041B0C63
:1054A000001910BC59411304120CC0185141614439
:1054B0007047000048404140484000239C46114B43
:1054C0005B68184700239C460E4B1B6818470E4A22
:1054D000936F9B0804D200239C460A4BDB68184755
:1054E000F0B5146E556E576F166FFFF7F4FF064A4E
:1054F0001466556657671667F0BD00239C46014B3E
:105500009B681847A8310020000000D007B548402C
:105510004140484001E0C04607B54200120E03D0AA
:10552000FF2A03D1420218D8C00DC0054A00120E4E
:1055300003D0FF2A03D14A020FD8C90DC9050122A1
:10554000414005D4414001D5814207BD884207BD95
:105550000143491801D0C043001807BD00B5FFF74B
:10556000DBFF01D0002000BD012000BD00B5FFF72A
:10557000D3FF804100BDC046491A002808D1084623
:1055800070470000C10FC90700D54042002817D05E
:10559000F44603B40B4B1B68984706BC81409E3809
:1055A0004042803107D20B0607D04900490AC005A6
:1055B0001043084360470130F8E7490A8902F5E7DC
:1055C00070470000A431002041000A0E80231B0612
:1055D0007E2A0BDD9E3A0BDAC117400240081843C1
:1055E0005242D04049000131484370470020704783
:1055F000C00FC01801387047C0420DD300B540003D
:105600004008002100F012F8002801D4404200BDFB
:105610008020000600BD0000034BDB69FC461847F4
:105620001CDF595B00100000A831002000239C46BD
:10563000014B5B6A18470000A8310020054A10475B
:10564000C2179142FAD0044BDB6DFC4618475CDF71
:10565000275B001085550010A8310020034BDB6F3D
:10566000FC4618477CDF715B00100000A831002069
:1056700070B513231D782A48FEF76AFE0400012D39
:1056800011D0012D09DDA31E1B789B007F2B40DD6F
:1056900080222100234800F0B9FA2348FEF750FE8B
:1056A000224B186070BD542201001E4800F0AEFA73
:1056B0001F4B1A881F4B9A421CD1A7239B011A88A3
:1056C0001D4B9A4216D11D4B1A881D4B9A4211D17F
:1056D0001C4B1A8894239B019A420BD11A4B1A88AF
:1056E0001A4B9A4206D11A4B1A681A4B9A4201D1A8
:1056F000152307E01848FDF74BFD99001748094AA4
:10570000885001331F2BF8D9144A064B1A62DA610C
:10571000B7E7134B134A42211348FDF79FFCC046DD
:1057200053460000A83100204C330000A431002073
:10573000EE290000C40F0000C20D0000962B0000EF
:10574000C0B50000182B0000CC2A000010B50000E6
:10575000FC2C000051ED8764344B0110E15A00101D
:10576000B84301102C440110EC43011070B5051C26
:105770000C0001290CD0C90F09194910FFF7F6FFD9
:10578000011CFFF7BAFEE30702D5291CFFF7B5FE9F
:1057900070BD0000F0B5C64600B5041C0D1C070026
:1057A000C60F002830DACA0DFF2313407F3B1CD4FC
:1057B0001722D31A1BD4163A9A40013A0A4218D13A
:1057C000172B18D00A00DA4001231340002B14D005
:1057D00080231B06F818291CFFF7DCFF80231B061B
:1057E0009C46604480BCB846F0BD0023EEE7002331
:1057F000ECE70023EAE70123E8E780231B06F8181B
:10580000291CFFF7C7FFEDE7081CFFF7DDFE804608
:10581000E30DFF2002001A40184204D0FF2A1FD0D7
:10582000620253425A41002A1CD14346002B4CD0FD
:105830002033402B37D9201CFFF710FFFFF710F95A
:1058400006000F00281CFFF709FF02000B003000C4
:105850003900FFF734F8FFF7F7F8FFF7E9F8C1E789
:105860000022E0E7F80DFF2738407F384346FF2B42
:1058700005DC174B984504DA154B984601E0FF23E9
:1058800098464346584303007F33002B09DDFE2B27
:1058900005DCC605FE239B059C46664401E0FF2609
:1058A000F605301C9EE74346002B04DB4146201CD6
:1058B000FFF75CFF96E7211CFE208005FFF707FE3F
:1058C000041C43465B429846F0E7FE20800589E7CA
:1058D00000FFFFFFF8B5041C0D1CFE218905FFF732
:1058E0003DFE00282DD1EE0DFF231F00374033422F
:1058F00027D07849201CFFF731FE002802D0FF2F67
:1059000000D1D1E0E30DFF22110019401A423AD133
:10591000002D1BDBEA0DFF2313407F3B0CD4172225
:10592000D31A09D4163A9A40013A2A4204D1172BC5
:105930000AD0DD4001212940002900D1B7E0201C18
:1059400001E0FE208005F8BD0121F5E7EA0DFF2307
:1059500013407F3B0CD41722D31A09D4163A9A402D
:10596000013A2A4204D1172B0BD0DD4001212940F6
:10597000002900D19DE0E40FE407FF20C00520438B
:10598000E1E70121F4E7FF2B1AD0534A93421BD0E1
:10599000FF2E58D0504B9E4259D0EB0DFF210A00EC
:1059A0001A40194258D07F3A5ED417239A1A002A17
:1059B0005CDD163B9340013B2B4259D101234CE067
:1059C000002D79DA0020BEE7002D1DDBEA0DFF2354
:1059D00013407F3B10D41722D31A0FD4163A9A40A3
:1059E000013A2A420CD1172B0CD0DD4001231D4077
:1059F000002D64D03948A6E70025F9E70025F7E730
:105A00000025F5E70125F3E7EA0DFF2313407F3B6F
:105A100011D41722D31A10D4163A9A40013A2A42C6
:105A20000DD1172B0DD0DD4001231D40002D49D095
:105A30008020000687E70025F8E70025F6E7002527
:105A4000F4E70125F2E77E293EDC00207BE77E2992
:105A50003DDCFF20C00576E70123002B0AD1002C96
:105A60000DDAFF20C0056EE70023F6E70123F4E717
:105A70000023F2E7291C201CFFF78CFE63E7201CA3
:105A8000FFF7ECFDFEF7ECFF06000F00281CFFF708
:105A9000E5FD02000B0030003900FEF710FFFEF7B5
:105AA000D3FFFEF7C5FF4EE7FE2080054BE7002041
:105AB00049E7FF20C00546E7FF20C00543E7FF2078
:105AC000C00540E700203EE7FF20C0053BE700207F
:105AD00039E7C046000080BFFF010000000080FFE2
