:020000041000EA
:1000000000B5324B212058609868022188439860DF
:10001000D860186158612E4B002199600221596106
:100020000121F02299502B49196001219960352056
:1000300000F044F80222904214D00621196600F024
:1000400034F8196E01211966002018661A6600F04E
:100050002CF8196E196E196E052000F02FF8012189
:100060000842F9D1002199601B49196000215960AB
:100070001A491B48016001219960EB211966A021F2
:10008000196600F012F800219960164914480160C1
:100090000121996001BC002800D000471248134993
:1000A000086003C880F30888084703B5996A0420EC
:1000B0000142FBD001200142F8D103BD02B5186610
:1000C0001866FFF7F2FF186E186E02BD00000240BE
:1000D000000000180000070000035F00212200005C
:1000E000F4000018222000A00001001008ED00E03C
:1000F00000000000000000000000000074B24E7A12
:1001000000200420F7010010C3010010C5010010F9
:10011000C1010010C1010010C1010010C101001097
:10012000C1010010C1010010C1010010C701001081
:10013000C1010010C1010010C9010010CB01001065
:10014000CD010010CD010010CD010010CD01001037
:10015000CD010010CD010010CD010010CD01001027
:10016000CD010010CD010010CD010010CD01001017
:10017000CD010010CD010010CD010010CD01001007
:10018000CD010010CD010010CD010010CD010010F7
:10019000CD010010CD010010CD010010CD010010E7
:1001A000CD010010CD010010CD010010CD010010D7
:1001B000CD010010CD010010CD010010CD010010C7
:1001C00000BE00BE00BE00BE00BE00BEEFF3058054
:1001D000103800BEF2EB8871403E01106C3E0110F9
:1001E0003402001090A31AE700201F49086006C8D7
:1001F00081F3088810471D48006800282FD10DA4FE
:100200000ECC002902D000F012F8F9E71849194A7B
:10021000002000E001C19142FCD1174988471749ED
:1002200088471749884700BEFDE701C901C29A42C5
:10023000FBD370476C3E0110C00000200C1B002057
:10024000B85801100000042000000420B858011024
:10025000001004200010042000000000704709482E
:1002600003F084FB0047000008ED00E0000000D030
:10027000101B0020BC1F0020C526001051080010D4
:10028000832600105756000006005250ABB360534F
:10029000B00B011006005250861C0302C00B011067
:1002A000060052505422A29DD00B0110050052505E
:1002B000DE65F468B8580110F8B5C04610B5064CB4
:1002C0002378002B07D1054B002B02D0044800E017
:1002D00000BF0123237010BD101C0020000000008F
:1002E00060FC0010044B10B5002B03D003490448F8
:1002F00000E000BF10BDC04600000000141C00203C
:1003000060FC00100020704770B504000D0001284B
:1003100005D0002C02D10B4B9D420AD070BD094B79
:100320009942F6D1084805F041F8084805F03EF832
:10033000EFE7064B06491960064A1A60024B19603E
:100340001A60EBE7FFFF0000181D0020501D002081
:1003500048FD0010680D0110274B03604B68436097
:10036000264B03600B7A03724B7A43728B7A83724B
:10037000CB7AC3720B7B0373CB89C3810B8A038255
:100380008B7C8374CB7CC37414228B5E8382162295
:100390008B5EC3820B7E03764B7E43768B7E8376A9
:1003A000CB7EC3768B8B8383CB8BC3830B8C0384F5
:1003B0004B8C43842423CA56C2540133CA56C254B8
:1003C0000133CA56C2540133CA56C2540133CA5605
:1003D000C2540133CA5CC254CB6AC3620B8E03861B
:1003E000074B03603223CA5CC2540133CA5CC25457
:1003F0000133CA5CC25470477C0D0110680D0110B6
:1004000048FD001010B582B0FA20800001F0C6FB54
:10041000FA210F4C0F4A4901200005F05AFB132323
:100420000193013B0093013B03220F21200005F0C3
:100430000AF8A0230093203B00220021200005F0B1
:1004400026FB0021200005F02EFB02B010BDC046A7
:10045000181D002000C0034010B582B0FA208000B3
:1004600001F09CFBFA210F4C0F4A4901200005F0D6
:1004700030FB0B230193013B0093013B042210212D
:10048000200004F0E0FFA0230093203B0022002185
:10049000200005F0FCFA0021200005F004FB02B06A
:1004A00010BDC046501D00200000044070B584B04F
:1004B00003ACF5232370613B63700B4D002600965F
:1004C000923B22007621280004F058FFF423237089
:1004D000C53B637000962D3B22007621280004F076
:1004E0004DFF04B070BDC04678120020F0B587B053
:1004F00005000E000F226A44F7231370114FF63BDC
:1005000000937621380004F039FF04AC00230093F7
:10051000063322007621380004F03CFF23781B03C9
:10052000627812011343A278120913433360E3780F
:100530001B032279120113436279120913432B60C2
:1005400007B0F0BD7812002030B5C2100D886C00E5
:10055000141B0223CA5E6243D21203115B1B5B436E
:100560001B130420085E58438013101830BD10B5CB
:10057000FFF7EAFF03008000C0188030001210BDB2
:1005800070B50400080015001100FFF7DDFF4210F0
:10059000274B9C46624493105B43DE121021685E39
:1005A00046430E21685E50434000801980100C269F
:1005B000A95F090440180A216E5E59137143C910DE
:1005C0000826AB5F5A4352108918891480231B02F6
:1005D0009C466144EB885943C91322D00013041987
:1005E00063011B1B98000019840000198400001986
:1005F0004042104BC01816D4400003F00BFA1623EB
:10060000EA5EC3085B43590B514309138208142463
:100610002B5F53435B13C9181222AB5EC918091133
:100620000918080070BD03F0F5F94000E7E7C0467F
:100630000006FFFF000050C3F0B58BB0050004AC0E
:10064000002704971422002105A804F071F90F2255
:100650006A4488231370264E873B0093762130002E
:1006600004F08CFE0097182322007621300004F05D
:1006700091FE63781B02227813432B80E2781202EA
:10068000A37813436B806279120223791343AB8002
:10069000E3791B02A2791343EB80627A1202237A78
:1006A00013432B81E27A1202A37A13436B81627B9C
:1006B0001202237B1343AB81E27B1202A37B134321
:1006C000EB81627C1202237C13432B82E27C1202B8
:1006D000A37C13436B82627D1202237D1343AB82A2
:1006E000E27D1202A37D1343EB820BB0F0BDC04646
:1006F00078120020F0B5CE46474680B593B004008E
:100700000FAB9946494B4A4603CB03C21B88138063
:100710000DAB9846464B424603CB03C20BAF454B4D
:100720003A0003CB03C2444B1A6809929A8869467F
:100730000A859B796A462A21521813703F4B1A6822
:1007400007929A8869460A849B796A462221521840
:1007500013703B4B1A6805929A8869460A839B7905
:100760008B760021200005F0D7FE0121200005F046
:10077000D3F90226029600250195324B00934B4691
:1007800005220521200005F049FD0221200005F089
:10079000C3F902960195FC23DB000093434619221E
:1007A0000521200005F03AFD0321200005F0B4F9F1
:1007B000029601951F2300933B002D220521200066
:1007C00005F02CFD0421200005F0A6F90296019504
:1007D0001D4B009309AB41220521200005F01EFDB1
:1007E0000521200005F098F902960195F8231B02D7
:1007F000009307AB55220521200005F00FFD0621CF
:10080000200005F089F902960195104B009305AB85
:1008100069220521200005F001FD0121200005F0DD
:100820007BF913B0C0BCB946B046F0BD60FC001007
:100830006CFC001074FC00107CFC001084FC0010A8
:100840008CFC0010FFFF0000FF070000E0FF00002D
:10085000F0B5D6464F464646C0B5B2B0FFF7D2FD1A
:10086000FFF7FAFD824905A8FFF776FD05A8FFF717
:1008700041FF804D0595804C0594804905A8FFF700
:100880006BFD05A8FFF736FF059505947C4801F040
:1008900085F904F02DFA7B4804F0EEF97A497B489B
:1008A00004F040FD0321002000F012F90321012093
:1008B00000F00EF900220121002000F021F90022B1
:1008C0000121012000F01CF9FFF7F0FD29A8FFF736
:1008D000B3FE23AA6E4B03CB03C21B88138020AA4E
:1008E0006C4B03CB03C21B7813701DAA6A4B03CB5E
:1008F00003C21B781370694B1A681B929A881BAB52
:100900009A80674B1A9319AB25221A806EE0FC235C
:100910001B029A46564F0021380005F0FDFD574C4A
:100920000021200005F0F8FD0121380005F0F4F861
:100930000121200005F0F0F802260296002501951D
:10094000F8231B029946009323AB0A2205213800A5
:1009500005F064FC02960195524B9846009320AB3B
:100960000A220521200005F059FC02960195534604
:10097000009316AB23220521380005F04FFC0296A8
:1009800001954346009313AB23220521200005F077
:1009900045FC0421380005F0BFF80421200005F0D3
:1009A000BBF802960195434600931BAB41220521FB
:1009B000380005F033FC029601954B4600931AABC4
:1009C00041220521200005F029FCFA24A400200082
:1009D00001F0E4F8200001F0E1F8200001F0DEF879
:1009E000200001F0DBF8200001F0D8F826AA27A9A2
:1009F00028A8FFF77BFD289C29A92000FFF7B7FD59
:100A0000804629AA21002798FFF7BAFD03F084FE4B
:100A1000254903F062FE03F0A1FE04000D00020070
:100A20000B00224804F058F9404603F075FE2049B7
:100A300003F053FE03F092FE06000F0002000B00CD
:100A40001C4804F049F922002B001B4913A802F0AE
:100A500061FF32003B00194916A802F05BFF4346D4
:100A60001D2B00DC53E7F8231B029A4652E7C046D1
:100A7000181D002048FD0010680D0110501D0020B9
:100A80008813000094FC0010A0860100781200205A
:100A900014FD001020FD00102CFD001038FD00108A
:100AA0006B506100FF07000000007A44DCFC00107E
:100AB0000000C842F4FC001004FD00100CFD001002
:100AC00010B502490120FFF71FFC10BDFFFF000019
:100AD00010B58300084A944663441C684022624073
:100AE000C02414408022520113431C60C000034BF9
:100AF0009C466044416010BD04C00140004001407C
:100B000080000B4B9C46604400290DD00823002A2E
:100B10000CD004221343026853400C22134080225D
:100B200052011043036070470023F0E70022F1E711
:100B300004C0014010B501238340D0221206936205
:100B400093610521FFF7C4FF10BD0000034B1B6834
:100B500002201840431E9841C0B2704700C00640B2
:100B6000EFF3108072B6034B1B68002BFBD0BFF372
:100B70005F8F70472C0100D0BFF35F8F024B0022C4
:100B80001A6080F3108870472C0100D0F8B5060079
:100B90000C001500FFF7E4FFE308F718F15C0722EB
:100BA0002240012393400B4205D1DBB20B433B7043
:100BB000FFF7E2FFF8BD2100280001F0FFFD000073
:100BC000002307E0054A9A189200BFF35F8F0021C7
:100BD000116001331F2BF5D97047C0464000003427
:100BE000054A1078431CDBB21370172B02D913008F
:100BF00010221A707047C046C0110020074B9B6836
:100C0000103080001950BFF35F8FBFF35F8F044B2C
:100C10000021196082F310887047C04600ED00E0A3
:100C2000240100D010B5091A081F0A4B9C466144E4
:100C3000094A914208D8C30706D440104005400D28
:100C4000064B184380B210BD054B064AA321064847
:100C500001F01AFDFC070000FE0F000000E0FFFF9E
:100C600098FD0010E4FF0010C8FD001010B5091A2F
:100C700004394C08090B08D14905490D064A1143AE
:100C80000180064B2343438010BD054B054AAB2131
:100C9000054801F0F9FCC04600F0FFFF00F8FFFF37
:100CA00000FE0010B8FF0010C8FD001001238340B3
:100CB000034A10681840431E9841C0B27047C046AE
:100CC00000E100E0002904D0034B1860034B1860DA
:100CD0007047034B1860FBE780E200E000E100E0B2
:100CE00080E100E010B5012383401800FFF7EAFF20
:100CF00010BD0000024B9B6810308000C058704748
:100D000000ED00E070B504000D00EFF3108672B640
:100D10000C4B1B68002BFBD0BFF35F8F2000FFF74D
:100D2000E9FF094B984201D0A84205D132002900C1
:100D30002000FFF763FF70BD044B054A862105487C
:100D400001F0A2FC240100D0CD01001010FE001023
:100D500000000110C8FD0010F0B5CE46474680B532
:100D600083B006000D00EFF3108872B6564B1B6877
:100D7000002BFBD0BFF35F8F544B9A6834001034C4
:100D8000A300D758524B9F4207D0AF4200D198E002
:100D90000197504BFB1A2F2B09D9424639003000DE
:100DA000FFF72CFF03B0C0BCB946B046F0BD300021
:100DB000FFF77CFF814600213000FFF793FFBFF370
:100DC0005F8FEFF30581002901D08C4211D10123FF
:100DD000019C9C430022A368AB4212D00622A2567B
:100DE000002A0DDB53009B189B002200394CE418AD
:100DF000F1E73621384B394AFF31394801F044FCDC
:100E00002200AB4256D106256557002D38DB6B001A
:100E10005B199A002F4B9B189A68A260DA79E271ED
:100E200006229A56A2719B795BB2002B0FDA2D48ED
:100E3000A0806B005B199B00264AD3182A4A1178C0
:100E40009971157049463000FFF74CFFA5E7201D4A
:100E50006B005B199B001F4A9B181A1D9B88D90ABF
:100E60001C2907D15B055B15023359005118FFF7A8
:100E7000D9FEDDE71D4B1E4AB121194801F004FCE3
:100E8000002912D1002A0ED0FF239371194B9380B1
:100E9000154A1378A371184B0E49641A64416343D1
:100EA0001B0D1370CEE70A4FF2E7201D1349FFF721
:100EB000DDFEC7E76A21124B084AFF31084801F0FE
:100EC000E3FB034F69E7C046240100D000ED00E0DA
:100ED000CD010010C411002024FF0010D0FF00102D
:100EE000C8FD001001BD0000BA1F00200CFF00105B
:100EF000F0FF001001BDFFFFAAAA0000FE110020B4
:100F000058FF001070B5012101432E4BCB1A2F2B37
:100F100028D8EFF30583002B2BD0EFF3108C72B69B
:100F2000294A1268002AFBD0BFF35F8F274A0400CA
:100F3000244D641B64416243120D54B2244A9268EA
:100F40009B00D2588A421BD00022032A32D8530079
:100F50009B189B001B49CB189B795BB2A3421FD007
:100F60000132F2E7C7211B4B1B4A49001B4801F025
:100F70008BFB92211A4B184AFF31184801F084FB71
:100F8000134A92681749D150174B1A7882711C7016
:100F9000BFF35F8F0C4B00221A608CF3108870BD7A
:100FA0000D005300991889006918FF268E710F4AA9
:100FB0008A80E9E7D1210E4B074A4900074801F032
:100FC00063FBC046C4110020240100D0AAAA00007F
:100FD00000ED00E060FF00109CFF0010C8FD001055
:100FE00088FF0010CD010010BA1F002001BDFFFFD7
:100FF00094FF00100022044B02E0044902C30132B6
:10100000072AFAD97047C04600E400E0808080805B
:10101000024B9C46614489000160704740000034E7
:1010200010B50400FFF7DCFD01002000FFF7F0FF22
:10103000FF232371BFF35F8F10BD10B50400FFF7CE
:10104000CFFD01002000FFF7E3FFFF232371002302
:101050006371BFF35F8F10BD70B505000C00080011
:1010600000F070FE0949200000F0B0FDFFF7B8FD68
:10107000074B9C466044800068602C75D0231B069B
:101080001B786B75A400034BE55070BD9D130010D9
:1010900040000034881D00200A4B1A68EFF31081CD
:1010A00072B61368002BFCD0BFF35F8F054B1B6833
:1010B000BFF35F8F00221A6081F3108840BF0020C9
:1010C000002170479C1F002010B5002922D0036822
:1010D0001B7B99421ED8174B9C46614409018368CB
:1010E0009C4661440C684968002A19D003681B7B40
:1010F0009A4215D883680F488446624412019A18B0
:1011000010685368020001208B4201D80ED00020E5
:10111000C0B210BD084B094A3C21094801F0B4FA9D
:10112000054B064A3C21064801F0AEFAA242EFD830
:10113000EDE7C046FFFFFF0F6801011074030110C7
:101140003801011010B500291ED0037B99421BD82D
:101150004B005B18033B0468A4466344002919D084
:10116000002A1DD0914221D0002A25D0047BA24222
:1011700022D804685000801803382018817019782C
:1011800000291FD11A7010BD104B114A6821114857
:1011900001F07AFA104B114A6F310E4801F074FADF
:1011A0000F4B0E4A70210B4801F06EFA0D4B0B4AA3
:1011B0007121084801F068FA044B054A6821054886
:1011C00001F062FA41701A70DDE7C0468C0101102F
:1011D000E0030110A8010110EC010110BC03011093
:1011E000F80101100402011070B506000D00140092
:1011F000002914D0002A14D080687368984700280A
:1012000006D0220029003000FFF79CFF280007E0ED
:101210002A0021003000FFF795FF200000E01000B9
:1012200070BD0800FCE70000F0B583B00500009237
:1012300001930AAB1C780BAB1F78002C26D00368F7
:101240005A7B944207D10123002B19D1002C3BD1AA
:10125000200003B0F0BD002C0CD01A7B944209D8BA
:101260001A6863001B19033BD3189B78002BEBD043
:101270000123E9E73E4B3F4A68213F4801F004FA69
:101280003E4B3F4A67213F4801F0FEF903689C7BD3
:10129000002CDBD012D01A7B94420FD862001219B6
:1012A000033A19688C46624451789973002900D139
:1012B000D9730023937053701370C7E72C4B2D4ADA
:1012C00068212D4801F0E0F9002C3AD02B681B7BF7
:1012D0009C4236D82C4BE3181B01AA689446634401
:1012E000009A1A60019A5A60089A9A60099ADA601C
:1012F0002E68002C2BD030D0337B9C422DD863003D
:101300001B19033B32689446634400229A705A705A
:101310001A70717B22003000FFF766FF7073844201
:1013200000D095E7287D009A019B00F097FC061EEF
:1013300001D0002F17D00C9B002B00D188E71E7026
:1013400086E7124B124A3C210E4801F09DF9114BE1
:10135000114AA521084801F097F9054B054A682173
:10136000054801F091F92868210000F0AFFEE2E79E
:101370008C010110E0030110A80101101C020110F2
:10138000EC03011038010110FFFFFF0F680101108D
:101390007403011034010110D0030110F0B5DE46D2
:1013A00057464E464546E0B58BB00990002308935A
:1013B0008200B54BD658370052E0B44BB44A3F21B7
:1013C000B44801F061F9B44BB44A3C21B44801F08F
:1013D0005BF9002901D1002869D10021404600F0C5
:1013E0006BFEA04219D12A686B6806920793AB681E
:1013F0009846EB689A464346002B14D0002C18D030
:101400003B681B7B9C4214D8631EFA68D35C08932C
:101410001B0218433861002015E0A24BA24A8E211E
:101420009F4801F031F9A14B9F4A92219C4801F05D
:101430002BF9994B9E4A4121994801F025F9002347
:101440009A46984600207B68BFF35F8F00221A609F
:1014500086F310884346002B32D1002800D10CE1DE
:1014600000F046FB02000B1EA7DB002000210690C7
:1014700007917868EFF3108672B601680029FCD0F6
:10148000BFF35F8F396888464C7B002CD7D09AD049
:10149000097B8C4297D8874965182D01B9688C461D
:1014A000654428686968801A9941002991DD2A6895
:1014B0006B68099800F0D2FB00239A469846C2E771
:1014C000089B1B022343994651461800C04705005C
:1014D0000E007A68EFF3108B72B6136859424B41D5
:1014E000D9B2002BF9D1BFF35F8F002E1EDB002E87
:1014F00046DD3B69002B47D04B456DD100F0F8FA33
:1015000002000B1E6EDB52197341002B70DB002BA7
:1015100072DB002104910131039102945146019143
:10152000414600913800FFF77FFE4CE03B69002BFD
:10153000DDD04B4514D1069A079B521BB341002BBB
:1015400014DB002B16DB002104910131039102947E
:1015500051460191414600913800FFF765FE32E0A7
:10156000554B514AA1214E4801F08EF801225242BA
:10157000524BE6E7454B464A3F21464801F084F886
:10158000002E01D1002DB4D13B68002C50D05A7BE5
:10159000944237D1012100294AD1DA7B002A4DD16A
:1015A0009A7B002A03D1DA7B002A5AD19C73DC7320
:1015B000002C5CD03B681B7B9C4258D8FA68013CED
:1015C000135D0133135500233B617A68BFF35F8FCE
:1015D00013608BF3108843E7374B334AA42130481C
:1015E00001F052F8294B2A4A3F212A4801F04CF8D1
:1015F00001225242314B8AE7244B254A3F2125489C
:1016000001F042F8002C0DD01A7B94420AD86200F7
:101610001219033A1868844662449278002ABAD0B4
:101620000121B8E7264B274A6821274801F02CF80A
:10163000264B274AF621244801F026F8002A0AD032
:10164000197B8A4207D851008A18033A19688C46D8
:1016500062445470A4E71A4B1A4A68211A4801F0F0
:1016600013F81C4B1A4AFB21174801F00DF80A4BDE
:101670000F4A41210A4801F007F80BB0F0BCBB4605
:10168000B246A946A046F0BD881D00206C0001109E
:10169000400301108800011068010110740301105B
:1016A0003801011044020110580301105C020110BE
:1016B00098030110FFFFFF0F68020110FFFFFF7F7B
:1016C0008C010110E0030110A8010110A402011017
:1016D000AC030110C802011010B50C4B5B68002B65
:1016E00004D00A210A48FFF793FC10BD074C2300E1
:1016F000084A1021206800F0EFFB032000F0ECF90D
:1017000003212000FFF7A8FCEBE7C0460C120020E5
:101710009C1F0020C910001010B5064B5B68002B01
:1017200001D0044810BD044B044A5E21044800F077
:10173000ABFFC0460C120020DC0201108003011038
:1017400038010110F0B5DE4657464E464546E0B535
:101750008BB0804616001F00149B9A46159B994635
:1017600016AB1B789B461F2302AA944663440022B3
:101770001A702BE0002809D042461268127B904272
:1017800004D8421E4146C9688A5C41E0404B414A48
:101790004121414800F078FF07984CE0361BAF41EB
:1017A000002F07DB002F11DA3C4B3D4A3F213D481B
:1017B00000F06AFF012676423B4FF3E7374B384A89
:1017C0003F21384800F060FF002F4FDB43465A6846
:1017D000EFF3108472B6136859424B41D9B20791A6
:1017E000002BF8D1BFF35F8F1F3302AA94466344E6
:1017F00004930023039302934B46019353460093B3
:1018000032003B004046FFF70FFD031EB2D102003D
:1018100041464968BFF35F8F00250D6084F310884F
:10182000002B29D01F2302A98C4663441B78002B70
:10183000B2D112021043002B20D05B46002B1DD0EA
:101840004946D04704000D0003000B431DD000297A
:10185000A4DB00F04DF906000F1EAFDB36196F4117
:10186000002FB1DA012676420F4FADE70B4B0C4A41
:101870003F210C4800F008FF012040420BB0F0BCB3
:10188000BB46B246A946A046F0BD0798F6E7C0465B
:101890006801011098030110380101106C0001105B
:1018A0004003011088000110FFFFFF7FF8B504001E
:1018B0004268EFF3108572B6136858424341D8B2BC
:1018C000002BF9D1BFF35F8FCBB22268567BB342B6
:1018D0001BD10120002848D0206988422BD0090A5A
:1018E000C9B2002B2ED02068007B83422AD8581E14
:1018F000E668305C88422BD000206368BFF35F8FBE
:1019000000221A6085F31088F8BD002B0DD0167BDD
:10191000B3420AD85E00F618033E1768BC46664418
:10192000B678002ED6D00120D4E7134B134A682195
:10193000134800F0A9FE9521124B134A49001348A1
:1019400000F0A2FE124B134A4121104800F09CFE09
:101950001900100000F0BAFB0028CED132210E4B46
:10196000094AFF31094800F08FFE23698B42C4D138
:1019700000232361C1E7C0468C010110E003011080
:10198000A801011000030110280301103801011003
:1019900068010110980301102403011070B584B090
:1019A00005000C00EFF30583002B1ED1FFF7B4FEFA
:1019B000002302930193224B00932A002300FFF798
:1019C000C1FE061E23DD20BFFFF7A6FE3100FFF794
:1019D0006DFF1C4B5B6A9C422DD81A4A926AAA4240
:1019E0002CD29C4225D0012026E0164B5B6A9942FE
:1019F00009D8144A926A824207D2994201D0012042
:101A00001AE0002018E0002016E0012014E00D4B41
:101A10005B6A9C4209D80B4A926AAA4207D29C424E
:101A200001D0012008E0002006E0002004E00120B1
:101A300002E0002000E0002004B070BD0120FBE7C0
:101A4000991000100040054070B5EFF30580103884
:101A5000EFF3108C72B61A4B1B68002BFBD0BFF350
:101A60005F8F01221300834016494B6316490B60B8
:101A7000164909780C00C440224214D0114A546A15
:101A80008200134D5259944206D38200114C1259D0
:101A900099430E4B197007E00A4A031D9B009958A1
:101AA0009950002200E00022BFF35F8F044B002119
:101AB00019608CF31088002A00D0904770BDC04692
:101AC000280100D0004005403C700540BB1F0020AD
:101AD000A01F0020881C002010B50100024A034806
:101AE000FFF754F810BDC04610040110B91F0020C4
:101AF000044B5B6A034A906A1900536A9942F9D110
:101B00007047C04600400540084B5B6A01E0074B48
:101B10005B6A8B42FBD301E0044B5B6A8B4203D1CF
:101B2000024B9B6A8342F7D37047C0460040054092
:101B300070B504000D00FFF7DBFF02000B00200072
:101B40002900801859418B4202D804D1824202D91F
:101B500001204042C117002902DBFFF7D5FF70BD0D
:101B6000024B034A3F21034800F08EFD6C00011038
:101B7000B00401108800011010B5002807DB064BE7
:101B80009A6A054B9B6A9B1A8342FAD310BD0021C7
:101B9000FFF7CEFFFAE7C0460040054010B50A4BFC
:101BA000984207D843011B1A9B001818C000FFF782
:101BB000E3FF10BDFA2292000023002102F066FD2F
:101BC000FFF7B6FFF5E7C0469BC4200070B50400E0
:101BD0000D00EFF3108672B61B4B1B68002BFBD079
:101BE000BFF35F8F002D1CD02000FFF783F8174B49
:101BF00083420BD019002000FFF784F80121200058
:101C0000FFF770F80123A340114A1360A400114BA1
:101C1000E550BFF35F8F0C4B00221A6086F31088EB
:101C200070BDA2000B4B0021D1500122A2400A49F5
:101C30000B7893430B7005492000FFF78DF80021C6
:101C40002000FFF74FF8E4E7280100D0491A001000
:101C500038600540881C0020BB1F0020F0B5DE4620
:101C600000B584B00400150001921E000293FFF736
:101C70003FFF03958E4202D84ED185424CD9EFF3F7
:101C8000108B72B6274B1B68002BFBD0BFF35F8F06
:101C9000254A17780125A540EBB23B431370234B2F
:101CA0005D63221D92000199D150A2002049029843
:101CB00050501B6A2B4212D11C4B1B6C2B4208D07C
:101CC0000020BFF35F8F174B00221A608BF3108840
:101CD00023E0184B184AC521184800F0D5FCFFF73F
:101CE00007FF8E4214D802D1039B834210D80E4BBB
:101CF0001B78BB420ED00D4B1D625D631F2004405C
:101D00000123A3400E4A1360074B1F701E38D8E70B
:101D10000020D6E70120D4E7012004B080BCBB46F8
:101D2000F0BDC046280100D0BB1F00200040054088
:101D3000A01F002034040110940401105804011065
:101D400080E200E0EFF3108C72B60B4B1B68002BA7
:101D5000FBD0BFF35F8F01238340084A1362084919
:101D60000A789A430A70BFF35F8F034B00221A6010
:101D70008CF310887047C046280100D00040054011
:101D8000BB1F002010B500291ED0037B99421BD831
:101D90004B005B18033B0468A4466344002919D038
:101DA000002A1DD0914221D0002A25D0047BA242D6
:101DB00022D80468500080180338201881701978E0
:101DC00000291FD11A7010BD104B114A682111480B
:101DD00000F05AFC104B114A6F310E4800F054FCD1
:101DE0000F4B0E4A70210B4800F04EFC0D4B0B4A76
:101DF0007121084800F048FC044B054A6821054859
:101E000000F042FC41701A70DDE7C0468C01011001
:101E1000B0050110A8010110EC0101109C05011092
:101E2000F80101100402011070B506000D00140045
:101E3000002914D0002A14D08068736898470028BD
:101E400006D0220029003000FFF79CFF280007E0A1
:101E50002A0021003000FFF795FF200000E010006D
:101E600070BD0800FCE7000010B500234373013388
:101E70008373037BC3730123027B9A4214D9002B23
:101E80000CD0027B934209D85A00D218033A016859
:101E90008C4662440133DBB25370EDE70B4B0C4AC6
:101EA00068210C4800F0F0FB002A09D0924207D8C4
:101EB000016853009A18033A8A180023537010BD22
:101EC000024B034A6821034800F0DEFB8C0101103D
:101ED000B0050110A801011010B5017342608360C4
:101EE000FFF7C2FF10BD000070B50400081E00D14E
:101EF00070BD002934D0237B994231D84B005B1848
:101F0000033B2268944663445A78002AF0D02DD0CF
:101F1000237B9A422AD853009B18033B21688C46A6
:101F200063445D7800215970002825D0237B9842B6
:101F300022D843001B18033B21688C4663440021D0
:101F4000597001002000FFF76FFF060029002000F4
:101F5000FFF7CAFF020031002000FFF765FFC7E767
:101F6000084B094A6821094800F08EFB054B064AD8
:101F70006821064800F088FB024B034A68210348A9
:101F800000F082FB8C010110B0050110A8010110C6
:101F900070B505000C00160000292FD034D0037B4B
:101FA000994231D84B005B18033B02689446634466
:101FB0005A78002A2ED19A78002A31D11978FFF761
:101FC00093FF0300002E0AD0EA7B002A2ED1AA7BC1
:101FD000002A03D1EA7B002A3BD1AC73EC73002BBF
:101FE0003DD1002C4FD02B7B9C424CD82B686100FC
:101FF0000C19033C1C190023637070BD254B264A45
:102000003821264800F040FB254B264A6821264807
:1020100000F03AFB254B204A3A21204800F034FBDF
:10202000234B1D4A3B211D4800F02EFB002A0AD0FD
:10203000297B8A4207D851008A18033A29688C46BE
:1020400062445470C3E7164B164A6821164800F0E4
:102050001BFB184B104A4221104800F015FB002BC7
:102060000BD02A7B934208D843001B18033B2A68F5
:102070009446634400229A70B3E7094B094A6821E9
:10208000094800F001FB064B064A6821064800F0AB
:10209000FBFAC046C804011088050110D0040110E5
:1020A0008C010110B0050110A801011004050110F8
:1020B0002C050110C802011070B504000A00457B10
:1020C0002900FFF765FF6073280070BD70B504003C
:1020D000002967D0437B8B420ED0002911D0037BAF
:1020E00099420ED84B005B18033B0268D0188378E6
:1020F000002B0CD1002056E00121FFF7DDFF01206D
:1021000051E0294B294A6821294800F0BDFA002BEB
:1021100020D0227B93421DD85A00D318033B22685B
:10212000D2182568EB5C8B421AD0002B1BD0227B87
:10213000934218D85A00D318033B2268D218537818
:102140008B4216D0002BF0D11A4B1B4A6B211B4837
:1021500000F09AFA144B154A6821154800F094FAD9
:102160004378137007E0104B104A6821104800F0C4
:102170008BFA437853700023837043700122200050
:10218000FFF706FF0200617B814205D02000FFF7C8
:102190004BFE6073012006E0094B074A7121074896
:1021A00000F072FA002070BD8C010110B005011022
:1021B000A801011094FF001070050110D004011057
:1021C0005005011070B504000D00062000F07EF9E6
:1021D000C000290001F01EFCC60908D00E4B9E422B
:1021E00017D87F23184001303500460800E001254C
:1021F0006562A6622C3480208001044300232360A2
:10220000062000F063F98000A901891901F002FCA1
:1022100070BD0026014DEBE7FEFF0000FFFF000050
:10222000002909D00A22064B9C466044434258418B
:102230004000044BC252704780225200F3E7C04670
:102240000080FCBFB01F002070B505000C00062008
:1022500000F03CF9002829D0164B9D4227D080225F
:10226000D203154B1A60154B1A60154B9B68110071
:102270009943FAD100212800FFF7D2FF210028005E
:10228000FFF7A0FF2C002C34E96A60224A406E213F
:10229000114080225201224311600A4B2B6380239C
:1022A0009B01234310221A600323AB6470BD80227C
:1022B0001204D6E70080034000E0004000F0004038
:1022C00000C0004001030000F8B5DE4657464E4608
:1022D0004546E0B505000F0092460A9A93424ED358
:1022E0001A0E91461E020A9A00233000494601F058
:1022F000CFFB80466C006419A4002F4B9C466444BD
:102300006368834200D260602B1FDBB29B46012BC7
:102310003BD9C0239B012343802212011A60AB00EA
:10232000264A9958002905D0506901F073FB013005
:102330000138FDD153465A0123685A40E0231A4020
:1023400080235B0123431A605A46012A28D980233F
:102350009B012343802212011A6043466360424678
:1023600000233000494601F093FBAD00134B585158
:102370000120F0BCBB46B246A946A046F8BD104BB2
:10238000104A2D21104800F07FF9012FC1D1C02340
:102390009B01234303221A60A368DB07FCD5C9E72E
:1023A0002168794003220A401A60A2680123BB40D9
:1023B0001342FAD0CBE7C04600800040A01C0020AA
:1023C000BC0501100C060110D005011030B583B01A
:1023D0000C2000F017F9FEF7B9FB00280DD0002300
:1023E00004E099002D4A2E4888500133092BF8D972
:1023F0002A4B2C4A5A6203B030BD2B4B00229A67FD
:1024000000F008F9294B01221A60274B5B6C012B65
:10241000FBD1274B03221A60234B9B6B012BFBD173
:10242000013300930433234A0121234800F054F878
:1024300005230093214A0121214800F04DF8214B4A
:102440000093002202210420FFF73EFF1E4D00955D
:102450002B00002201210520FFF736FF104C0094CD
:102460002300002200210720FFF72EFF0094230005
:10247000002200210820FFF727FF0A4B00932300CA
:10248000002200210920FFF71FFF00952B000022EA
:1024900000210620FFF718FFADE7C046A01C002072
:1024A000006CDC021BB70000008000403CB0004024
:1024B00030B00040002F685900800240008C8647F1
:1024C00000C00240001BB700405973078000014B59
:1024D000C0587047A01C0020F0B5C64600B50400E7
:1024E0000D00170098460C2001F094FA0600394BB5
:1024F000FA18394B9A4241D843011B1A9901C91A5B
:10250000C90009188901380001F084FA0200103A64
:1025100098235B009A4237D84346013B062B39D8B3
:10252000069B013B062B35D83F09B74238D34346BB
:102530001E04069B1A0316432368002B36DB274B29
:102540009C4244D080225201254B1A60254B1A60D0
:10255000254B9B6811009943FAD12560A060231D8B
:10256000C02292011A43212313602368002BFCDA56
:10257000E6600823136080BCB846F0BD1B4B1C4AC4
:1025800011211C4800F080F81B4B194A19211948E9
:1025900000F07AF8194B164A1C21164800F074F81E
:1025A000174B134A2321134800F06EF822683F238B
:1025B0001340AB42C3D1A3681B051B0D8342BED1A0
:1025C000E368EE22D2021340B342B8D1D3E78022AF
:1025D0009201B9E780E84BD380F8A93200C00240ED
:1025E00000E0004000F0004000C000401C06011068
:1025F000380701107C060110B4060110D006011046
:102600001C07011080239B000343014AD3627047DB
:1026100000800540064BAA2212011A602F22DA60C0
:10262000044B054A1A60024B5B68002BFBDA7047CB
:10263000004002400060024000B0FA0000BEFDE72A
:1026400003000A4A1268002A08D0084A1068C31812
:10265000074A9A4206D3054A13607047034A054960
:102660001160F2E701204042F7E7C046141D002048
:1026700000000420BC1F00200020704701204042C1
:10268000704710B5FFF7DAFF10B582B00C001900E3
:10269000002A0CD0084B002A0BD001920093230093
:1026A0000200064802F018FB0120FFF7C7FF044BA9
:1026B000F1E7034AF1E7C04644070110540701104F
:1026C000F0FC001070B52B4B2B4A1A602B4B2C4A98
:1026D0001A602C4B9A682A4B9343FAD12A4C01E09A
:1026E00008CC9847294B9C42FAD3FFF76FFE234B47
:1026F000274A1A60234B9B68DB43DB01FAD1254B49
:1027000040229A675A671A67DA66234C09E0234B1E
:10271000234A86212348FFF7B7FF2000FEF780FCFD
:102720000834214B9C4209D22368002BF5D0012BA1
:10273000EDD12000FEF781FC0834F2E71B4CA168C4
:102740001B4DC022280002F0F9F8A560EFF30583C5
:10275000002B00D000BEFEF733FAFEF74BFCFEF76D
:10276000BBFF144C01E008CC9847134B9C42FAD3B2
:1027700070BDC04600E00040BFCDFBFE00F0004051
:10278000FE7F3C0000C00040F01A0020001B00202B
:10279000FFFFFF0100F00140E81A0020840701104C
:1027A000F0070110A4070110F01A002000ED00E06E
:1027B00000000020001B00200C1B00200FB400B5FF
:1027C00083B0084802F058FA049B002B07D005A9F3
:1027D0000191180002F060FA034802F04DFA01205E
:1027E000FFF72CFFE0070110E41F01109A4200D20E
:1027F00088547047704710B5002802D00B684968AC
:10280000984710BD0100002007E083001B185B0003
:10281000501C08601078C01830380A681378303BB4
:10282000DBB2092BF1D97047F0B5DE4657464E466C
:102830004546E0B583B093461F000C9B9A460D9C1D
:102840000E9B99460F9B9B0703D0B8460F000600CE
:1028500022E00192A34688464E46B9460700B4429C
:1028600007D2551C4B4641462020B84701342A0068
:10287000F5E73D004F465C46019B9B46B146464608
:10288000B84637002E0007E0013C551C5346185D42
:1028900043463900B0472A00002CF5D135003E00F0
:1028A00047460F9B9B0707D4100003B0F0BCBB4604
:1028B000B246A946A046F0BDB0464E46B9462F00E6
:1028C0005D46531BB342EFD2541C4B464146202079
:1028D000B8472200F5E7F0B5CE46474680B585B04B
:1028E000944698460C9D0D9C0EAB1B789946109A09
:1028F000119B129EB7071CD4002B0CD0F7070AD5EA
:102900004F46002F02D10C37374204D0013B02E082
:1029100030272F550134944201D21F2CF8D9F707E4
:1029200007D59C4205D21F2C03D830272F550134E0
:10293000F5E7F70615D5770505D4002C03D09442AA
:1029400024D09C4222D00F9A102A2BD00F9A102A02
:1029500030D00F9A022A35D01F2C02D830222A55A7
:1029600001341F2C05D84A46002A31D02D222A5581
:102970000134039602930194009543466246FFF7A3
:1029800053FF05B0C0BCB946B046F0BD621E012C75
:1029900006D00F9F102F01D01400D4E7023CD2E7DD
:1029A0001400D0E7B206D1D41F2CCFD878222A55F4
:1029B0000134D1E7B206CCD51F2CCAD858222A55EB
:1029C0000134C9E71F2CC7D860322A550134C3E748
:1029D000720703D52B222A550134CAE73207C8D51E
:1029E00020222A550134C4E7F0B5DE4657464E464C
:1029F0004546E0B593B081468A46089209931CABE0
:102A000010CB1B789B461E9D219B9846002C03D122
:102A1000102342469A4390468023DB0046461E40E0
:102A200042461A4212D0002C22D000260EE030334B
:102A3000D9B2771C0AAB99552900200000F0EAFFB3
:102A4000AC4216D31F2F14D83E00040029002000EA
:102A500000F0E0FFCBB2092BE9D94246920605D53A
:102A60004121C918C9B20A39C9B2E2E76121F8E7C0
:102A7000270043460693209B05931F9B04930395D1
:102A80005B46029301970AAB0093099B089A514653
:102A90004846FFF720FF13B0F0BCBB46B246A9463C
:102AA000A046F0BDF0B5DE4657464E464546E0B579
:102AB00095B0089009910A920B931E9E1F9C20AB23
:102AC0001B789B46229B9946239D269B9A46330062
:102AD000234303D1103352469A4392468023DB00AE
:102AE00057461F4052461A4219D0330023432DD077
:102AF000002714E03033DAB27B1C98460CABDA5571
:102B00004A462B003000210000F0C2FFA5421FD82A
:102B100019D043461F2B1BD8474606000C004A46D7
:102B20002B003000210000F0B3FFD3B2092BE1D914
:102B30005246920605D54122D218D2B20A3AD2B2F2
:102B4000DAE76122F8E7B145E3D901E000239846CE
:102B500053460693259B0593249B04934B4603936E
:102B60005B460293434601930CAB00930B9B0A9A7E
:102B700009990898FFF7AFFE15B0F0BCBB46B24606
:102B8000A946A046F0BD0000F0B5DE4657464E46C9
:102B90004546E0B591B083468A460C9298461A9C09
:102BA00008941B9D099522002B002000290001F0AC
:102BB000FAF9002800D0E5E001225242D74B20006C
:102BC000290001F0EBF9002800D0DBE0012252429D
:102BD000D34B2000290001F0CBF9002800D0D1E030
:102BE00000220023089E3000099D290001F0C0F951
:102BF000002800D0DDE0089809990690079180230D
:102C0000DB001E9A1A400D921E9A1A4201D1062329
:102C10001C930698079904000D000A000600024361
:102C200000D1D1E0080D4005400DBE4CA4466044E3
:102C30000A03120BBC4B13431F0001F0C7F9BB4A38
:102C4000BB4B01F052F9BB4ABB4B01F027F9040022
:102C50000D000022B94B3000390001F016F9B84AD6
:102C6000B84B01F042F902000B002000290001F0EE
:102C700015F901F0C3F9814601F0A8F904000D002F
:102C8000B14AB24B01F031F90022B14B01F006F923
:102C900001F0B4F90600AF4AAF4B2000290001F063
:102CA00024F904000D00300001F090F9AB4AAC4B60
:102CB00001F01BF902000B002000290001F0E5F8EB
:102CC00004000D0002000B0001F00FF90A900B91B7
:102CD000A44BF31800261F0522002B00200029001A
:102CE00001F0DCF80E900F9122002B0000208021D3
:102CF000C90501F0CAF804000D0000229A4B0A9899
:102D00000B9901F0D4F80022984B01F0C7F80200AB
:102D10000B000A980B9901F0CAF80022944B01F0BD
:102D2000BDF802000B000A980B9901F0C0F80200F0
:102D30000B002000290001F0B1F802000B000E98F2
:102D40000F9901F0B4F80022774B01F0A7F8320098
:102D50003B0001F0CAF806000F0004000D00069ABF
:102D6000079B01F01BF9002830D001235B429C46F1
:102D7000E14400227D4B3000390001F098F8040056
:102D80000D0023E01E9B04931D9B03931C9B029349
:102D9000089A099B0092019343460C9A5146584663
:102DA00000F0FCF811B0F0BCBB46B246A946A04604
:102DB000F0BD0023002406930794069680231B068B
:102DC0009C46654407951AE7002399464B466333B2
:102DD000C62B1ED804261E9B1B0526D52B0023437D
:102DE0000FD0644A644B0698079901F0CFF8002889
:102DF00079D00022614B0698079901F0B9F80028B4
:102E000071D01C9B4B4506DD4A46981A431E1C9305
:102E100003E00526DFE700231C938023DB001E9AD6
:102E20001A431E920026002399461D9B9E4264D29F
:102E30009F1B02231E9A1A400A921E9A134202D026
:102E4000002E00D000274B46002B07D022002B007D
:102E50000698079901F02BF80690079100220023AD
:102E60000898099901F084F8002848D1444B1E9A2B
:102E70001340049303971C9B0293069B079C0093AB
:102E8000019443460C9A5146584600F087F8002EAC
:102E900000D187E71E9B9B063DD54525441C434634
:102EA000020051462800D8474B46DA179B1853407A
:102EB00005220592013E0496002203920A320292F4
:102EC0004A46D00F0190009343462200514658468F
:102ED000FFF78AFD0A9B002B00D163E702005F46E3
:102EE0000C9E1D9D54E01C9B002B9ED00D9B002B27
:102EF0009BD01C9B013B1C9397E7002799E7069CFE
:102F0000079D2200290080200006844661440B00B2
:102F100006920793AAE76525C0E7C046FFFFEF7F4B
:102F2000FFFFEFFF01FCFFFF0000F03FFB799F5028
:102F30001344D33FB3C8608B288AC63F0000F83FD4
:102F400061436F63A787D23F71A379094F930A400A
:102F50000000E03F1655B5BBB16B0240EF39FAFEF9
:102F6000422EE63FFF03000000002C4000002440FA
:102F7000000018402D431CEBE2361A3F80842E419E
:102F8000FFF7FFFF541C434651462020B84722005C
:102F9000931BAB42F6D3100004E7C046F0B5DE4603
:102FA00057464E464546E0B595B006900791934684
:102FB0009946209F1E9A1F9B1000190000F0F3FFF6
:102FC000002831D101225242BF4B1E981F9900F0B8
:102FD000CFFF002837D101225242BC4B1E981F99C7
:102FE00000F0DCFF00283DD10022B94B1E981F994C
:102FF00000F0D4FF002850D10022B64B1E981F9934
:1030000000F0B6FF002848D1002200231E981F9927
:1030100000F0AEFF002850D100239846229B5B05AC
:1030200000D4B6E0002458E0229B0393219B029336
:1030300003230193A84B00934B465A4607990698E1
:10304000FFF7F2FB0EE1229B0393219B02930423E3
:103050000193A24B00934B465A4607990698FFF7F7
:10306000E3FBFFE00423229A1A4022990B4210D07E
:103070009B4B002A0FD0042222990391219902919F
:10308000019200934B465A4607990698FFF7CCFBEE
:10309000E8E0944BEDE70322EEE7229B0493219BAB
:1030A000039302971E9B1F9C009301944B465A4624
:1030B00007990698FFF768FDD4E01E9A1F9B002031
:1030C000002100F0E2FE1E901F9101239846A5E723
:1030D0000CAB30221A55013F01341F2C01D8092FA7
:1030E000F6D81E981F9900F089FF050000F06EFFCA
:1030F00002000B001E981F9900F0C7FEFA007A4BE1
:103100009B181A685B680A920B9300F0EEFE089019
:10311000099100F097FF060000F054FF02000B0039
:103120000898099900F0B1FE0890099100226F4BB0
:1031300000F034FF00282ED00136300000F042FFAE
:1031400002000B000A980B9900F018FF002801D02C
:1031500001350026002F2CD1280000F037FF020097
:103160000B001E981F9900F090FE06000F00002231
:103170005E4B00F0FDFE002846D100225B4B300084
:10318000390000F00BFF00283ED1EB073CD501359C
:103190003AE0062746E70022544B0898099900F0C8
:1031A000E7FE0028D6D1002E01D0F307D2D5013694
:1031B000D0E7AA461F2C11D8013F0A21300000F0A9
:1031C00029FC651C30310CAB19550A21300000F088
:1031D00021FC092E0ED906002C00EBE755461F2CCA
:1031E0000CD87B1E002F09D00CAA302111551F00CE
:1031F0000134F4E72B0055461C00F0E71F2C03D8E0
:103200000CAB2E221A5501341F2C10D80A2128008D
:1032100000F0D8FB661C30310CAB19550A21280090
:1032200000F0D0FB051E01D03400EDE7340003238D
:10323000229A1340012B1CD01F2C06D84346002B8A
:1032400032D00CAB2D221A550134229B0393219BC3
:10325000029301940CAB00934B465A46079906988B
:10326000FFF7E2FA15B0F0BCBB46B246A946A0464D
:10327000F0BD219B002B13D04346002B02D10C3311
:1032800013420FD0219B013B2193190003E00CABAB
:1032900030221A5501348C42CED21F2CF7D9CBE7FD
:1032A0002199F8E72199F6E7229B5B0704D50CAB3F
:1032B0002B221A550134C8E7229B1B07C5D50CAB3E
:1032C00020221A550134C0E7FFFFEFFFFFFFEF7F19
:1032D00065CDCD4165CDCDC10C08011010080110A0
:1032E0000408011000080110F80901100000E03F77
:1032F000F0B5DE4657464E464546E0B593B08246A9
:103300008B4690461193002900D1EBE200275546E9
:10331000119B1878002800D1E7E2252809D07C1CF1
:1033200043463A005946A847119B013311932700A1
:10333000EEE7013311930024119A11780B00203B22
:10334000D8B2102803D88300D048C3589F460B003A
:10335000303BDBB2092B2CD92A292FD000230A932A
:10336000119B1A782E2A39D000239A46119A137885
:10337000683BD9B2122976D88B00C549CB589F46F5
:1033800001231C4301321192D6E702231C43013270
:103390001192D1E704231C4301321192CCE7082398
:1033A0001C4301321192C7E710231C4301321192D2
:1033B000C2E711A8FFF726FA0A90D1E71C9B1A1D55
:1033C0001C921868002804DB0A90119B01331193AA
:1033D000C6E702231C4343420A93F6E78022D20049
:1033E00014435A1C11925A781300303BDBB2092B5C
:1033F00004D92A2A07D000239A46B7E711A8FFF775
:1034000001FA8246B2E71C9B1A1D1C92186800281C
:1034100004DB8246119B01331193A7E70020F8E7F4
:1034200080235B002343511C119152786C2A01D0F8
:103430001C0018E0C0239B001C430131119112E0D5
:1034400080232343511C11915278682A01D01C001B
:1034500009E0C0231C430131119104E080235B008B
:103460001C4301321192119B18780300253BDAB2FC
:10347000532A00D92CE29300864AD3589F468023D2
:103480009B001C4301321192EDE780235B001C433B
:1034900001321192E7E7782809D0582838D06F28F0
:1034A00038D0622838D010239C430A2600E010262A
:1034B000582833D0692803D0642801D00C229443C3
:1034C000630501D50122944369282AD0642828D0B5
:1034D000A30500D59FE0E30500D5B8E0630600D45E
:1034E000CAE01C9A111D1C911168FF220A40059424
:1034F0000A9B049353460393029600230193009280
:1035000043463A0059462800FFF76EFA070027E0C5
:103510001026CDE70826CBE70226C9E72022144370
:10352000C8E7A30520D4E30550D4630666D51C9AEA
:10353000111D1C911168FF220A40D317D118594060
:1035400005940A9B0493534603930296D20F01926B
:10355000009143463A0059462800FFF745FA070014
:10356000119B01331193D3E61C9BDA1D07218A437B
:10357000110008311C91116853689C46DB170C93AD
:103580000D930C9A0D9B100048400E9062465340DC
:103590000F930E980F990C9A0D9B801A99410E90DB
:1035A0000F9108940A9B07935346069304960023B1
:1035B00005936346DA0F02920090019143463A0068
:1035C00059462800FFF76EFA0700C9E71C9A111D3B
:1035D0001C911268D317D118594005940A9B049383
:1035E000534603930296D20F0192009143463A004C
:1035F00059462800FFF7F8F90700B1E7230605D57B
:103600001C9A111D1C910023D25E96E71C9A111D75
:103610001C91126891E71C9BDA1D07218A43110057
:1036200008311C9108940A9B07935346069304960D
:103630000023059302931368546800930194434652
:103640003A0059462800FFF72DFA070088E71C9A30
:10365000111D1C9105940A9B0493534603930296F3
:10366000002301931368009343463A00594628000B
:10367000FFF7BAF9070073E723060DD51C9A111D51
:103680001C9112681204120C31E7C0461808011090
:103690005C080110A80801101C9A111D1C911268E9
:1036A00025E746281AD01C9B0733072293431A00AC
:1036B00008321C9204940A9A0392524602925C6861
:1036C0001B680093019443463A0059462800FFF7CF
:1036D00065FC0700119B0133119319E620231C435D
:1036E000E1E7672801D0472802D180231B011C4352
:1036F000452801D0472801D120231C431C9B0733B8
:10370000072293431A0008321C9204940A9A0392E7
:10371000524602925C681B680093019443463A004B
:1037200059462800FFF730FA0700119B0133119327
:10373000EEE502231A002240924623421FD00124C4
:103740001C9B1A1D1C927A1C9146187843463A001D
:103750005946A8475346002B16D1119B01331193AC
:103760004F46D5E5561C434659462020B84723000E
:1037700032005C1C9D42F5D83D001700E0E70123B4
:103780003A002F000A9DF4E74A46A9460A9D06E042
:10379000571C434659462020C84734003A00661C4F
:1037A000A542F5D84D469146D7E71C9B1A1D1C92A1
:1037B0001B6899465346002B00D1013B4E4601E061
:1037C000013613003278002A02D05A1E002BF7D19E
:1037D0004B46F21A10928023DB0026001E401C424A
:1037E00003D0524501D95346109302231A002240B8
:1037F0000B92234205D03A0037004C46A946554665
:1038000020E03A00109B5F46B3462E0006E0551CB0
:10381000434639002020B04723002A005C1C0A9947
:103820009942F4D835005E46BB46109437004C46AA
:10383000A946554606E01D000134561C434659462C
:10384000C84732002078002804D0002FF4D06B1E27
:10385000002DF0D117004D460B9B002B03D1119B7F
:103860000133119354E50A9F109B06E0561C434612
:1038700059462020A847230032005C1C9F42F5D8FF
:103880001700ECE721231C431C9B1A1D1C921B688C
:103890000093059408230493534603931023029343
:1038A0000023019343463A0059462800FFF79CF84D
:1038B0000700119B013311932AE57C1C43463A0013
:1038C00059462520A847119B0133119327001FE576
:1038D0007C1C43463A005946A847119B013311937B
:1038E000270015E50A4B9A4610E5AA46474502D33C
:1038F00043465A1E00E03A00434659460020D0474E
:10390000380013B0F0BCBB46B246A946A046F0BD95
:10391000F52700100EB410B585B0010007AC08CC37
:1039200003940122009452420348FFF7E1FC05B0E2
:1039300010BC08BC03B01847ED27001000B585B0D7
:10394000029003910121009313004A4202A9024808
:10395000FFF7CEFC05B000BDF72700100148042199
:10396000014B1847401200208D39001010B501009E
:1039700018231B8814221088984710BD10B5010029
:1039800018231B8816221088984710BDF0B5C6462C
:1039900000B507000E0000250123984600E0013520
:1039A000B5420AD2AC003C192068FFF7DFFF206067
:1039B0000028F4D100239846F1E7404680BCB84681
:1039C000F0BD0000124A936F9B0815D29066D16635
:1039D000002905D0FFE7FFE7FFE7516F106F704741
:1039E00004B580210906C2175140002800D0C84301
:1039F0000CF0E6F8002104BDF0B5146E556E576F5B
:103A0000166FFFF7E3FF1466556657671667F0BD3C
:103A1000000000D0114A936F9B0813D210665166C4
:103A2000002905D0FFE7FFE7FFE7516F106F7047F0
:103A300004B5002801D00020C0430CF0C1F80021DB
:103A400004BDC046F0B5146E556E576F166FFFF784
:103A5000E5FF1466556657671667F0BD000000D095
:103A600094464A4A926F9208624601D228E0C046C4
:103A7000F0B5464E346E756E776F366F00F020F8F5
:103A80009446424A14665566576716676246F0BD0B
:103A900094463E4A926F9208624601D254E0C04674
:103AA000F0B53A4E346E756E776F366F00F04CF8A5
:103AB0009446364A14665566576716676246F0BDE7
:103AC000002B24DB11D000293EDA00B5C943404267
:103AD00000D1013100F038F8C943404200D1013132
:103AE000DB43524200D1013300BD002AEBD1002854
:103AF00001D1002905D00020C90FC90701D1C04359
:103B0000410800B50CF034F80022002300BD00B5D8
:103B100000290ADBDB43524200D1013300F014F8E4
:103B2000C943404200D1013100BDC943404200D1E8
:103B30000131DB43524200D1013300F005F8DB4391
:103B4000524200D1013300BD002923D1002B18D1EE
:103B5000002A0CD0BC460D4F38667A66002100233F
:103B6000FFE7FFE7FFE77A6F386F67467047002887
:103B700001D00748010000B50BF0FAFF0022002336
:103B800000BD02000B00002000217047000000D0A3
:103B9000FFFFFFFF002B00D0BFE0130C28D1002A4D
:103BA000E7D080B4114F39667A66FFE7FFE730B49B
:103BB000040C7B6F396F1B0423433B667A66FFE777
:103BC000FFE7FFE7C04684B27B6F3D6F1B042343D2
:103BD0003B667A66FFE7FFE7C04600232C042D0C06
:103BE0007A6F386F00196941B0BC7047000000D08F
:103BF000F0B594460025140E01D112020835140FB9
:103C000001D112010435940F01D192000235D40F75
:103C100001D152000135D40B0134254F7C66254C6F
:103C20003C660E0C93B2FFE7FFE7FFE73C6F66438D
:103C3000360C7703BE467343DF0B5B04C01AB941F1
:103C4000130C7343DB18C91ACE086643360CB6440E
:103C500093B273431F0F1B01C01AB941130C734376
:103C60001F0B1B05C01AB941860D8F023E436643E8
:103C7000360C092D24DB520A7243801A7703460A58
:103C80006643360C16235B1BDE40DF40BF196446DB
:103C90006643821B7046043506330100D940A840B4
:103CA000C01900D30131A24206D20023F0BD0000AA
:103CB000000000D0FFFFFFFF121B0130F3D3F1E73C
:103CC00009277F1BFE406446A2B27243801A00D2CD
:103CD0000139220C7243130C1204821A99410B0011
:103CE0007046043513370100F940A840801900D30D
:103CF0000131002B02D1A2420AD2F0BD013000D323
:103D00000131121BFAD2013BF8D1A24200D2F0BD20
:103D1000013000D30131121BF7E7F0B51C0C00D0C5
:103D200080E00CB400251C0A04D11B02160E33439C
:103D3000120208351C0B04D11B01160F334312016C
:103D400004359C0B04D19B00960F3343920002353F
:103D5000DC0B02D192185B4101351C0097186441BD
:103D60000134464F7C66464C3C660E0CFFE7FFE78D
:103D7000FFE7C0463C6F6643360C7703BE4697B2FA
:103D80007743C01B00D20139C01B00D201399FB25A
:103D90007743C91BC91B170C77437E04FF0B801B9D
:103DA000B941CE086643360C0C2D33DBB644120BFA
:103DB0001F053A431B0B97B27743C01B00D2013952
:103DC0009FB27743C91B170C77433E043F0C801BFF
:103DD000B941860D8F023E43664329277F1BFE4073
:103DE0000C3D7746AF40BF1930BCA2B2ABB27243B4
:103DF0007343801A9941220C7243130C1204801AE7
:103E0000994102000B000137001BA941F9D2781E2D
:103E10000021F0BD0C277F1BFE4077467F0BAF4093
:103E2000FF19E0E700245D1C07D0144F7D6639665A
:103E3000FFE7FFE7FFE7FFE73C6F95B29EB2654300
:103E40006643401BB141150C1E0C654366433604A6
:103E50002F0C3E432D04401BB141994204D2020075
:103E60000B0020000021F0BD01D19042F7D3801A51
:103E7000994101349942F2D3F6E70000000000D0E6
:103E8000FFFFFFFF48404140484018B41B4B5B68B0
:103E9000FC46019308BD04DF5F41001018B4174BC6
:103EA0001B68FC46019308BD00DF69410010944681
:103EB000134A926F920809D2624618B40F4BDB681E
:103EC000FC46019308BD0CDF214400100C4AF0B5FC
:103ED000146E556E576F166F6246FFF7EEFF084A75
:103EE0001466556657671667F0BD18B4034B9B6898
:103EF000FC46019308BD08DFC5420010981D002054
:103F0000000000D0FFB550404240504059404B4067
:103F1000594000E0FFB5154F4C00640D03D0BC4282
:103F200004D10C0314D80020090D09055C00640DB0
:103F300003D0BC4204D11C030AD800221B0D1B0570
:103F400001264B4009D44B4003D58B4200D182421D
:103F5000FFBD9942FCD19042FFBD0B43DB180343E8
:103F60001343F5D0C9434918FFBD0000FF07000007
:103F700000B5FFF7CFFF804100BDC04600B5FFF799
:103F8000C9FF01D9002000BD012000BD00B5FFF729
:103F9000B9FF01D9002000BD012000BD00B5FFF729
:103FA000B1FF804100BD012040054A00121804D82D
:103FB0005A00121801D800207047012070470020D5
:103FC000704700000021002805D17047C117484004
:103FD000401AFAD0C90713B5064B1B6898470CBCAA
:103FE000441CA2401005120B0349091B0905194383
:103FF000114310BD981E00201F04000010B54C0096
:10400000620D8023D218DB00D21A5B057E2A10DDF8
:104010009E3A13DACC170903490819435242D1409A
:10402000640001341532202A05DAD0400843604389
:1040300010BD002010BD0846604310BDC80FC01859
:10404000013810BD18B4044B5B6AFC46019308BDEF
:1040500024DFD14500100000981D002070B5132307
:104060001C78012C14D0012C14DC022C02DC1F4A19
:104070001F4B9A641F48FFF779FC1F4B186070BDF7
:1040800099001A481A4A885001331F2BF8D9EAE7D9
:104090000023FAE71948FFF771FC05001848FFF7FD
:1040A0006DFC023803789B007F2B19DD80222900EC
:1040B0000F4800F043FC022CD7D1124B1A88B523CD
:1040C0001B029A4209D1104B1A88104B9A4204D114
:1040D0000F4B1A880F4B9A42C7D00020FEF76EFB99
:1040E0000D4B0E4A32210E48FEF7CEFA2541001044
:1040F000981D00204C330000981E002053440000FF
:104100005346000054380000D838000049460000EB
:104110009C38000059460000480A0110EC0A0110C2
:10412000A80A011007B56046002800D100BE01882A
:104130000A0A0230DF2AFAD1C9B2820804D30288FF
:1041400040880004104300E00068024A5050039089
:1041500007BD0000981D00200FB403BC0CBCF0B5D7
:104160000124E407634000E0F0B50C0DCF0F661E9C
:104170003605891B640503D3C943404200D301318E
:10418000640D03D0661CF60A07D0E41B00207F00F4
:10419000791C89078912803C24031D0DDF0F6E1ED8
:1041A00036059B1B6D0503D3DB43524200D301331D
:1041B0006D0D03D06E1CF60A07D0ED1B00227F00A8
:1041C0007B1C9B079B12803D2D032F1B661B58D425
:1041D000A446202E46DA20371400BC401D00BD4006
:1041E000F24033412A4380185941CB0F05D0C943CF
:1041F000C043002264425041514162464D0D28D1D6
:104200000D0D07D100281FD0241940414941013A22
:104210000D0DF9D0640006D3013000D30131002C1C
:1042200001D140084000013A0BD4941CE40A04D1A7
:1042300012051144DB071944F0BDD907204B19437F
:1042400000E0D9070020F0BD0029DDD1002CDBD132
:10425000F0BD0132C6074008CD0728434908002EAB
:10426000E1D0D9E73C2E29DA203E40371400BC408B
:1042700000D00124F24014431A00BB401C43D31762
:10428000ACE7AC46202F08DA20360400B4400D001D
:10429000B540F84039412843A5E73C2F0CDA203FD0
:1042A00040360400B44000D00124F8400443080024
:1042B000B1400C43C117EAE710001900002494E74D
:1042C0000000F07FF0B50C0D661E3605891BE60A6E
:1042D0006405640D02D0651CED0A04D000200121A4
:1042E0000905803C2403A4461C0D671E3F05DB1B0B
:1042F000E70A6405640D02D0651CED0A04D00022B3
:1043000001231B05803C24037740644497B484B2A6
:1043100096B27443070C7E43150C6F4380B268431A
:10432000361802D3012000043F183004350C001960
:104330007D41844688B29AB250430C0C62431F0CF4
:104340007C438EB27E43921902D301263604A4190F
:104350001604170C3618674101BC81B29AB251435A
:10436000040C62431B0C5C4380B25843121802D306
:104370000120000424181004130C401863412D1868
:104380005E410020474106BC88B293B258430C0CF2
:104390006343120C544389B251435B1802D3012189
:1043A0000904641819041A0C091862416D18564161
:1043B0000020474118BCF902720D1143F0026A0D4A
:1043C0001043ED020A0D03D16D1940414941013BF3
:1043D000124E9B1B7600B3420ED26D0007D3013004
:1043E000002671416646354301D1400840001B0557
:1043F000C918E4072144F0BD0BDA013306D10130BE
:1044000004D101314F0D01D04908F2E7E107002046
:10441000F0BD013631050020EBE70000FF0300008E
:10442000F0B51C0D671E3F05DB1BE70A6405640D34
:1044300002D0661CF60A04D0002201231B05803C32
:104440002403D0252D060026F6432E661E096E662F
:10445000CE0FF619B44649004F0D02D07E1CF60A65
:1044600003D000200021403F3F033E1BB600B44470
:10447000013F7F05C91B49082E6F013676089C0253
:10448000950D25437543ED137543AD1301356D103F
:10449000F603761B0CB4CC02450D2C43A2B2B3B28A
:1044A0005A43270C7B43350C6F43A4B26C431B1952
:1044B00002D3012424043F191C041D0CA4187D41BF
:1044C00024196D41009A91B2ACB26143170C7C4340
:1044D0002B0C5F4392B25A43A41802D30122120458
:1044E000BF182204230C52187B41019C6C431B19FA
:1044F000520ED9010A434401A01A81B2B2B251430B
:1045000003145A43360C734387B27743D617D21934
:1045100000277E4136049B191704160C7F185E4154
:104520007316ED18F301002680337541A90F06D1EB
:104530006400690AE8055B0A184309D22FE00422E7
:10454000944480337541A90AA8059B0A184326D3D1
:10455000404149412404009A019B0D005543641BCE
:104560004343E41A95B286B27543170C7E43030C9D
:104570005F4392B25A43B61802D301221204BF1805
:104580003204330C52197B4152429C41002C02D41C
:104590000022013051414008CA071043490802B0C7
:1045A0006246D7079210084BD218084B9A4203D2A2
:1045B00012058918C919F0BD0020002A01DC390054
:1045C000F0BD01331905F5E7FD030000FE0700000B
:1045D000002200B5203200F004F8080000BD000001
:1045E00000220B150AD410B5944600F031F81414CB
:1045F000013400DA0021CB17144C204700200021A1
:1046000070476244343A0CD40C2A07DA0400914013
:10461000904052422032D440214310BDD843D94368
:1046200010BD203207D40C46944052422032114132
:10463000D040204310BD0800C917203203D4524295
:104640002032104110BD1800190010BD03460010A3
:104650000A0DCC0F531E1B05C91A520503D3C943BB
:10466000404200D30131520D03D0531CDB0A07D066
:10467000121B00206400611C89078912803A120312
:10468000014BD21A70470000FF030000514343431F
:10469000C9188C46110C83B24B4310B4040C61430F
:1046A00092B280B2504362431C041B0C001910BC30
:1046B00059411304120CC018514161447047000065
:1046C00048404140484000239C46114B5B681847D6
:1046D00000239C460E4B1B6818470E4A936F9B089D
:1046E00004D200239C460A4BDB681847F0B5146ED1
:1046F000556E576F166FFFF7F4FF064A146655663E
:1047000057671667F0BD00239C46014B9B6818470E
:104710009C1E0020000000D0C10FC90700D54042F8
:10472000002817D0F44603B40B4B1B68984706BC0F
:1047300081409E384042803107D20B0607D04900A5
:10474000490AC0051043084360470130F8E7490AA9
:104750008902F5E770470000981E0020034BDB6FCD
:10476000FC4618477CDFA148001000009C1E00207A
:1047700070B513231D782A48FFF700F90400012DB6
:1047800011D0012D09DDA31E1B789B007F2B40DD7E
:1047900080222100234800F0D1F82348FFF7E6F8F3
:1047A000224B186070BD542201001E4800F0C6F86C
:1047B0001F4B1A881F4B9A421CD1A7239B011A88B2
:1047C0001D4B9A4216D11D4B1A881D4B9A4211D18E
:1047D0001C4B1A8894239B019A420BD11A4B1A88BE
:1047E0001A4B9A4206D11A4B1A681A4B9A4201D1B7
:1047F000152307E01848FDF7E1FF99001748094A1B
:10480000885001331F2BF8D9144A064B1A62DA611B
:10481000B7E7134B134A42211348FDF735FFC04653
:10482000534600009C1E00204C330000981E0020C0
:10483000EE290000C40F0000C20D0000962B0000FE
:10484000C0B50000182B0000CC2A000010B50000F5
:10485000FC2C000051ED8764F0FC00106D48001046
:10486000000B0110740B0110340B011007B56046EA
:10487000002800D100BE01880A0A0230DF2AFAD1DE
:10488000C9B2820804D3028840880004104300E0C3
:104890000068024A5050039007BD00009C1E002093
:1048A000C30FDB0741000A0E07D0FF2A08D0090911
:1048B000054A8918194340077047190000207047BE
:1048C0000249C918FAE70000000000380000F07F34
:1048D00010B5040009F056FD002804D00419034B5C
:1048E0009C4200D810BD0248FDF768FF000004207C
:1048F000880B011010B50C000AF018F9002804D03C
:104900000419034B9C4200D810BD0248FDF756FF26
:1049100000000420880B011010B509F03DFD10BD0A
:1049200001480421014B1847501200208D39001016
:10493000014B1B681847000050120020014B5B68B8
:10494000184700005012002010B5FFF7E5FF10BD1A
:1049500010B50300080011001B68984710BD000047
:10496000F8B507000D001600437D002B02D000248F
:1049700000200CE003681100280098472DE03B7DE3
:1049800010E0022115483B689847601C0134B4428E
:1049900014DA002CF3DD2B19013B1B780D3B5A4236
:1049A0005341DBB22A5D0A2AF0D1002BEED1A0429E
:1049B000E7DA211A28183B689847E2E7B04203DAA1
:1049C000311A28183B689847002E06DDAD19013DC5
:1049D0002B780D3B5A4253413B75F8BD180C011022
:1049E00070B505000368002B16D00C4B1C6805E061
:1049F000290004C92000FFF7B3FF2469002C09D067
:104A00002368002BF9D0064B1B68002BF0D0A34283
:104A1000F3D1EDE700232B6070BDC046081D0020D8
:104A2000101D002070B505000C000B68802B05D010
:104A300021684B1C23606418257170BD0800FFF7C6
:104A4000CFFFF5E7F0B583B007000E0000920193A9
:104A500028E0A368002B04D03100380098470028D4
:104A600027DC2469002C06D0134B1D68002DF0D0E4
:104A7000A542F6D1EDE70099019A104B5B6A9A4284
:104A800009D80E48806A88420FD29A4201D0012389
:104A900002E0002300E00023002B08D101200021C8
:104AA000FDF746F8064B1C68DCE70123F4E701201C
:104AB000404203B0F0BDC046101D0020004005403C
:104AC000081D002010B5FDF713F802000B1E0BDBCC
:104AD0000D48002112184B41002B0BDB002B0DDB86
:104AE0000A480BF095F810BD094B0A4A3F210A48C5
:104AF000FDF7CAFD01225242084BEFE7044B054A7D
:104B00003F210548FDF7C0FD40420F00E81A002094
:104B10006C000110000C011088000110FFFFFF7FE6
:104B200010B502480BF01CF810BDC046E81A002072
:104B3000F0B5CE46474680B583B006000D009046DE
:104B40001C00FFF7BFFF81466B1C05D0002C08D06E
:104B5000194F1A4B1C6807E030000AF03BFA0500B9
:104B6000F4E7174FF5E72469002C17D02368002BD2
:104B7000F9D0144B1B68002B01D0A342F3D12A00BB
:104B800031002000B8474346002BECD06B46D91DBE
:104B90000A230B7001222000B847E4E74B46002BA4
:104BA00007D16B1E9D41E8B203B0C0BCB946B04608
:104BB000F0BDFFF7B5FFF4E751490010081D0020D4
:104BC00061490010101D002010B5030008001100FD
:104BD000002B05D1044B1A685B68FFF733FF10BD4B
:104BE00001204042FBE7C0460804011010B5030055
:104BF00008001400013B012B06D8002300222100ED
:104C0000FFF796FF200010BD01204042FBE7012086
:104C100040427047012040427047012040427047A7
:104C20000300002002229A4240417047094A01E0F5
:104C300010331A001368002B08D08342F8D10029E2
:104C400007D1036913600023036102E0002900D04B
:104C500010607047081D002010B5064B1C6801E06D
:104C600098472469002C03D06368002BF8D1F8E73B
:104C700010BDC046081D002070B505000AF0AAF955
:104C800004000023012201002800FFF751FFFFF775
:104C9000E3FF200070BD000070B5A2B004000E005C
:104CA000FFF710FF0500002301933300220001A944
:104CB0000848FEF743FE040001A8FFF791FEFFF746
:104CC000CBFF002D02D1200022B070BDFFF728FFDE
:104CD000F9E7C046254A00100FB400B583B004A917
:104CE00001C90191FFF7D8FF03B008BC04B0184711
:104CF00010B500F0F9F8012010BD0000F0B583B048
:104D000005000E0000240FE06B46D91D0D230B702B
:104D10000020002816D193699B06FCD40B78136001
:104D200001300131F5E70134B44219DA0D4B1A684C
:104D30002F5D0D4BD31859424B415B000B495B5E15
:104D4000BB42E1D06B46D91D0F7000200028EAD18C
:104D500093699B06FCD40B78136001300131F5E7B1
:104D600003B0F0BDB41F00200080FCBFB01F0020C6
:104D7000F0B583B006000F00002504E06B46073352
:104D80001B782B702500BD4215DA174B1A68936902
:104D90001024210019401C420DD16C1C75196B4662
:104DA000D81D0029EAD19369DB06FCD4136803708F
:104DB00001310130F5E70D4B1B68002B0CD00A4B7D
:104DC0001A685023936311003431536B38221A4010
:104DD00080235B010B431A60002D02D0280003B032
:104DE000F0BD033DFAE7C046B41F0020981C002028
:104DF00010B5064B1B68002B06D0054A126800212F
:104E00009163044A1068984710BDC046981C002062
:104E1000B41F00209C1C002070B504000E001C4B29
:104E20001B681C4A98184242504114300500002C5F
:104E300003D0194A1268002A06D0002C19D0164B4C
:104E40001C60164B1E6070BD1549FBF75BFF01210E
:104E50002800FBF747FF0E4B1A685023936311009D
:104E60003431536B38221A4080235B010B431A60A4
:104E7000E5E7094A1268002AE1D000229A6300217E
:104E80002800FBF72FFF06492800FBF765FFD6E750
:104E9000B41F00200080FCBF981C00209C1C002038
:104EA000F14D001070B50D001C000D4B1860002A6C
:104EB0000BDA002C0EDA0A4B18682900FDF7C4F94A
:104EC00001210848FFF7B2FE70BD02211000FBF778
:104ED000FFFDEEE702212000FBF7FAFDEBE7C046FD
:104EE000B41F00206012002010B5064B1B78064B43
:104EF0001B78E1210123002249020448FFF7D2FF79
:104F000010BDC046643E0110683E011000400340E1
:104F1000F0B5D646474680B583B08246884606201F
:104F2000FDF7D4FA0700022400E02C00FE2C1CD868
:104F300001970026A51C2802424600230021FFF706
:104F4000A5FB002903D1B142EFD1B842EDD98025AC
:104F50006D00012D0CD96E1E210071433800FEF743
:104F600059FD404504D83500F3E780256D00F0E792
:104F700053461C616B1E1B02524612685340FF22AF
:104F80001202134080204001524610430360290062
:104F900061433800FEF73EFD03B0C0BCBA46B046E0
:104FA000F0BD000010B50400144B984222D08022BE
:104FB0009202134B1A60134B1A60134B9B6810003C
:104FC0009843FAD12000FFF7A3FF2268072353403C
:104FD000CF221A4080235B0123431A60220024322F
:104FE00080239B011A430321116004341C430223D4
:104FF000236010BD80225202DBE7C04600C00340A0
:1050000000E0004000F0004000C00040F0B5DE4687
:1050100057464E464546E0B585B0060010001C00D8
:1050200002930EAB1A7803920F9D109F33680022F3
:10503000DA663368596033680132DA66A2460023C3
:1050400098469B4600242BE03279002A31D0012279
:105050002FE00399002901D000212EE001212CE04E
:105060003800A84703000443E4B2002B06D132689D
:10507000526BD20602D4002DF2D1F6E7002B09D1F3
:105080003268802151588B4600291FD1002C2FD126
:10509000C1451ED0002C33D101229446E044019832
:1050A000D0452DDA029A013A91464246002ACBD0E9
:1050B00000229202C145CCD0002149020A43411C82
:1050C00001910078316802430A61D4E7526D0124EE
:1050D0000EE0039A002ADDD10AE03800A847030059
:1050E0000443E4B2002B06D13268526B920502D41D
:1050F000002DF2D1F6E7002BCCD13268126EC9E751
:10510000002C09D0002B15D15B46002B16D0DB07F5
:1051100018D45B461B0709D5039B3371404605B085
:10512000F0BCBB46B246A946A046F0BD02235B4296
:105130009846F1E701235B429846EDE702235B4284
:105140009846E9E702235B429846E5E7F0B5DE467C
:1051500057464E464546E0B583B0050091469A460F
:105160000CAB1B7801930D9E0E9F03680022DA663C
:105170000368596003680132DA66D3460023984613
:1051800000242AE02979002933D0012131E0019857
:10519000002801D0002030E001202EE03800B04788
:1051A00003000443E4B2002C0DD12A68926F002A58
:1051B00009D12A6880215158546D621E9441E4B28D
:1051C000002EEBD1EFE7002C1ED12A681269494668
:1051D0000A7001229446E044E144D84514DA52466C
:1051E000541E2A68516F1029FBD041460029C9D0AE
:1051F000002189024445CAD0002040020843802192
:10520000490001431161D4E7002C04D0002B0CD0DD
:1052100001235B429846019B2B71404603B0F0BCD2
:10522000BB46B246A946A046F0BD02235B42984663
:10523000F1E70000F0B5D6464F464646C0B505003A
:105240000C000520FDF742F90600600880192100D6
:10525000FEF7E0FB070043009946814405214846DC
:10526000FEF7D8FB80463B1A9A46284B9C4224D82E
:10527000700080192649FEF7CDFB441C4346023BD3
:10528000A34221D32B680022DA6629680A68042326
:10529000534006221A4080235B010B431A602B689F
:1052A0005246DA612B6842461A624B464F2B11D99F
:1052B00050214846FEF7AEFB0DE0700080191549FD
:1052C000FEF7A8FB441CD9E7134B144A5F2114488E
:1052D000FDF7DAF90120A0232A68D0502A681100CE
:1052E0007C31D06F44402404240C80235B010B43A9
:1052F0001C602B680122DA6639003000FEF78AFB59
:10530000E0BCBA46B146A846F0BDC0463F420F00D9
:105310008096980040787D015C0C0110B40C01105F
:105320007C0C011010B5114B98421CD01022104B70
:105330001A60104B1A60104B9B6814009C43231E8C
:10534000F9D104710268D46602686624FF341460DF
:105350000268D36302689363883303220468E250CF
:10536000FFF768FF10BD0822E1E7C0467812002071
:1053700000E0004000F0004000C0004030B585B0C3
:1053800008AC25780024029401940095FFF73EFEB6
:1053900005B030BD30B585B008AC25780024029446
:1053A00001940095FFF7D2FE05B030BD10B50400A2
:1053B00000F096FB034B236034230022E2542000CC
:1053C00010BDC04648FD001010B50400028E530108
:1053D0009B1A99008918C900C06AFFF7E3FD2823CA
:1053E000E0560121FBF774FB2723E0560121FBF770
:1053F0006FFBE06A026807215140CF220A408023F8
:105400005B0103431A6010BDF8B505002527C3579B
:10541000012422009A40D02636067262C357220029
:105420009A4072610A20FCF7B9FBEB5722009A40C0
:10543000B2610A20FCF7B2FBEB579C4074610A2072
:10544000FCF7ACFBF8BDF0B5C64600B5040006A8F5
:105450000025455707A8007840B22826A055013EF0
:10546000B046A5552527E155033EA255262563558F
:10547000FBF760FB4346E056FBF75CFBE057FBF7AE
:1054800059FBA057FBF756FB6057FBF753FB80BC5B
:10549000B846F0BD10B504002A2100F0C0FB002181
:1054A000200000F0D1FB0221200000F0CDFB002104
:1054B000200000F0C9FB8121200000F0C5FB2B215A
:1054C000200000F0ACFB0021200000F0BDFB01211A
:1054D000200000F0B9FB0021200000F0B5FBA02166
:1054E000200000F0B1FB10BDF0B58BB0040006AE9B
:1054F000674B320023CB23C21B68136002AD654BA0
:105500002A0083CB83C21B681360634B0193634BF8
:1055100000930121200000F082FB3220FCF73EFBCB
:105520001121200000F07BFBFA277F003800FCF7F8
:1055300035FB3A21200000F072FB0521200000F02D
:1055400083FB0A20FCF72AFBB121200000F067FB57
:105550000021200000F078FB0621200000F074FB01
:105560000321200000F070FB0A20FCF717FB362116
:10557000200000F054FB0821200000F065FBB6215C
:10558000200000F04CFB1521200000F05DFB022103
:10559000200000F059FBB421200000F040FB002166
:1055A000200000F051FBC021200000F038FB022158
:1055B000200000F049FB7021200000F045FB0A208C
:1055C000FCF7ECFAC121200000F029FB05212000A6
:1055D00000F03AFBC221200000F021FB0121200055
:1055E00000F032FB0221200000F02EFBC52120003C
:1055F00000F015FB3C21200000F026FB38212000A4
:1056000000F022FB0A20FCF7C9FAFC21200000F080
:1056100006FB1121200000F017FB1521200000F0EF
:1056200013FBE021200000F0FAFA102231002000E4
:1056300000F0EDFEE121200000F0F1FA1022290037
:10564000200000F0E4FE0A20FCF7A8FA2A2120003E
:1056500000F0E5FA042201A9200000F0D8FE2B2179
:10566000200000F0DCFA04226946200000F0CFFEA2
:105670001321200000F0D3FA0A20FCF78FFA292129
:10568000200000F0CCFA3800FCF788FA0BB0F0BD2F
:10569000C80C0110DC0C011000020881000108A0F8
:1056A00070B50400FFF7B0FE2421625601231800F4
:1056B0009040D022120690616156180088405062D6
:1056C000262160561D008540556161568B4053620E
:1056D0002923E35C002B1AD127202256013319001D
:1056E0009140D02212069161282165561E00AE40DD
:1056F000966120561D008540556261568B4053626D
:105700002000FFF7F1FE33230322E25470BD200096
:10571000FFF75AFEF4E7000030B585B004004A4BAD
:105720001A8869468A819B788B7301AD474B1A684A
:1057300001929B88AB80464B1A880A809B788B70BD
:10574000012100F06CFA9620FCF728FA11212000C4
:1057500000F065FAFA204000FCF720FAB1212000A1
:1057600000F05DFA032203A9200000F050FEB221F0
:10577000200000F054FA032203A9200000F047FEA5
:10578000B321200000F04BFA06222900200000F08F
:105790003EFEB421200000F042FA0721200000F074
:1057A00053FAC021200000F03AFA03226946200093
:1057B00000F02DFEC121200000F031FAC5212000AB
:1057C00000F042FAC221200000F029FA0A2120004C
:1057D00000F03AFA0021200000F036FAC321200040
:1057E00000F01DFA8A21200000F02EFA2A21200064
:1057F00000F02AFAC421200000F011FA8A212000CA
:1058000000F022FAEE21200000F01EFAC52120004F
:1058100000F005FA0E21200000F016FA20212000E9
:1058200000F0FDF93621200000F0F9F9C821200030
:1058300000F00AFA3A21200000F0F1F905212000D9
:1058400000F002FA05B030BDF00C0110F40C0110AC
:10585000FC0C011010B582B00400FE23DB0501939F
:105860009F231B0600932A2100F0D9F9042201A9E5
:10587000200000F0CCFD2B21200000F0D0F9042204
:105880006946200000F0C3FD02B010BDF0B589B03C
:10589000040004AE174B32001900A1C9A1C2096867
:1058A00011606D4610332A0083CB83C21B681360DE
:1058B000E021200000F0B3F910223100200000F0B8
:1058C000A6FDE121200000F0AAF910222900200005
:1058D00000F09DFD1321200000F0A1F90A20FCF743
:1058E0005DF92921200000F09AF96420FCF756F9AF
:1058F00009B0F0BD000D011070B50400FFF784FD84
:1059000024216256012318009040D0221206906193
:105910006156180088405062262160561D0085405F
:10592000556161568B4053622923E35C002B20D1E3
:1059300027202256013319009140D022120691618E
:10594000282165561E00AE40966120561D008540F8
:10595000556261568B4053622000FFF7DDFE200048
:10596000FFF798FD2000FFF791FF33230122E25457
:1059700070BD2000FFF728FDEEE770B50400FFF7CB
:1059800043FD24216256012318009040D0221206C4
:1059900090616156180088405062262160561D00B3
:1059A0008540556161568B4053622923E35C002B8F
:1059B00020D127202256013319009140D02212060F
:1059C0009161282165561E00AE40966120561D004B
:1059D0008540556261568B4053622000FFF79CFE64
:1059E0002000FFF737FF2000FFF750FF332300228E
:1059F000E25470BD2000FFF7E7FCEEE770B504004D
:105A0000FFF702FD24216256012318009040D022A6
:105A10001206906161561800884050622621605637
:105A20001D008540556161568B4053622923E35C1C
:105A3000002B28D127202256013319009140D02273
:105A400012069161282165561E00AE4096612056CF
:105A50001D008540556261568B4053622000FFF760
:105A60005BFE2000FFF7F6FE2000FFF70FFF362158
:105A7000200000F0D4F8C021200000F0E5F8332326
:105A80000222E25470BD2000FFF79EFCE6E710B54D
:105A900002AC2488017642768176C2768383C48301
:105AA0000384448410BD10B502290FD006D8002904
:105AB00009D0012909D1FFF71FFF06E0032904D10E
:105AC000FFF7EEFD01E0FFF758FF10BDFFF796FF6F
:105AD000FBE7C262018629230122C25470470000FD
