:020000041000EA
:1000000000B5324B212058609868022188439860DF
:10001000D860186158612E4B002199600221596106
:100020000121F02299502B49196001219960352056
:1000300000F044F80222904214D00621196600F024
:1000400034F8196E01211966002018661A6600F04E
:100050002CF8196E196E196E052000F02FF8012189
:100060000842F9D1002199601B49196000215960AB
:100070001A491B48016001219960EB211966A021F2
:10008000196600F012F800219960164914480160C1
:100090000121996001BC002800D000471248134993
:1000A000086003C880F30888084703B5996A0420EC
:1000B0000142FBD001200142F8D103BD02B5186610
:1000C0001866FFF7F2FF186E186E02BD00000240BE
:1000D000000000180000070000035F00212200005C
:1000E000F4000018222000A00001001008ED00E03C
:1000F00000000000000000000000000074B24E7A12
:1001000000200420F7010010C3010010C5010010F9
:10011000C1010010C1010010C1010010C101001097
:10012000C1010010C1010010C1010010C701001081
:10013000C1010010C1010010C9010010CB01001065
:10014000CD010010CD010010CD010010CD01001037
:10015000CD010010CD010010CD010010CD01001027
:10016000CD010010CD010010CD010010CD01001017
:10017000CD010010CD010010CD010010CD01001007
:10018000CD010010CD010010CD010010CD010010F7
:10019000CD010010CD010010CD010010CD010010E7
:1001A000CD010010CD010010CD010010CD010010D7
:1001B000CD010010CD010010CD010010CD010010C7
:1001C00000BE00BE00BE00BE00BE00BEEFF3058054
:1001D000103800BEF2EB8871F84F01101450011076
:1001E0003402001090A31AE700201F49086006C8D7
:1001F00081F3088810471D48006800282FD10DA4FE
:100200000ECC002902D000F012F8F9E71849194A7B
:10021000002000E001C19142FCD1174988471749ED
:1002200088471749884700BEFDE701C901C29A42C5
:10023000FBD3704714500110C0000020EC1A0020BE
:10024000406A01100000042000000420406A0110F0
:10025000001004200010042000000000704709482E
:1002600004F010F80047000008ED00E0000000D0A6
:10027000F01A0020581F0020DD2F0010B1140010CC
:100280009B2F00105756000006005250ABB360532E
:10029000F81D011006005250861C0302081E0110B2
:1002A000060052505422A29D141E01100500525007
:1002B000DE65F468406A0110F8B5C04610B5064C1A
:1002C0002378002B07D1054B002B02D0044800E017
:1002D00000BF0123237010BDF01B002000000000B0
:1002E000F00D0110044B10B5002B03D00349044856
:1002F00000E000BF10BDC04600000000F41B00205D
:10030000F00D01100020704770B504000D000128A9
:1003100005D0002C02D1084B9D4207D070BD064B82
:100320009942F6D1054805F067F9F2E7034B044A14
:100330001A60044A1A60F1E7FFFF0000F01C002079
:10034000041001101C1F011010B582B0FA208000AB
:1003500002F032F9FA210F4C0F4A4901200005F052
:100360002DFE13230193013B0093103B0322112127
:10037000200005F08EF9A0230093203B00220021ED
:10038000200005F0F9FD0021200005F001FE02B07B
:1003900010BDC046F01C002000C00340F0B5CE46A2
:1003A000474680B593B00FAF4E4B3A0003CB03C224
:1003B0001B8813800DAB99464B4B4A4603CB03C2B7
:1003C0000BAB9846494B424603CB03C2484B1A68D5
:1003D00009929A8869460A859B796A462A215218A9
:1003E0001370444B1A6807929A8869460A849B796D
:1003F0006A462221521813703F4B1A6805929A8858
:1004000069460A839B798B763C4C0021200006F0DC
:10041000C5FF0121200005F0F3FD0226029600250C
:100420000195374B00933B0005220521200006F083
:100430004DFC0221200005F0E3FD02960195FC230E
:10044000DB0000934B4619220521200006F03EFCFC
:100450000321200005F0D4FD029601951F2300938F
:1004600043462D220521200006F030FC0421200007
:1004700005F0C6FD02960195224B009309AB41227F
:100480000521200006F022FC0521200005F0B8FD22
:1004900002960195F8231B02009307AB5522052114
:1004A000200006F013FC0621200005F0A9FD0296AD
:1004B0000195154B009305AB69220521200006F03C
:1004C00005FC124802F078F80021200006F066FFD3
:1004D0000121200005F094FD13B0C0BCB946B04620
:1004E000F0BDC046F00D0110FC0D0110040E01100E
:1004F0000C0E0110140E01101C0E0110F01C002037
:10050000FFFF0000FF070000E0FF0000881300006D
:10051000F0B5DE4657464E464546E0B59DB01AABAF
:100520006F4A11681A9192889A8018AA93466D4A68
:1005300011681891127959460A716B4A179215AAD7
:1005400092466A4A11681591928851468A8013AA88
:100550009146674A11681391127949460A7111AAA6
:100560009046644A414611CA11C1634A11680F910D
:10057000918868464024001901809279694642209A
:1005800009180A705D4A11680D91127969460A3896
:1005900009180A705A4A0C925A4A11680A919288AC
:1005A00069468A8507AF584A390011CA11C110003F
:1005B00012880A8082788A70544A1168059191885D
:1005C0006846018392798276514C01260296002575
:1005D0000195504A00920A220521200006F076FB80
:1005E000029601951F2300935B46192205212000E6
:1005F00006F06CFB02960195F8231B02009317ABE3
:1006000028220521200006F061FB02960195FC23BB
:10061000DB000093534637220521200006F056FBED
:10062000029601953C4B00934B4646220521200043
:1006300006F04CFB02960195384B00934346552239
:100640000521200006F042FB02960195344B0093F1
:100650000FAB0A223721200006F038FB02960195E5
:10066000304B00930DAB19223721200006F02EFBF2
:10067000029601952C4B00930CAB282237212000C9
:1006800006F024FB02960195284B00930AAB372213
:100690003721200006F01AFB02960195E0235B004B
:1006A00000933B0046223721200006F00FFB029604
:1006B0000195FC231B02009305AB55223721200036
:1006C00006F004FB1A4801F077FF0021200006F035
:1006D00065FE1DB0F0BCBB46B246A946A046F0BDC3
:1006E000240E01102C0E011052454400340E01104E
:1006F0003C0E0110440E01104C0E0110540E01105E
:1007000054414E005C0E0110640E0110700E011079
:10071000F01C0020FFFF0000FF0700001FF8000092
:10072000E0FF0000D19C000001ED0000016200002C
:100730008813000070B584B000250524052601E06B
:100740000135EDB27D2D14D80123029300230193CE
:10075000FC23DB0000932B00320021001B4806F035
:10076000E9F90A34E4B2642CEAD90A36F6B2002474
:10077000E6E7174801F020FF0021144806F00EFEBE
:100780007F250524052601E00135EDB2FD2D14D8A5
:100790000123029300230193FC23DB0000932B0031
:1007A00032002100094806F0C5F90A34E4B2642C8D
:1007B000EAD90A36F6B20024E6E7054801F0FCFE65
:1007C0000021024806F0EAFD04B070BDF01C0020D4
:1007D0008813000070B588B0184C0321200005F084
:1007E0000FFC174A174906A803F020FD03260296BE
:1007F000002501951F23009306AB0522052120004B
:1008000006F064FA0022104B104904A803F00EFD14
:1008100002960195F8231B02009304AB41220521A7
:10082000200006F053FAFA20C00001F0C5FE0021B6
:10083000200006F0B3FD08B070BDC046F01C0020DB
:10084000A3030000780E0110FB2109407C0E01106B
:1008500030B583B0594C0121200006F0AEFD0A22CC
:100860000A21200006F0A6FD0121200005F0C8FBAA
:100870005349200006F0BDFD0221200005F0C0FB19
:100880000A223221200006F095FD0A224D4920005F
:1008900006F023FE0221200006F08FFD4A4DF821CC
:1008A0002A000902200006F08DFD01951423009313
:1008B000643319220521200006F016FD19220521B6
:1008C000200006F077FD0321200005F099FB0A22A5
:1008D0003E49200006F001FE19224121200006F0C9
:1008E00069FD0421200005F08BFB01230093384AA9
:1008F000384B200006F0D2FE37220A21200006F0F5
:1009000059FD0721200005F07BFB02250095324AA6
:10091000324B200006F0C2FE5F220A21200006F0C2
:1009200049FD00222E49200006F04CFD0821200040
:1009300005F066FB00952B4A2B4B200006F0AEFE1F
:100940002A4D280001F038FE0021200006F026FD87
:100950000621200005F054FB05220521200006F0A9
:1009600029FD0A222F21200006F0B7FD19220521BA
:10097000200006F01FFD02222F21200006F0ADFD11
:100980002D220521200006F015FD08222F21200030
:1009900006F0A3FD41220521200006F00BFD1022E8
:1009A0002F21200006F099FD280001F005FE00210E
:1009B000200006F0F3FC03B030BDC046F01C002060
:1009C000840E0110DB040000E0FF000014FEFFFFB6
:1009D0004C37894160650940A4703D0AD7A3144093
:1009E000FFFF0000B81E85EB51385340881300000C
:1009F000F0B5C64600B586B004AB9846234B1A68DE
:100A000004929B884246938002AE214B1A68029260
:100A10009B88B3801F4C0721200005F0F1FA0027C6
:100A20000197F8252D020095362300220021200091
:100A300005F052FE0195184B0093434628220021F1
:100A4000200005F0B3FE0821200005F0D9FA019737
:100A5000124B009337234B220021200005F03CFE6F
:100A60000195FC23DB000093330064220021200069
:100A700005F09CFE0A4801F09FFD0021200006F0D1
:100A80008DFC06B080BCB846F0BDC0468C0E01108F
:100A9000940E0110F01C0020E0FF0000FFFF00009A
:100AA0008813000070B586B01E4C0121200005F0AF
:100AB000A7FA04AB1C4A1168049192889A8002221A
:100AC000029200260196194D009503320021200064
:100AD00006F0FCF8032302930196009530331922A7
:100AE0000021200006F026F80423029301960095C9
:100AF000303337220021200006F01CF80523029332
:100B000001960095303355220021200006F012F89E
:100B1000FA20C00001F050FD0021200006F03EFC4C
:100B200006B070BDF01C00209C0E0110FFFF0000FD
:100B300030B583B01C4D1D4C2B00052255212000E3
:100B400005F04AFB2B0007225721200005F044FB4B
:100B50002B0009225921200005F03EFBF8231B023F
:100B600001931E2300930A220A21200005F0CEFCE7
:100B7000FC23DB000093282328222821200005F0F5
:100B80004CFE0B4B009328233C223C21200006F016
:100B900096F9FA20C00001F00FFD0021200006F0B8
:100BA000FDFB03B030BDC046FFFF0000F01C00207D
:100BB000E0FF000030B585B01F4CF8231B02019305
:100BC00014250095142305220521200006F0BBF909
:100BD0001A4B01930095142305222D21200006F0C5
:100BE00083FBFC23DB000193009514230522552190
:100BF000200005F02CFF124B0293052301931E35B4
:100C000000952D333C220F21200006F0CFF90D4B2B
:100C100002930A230193009528333C2246212000A9
:100C200005F03CFFFA20C00001F0C6FC00212000C6
:100C300006F0B4FB05B030BDF01C0020E0FF000062
:100C4000FF070000FFFF000010B582B0094CFC2335
:100C5000DB0000930F2314222821200005F0D9FA8D
:100C6000054B00930F2314225021200005F0CEFEE7
:100C700002B010BDF01C0020E0FF000010B584B0F1
:100C8000134C144B0393502302930F330193373BC0
:100C900000930A3350220521200005F09FFCF82321
:100CA0001B0203937823029307330193253B0093A0
:100CB0000A3378223721200006F00CFAFA20C0000F
:100CC00001F07AFC0021200006F068FB04B010BDA2
:100CD000F01C0020FF07000070B588B005AA224B69
:100CE00013CB13C20024092C12D8A300E3185A0016
:100CF0000332D2B201230293002301931B4B0093D2
:100D000005AB00211A4805F0E1FF0134E4B2EAE73F
:100D1000012300220021164804F0DFFF00260325EE
:100D200005E0FA20800001F047FC0136F6B2092EFA
:100D30000ED80024092CF4D829000D4805F034F809
:100D40000135EDB2052001F037FC0134E4B2F1E7E2
:100D5000074C0021200005F037F80021200006F0A4
:100D60001DFB08B070BDC046A40E0110FFFF0000BF
:100D7000F01C0020F0B5CE46474680B589B005ADE1
:100D80002D4B2A0003CB03C219001B8813808B78DC
:100D900093702A4C2A4B0293082301933C26009619
:100DA00046330A221921200005F078FEF8231B02A1
:100DB00003932823984602935A27019700960233FB
:100DC00014222A21200006F085F902230293002331
:100DD0000193FC23DB00994600932B005022052150
:100DE000200005F073FFFA25AD00280001F0E4FBB8
:100DF0001F23039343460293019700960233142264
:100E00002A21200006F066F9280001F0D5FB4B46A8
:100E100003934346029301970096023314222A213A
:100E2000200006F057F9280001F0C6FB09B0C0BC4D
:100E3000B946B046F0BDC046B00E0110F01C00200F
:100E4000FFFF0000F0B5DE4657464E464546E0B58A
:100E500091B00DAB98464C4B424603CB03C21B7876
:100E600013700AAF494B3A0003CB03C21B881380AF
:100E700007AE474B320003CB03C219001B88138017
:100E80008B78937004AD434B2A0003CB03C2190047
:100E90001B8813808B7893703F4C0021200006F054
:100EA0007DFA0021200005F00CF801239B460293F7
:100EB00000239A460193FC23DB00994600934346A6
:100EC00014221421200005F001FFFA23DB009846CC
:100ED000180001F071FB0021200006F05FFA0121EB
:100EE000200004F0EEFF5B460293534601934B460D
:100EF00000933B0014221421200005F0E7FE404639
:100F000001F05AFB0021200006F048FA02212000DF
:100F100004F0D7FF5B460293534601934B46009380
:100F2000330014221421200005F0D0FE404601F0C9
:100F300043FB0021200006F031FA0321200004F0D9
:100F4000C0FF5B460293534601934B4600932B0030
:100F500014221421200005F0B9FE404601F02CFBBC
:100F60000021200004F0ADFF0021200004F02CFF40
:100F70000021200006F012FA11B0F0BCBB46B246C8
:100F8000A946A046F0BDC046BC0E0110C80E011017
:100F9000D40E0110E00E0110F01C002030B589B015
:100FA00005AD2A4B2A0003CB03C21B881380284CB3
:100FB000284B0293082301933433009312330A22FF
:100FC0001921200005F06AFD01230293F8231B027A
:100FD0000193214B00932B0050221E21200005F08D
:100FE00075FEFA25ED00280001F0E6FA0021200048
:100FF00004F0EAFE280001F0DFFA0421200004F0EA
:10100000E3FE280001F0D8FA0021200004F0DCFE05
:10101000280001F0D1FA0621200004F0D5FE2800B6
:1010200001F0CAFA0521200004F0CEFE280001F0EC
:10103000C3FA0321200004F0C7FE280001F0BCFA27
:101040000021200004F0C0FE09B030BDEC0E0110FC
:10105000F01C0020E0FF0000FFFF0000F0B5DE46BE
:1010600057464E464546E0B5A1B08F4C00212000C2
:1010700006F094F919AB99468C4B4A4603CB03C250
:1010800016AE8B4B320023CB23C28A4B13AA23CB41
:1010900023C20FAB9C4688491A000800A8C8A8C202
:1010A000006810600BAA90460A0010324046A8CA99
:1010B000A8C01268026009AA9346804A584628CA06
:1010C00028C005AF0B0020333A0023CB23C21B6896
:1010D0001360634602937A4B9A460193002500956C
:1010E000102302220221200005F0B0FA43460293A9
:1010F000534601930095102302221421200005F08D
:10110000A5FA5B46029353460193009508230222F9
:101110002821200005F09AFA029753460193009582
:10112000102302226621200005F090FA0296019514
:10113000FC23DB0000930C2314220521200005F082
:1011400085FA13AB02935F4B0193F82636020096A3
:101150000C2314221421200005F078FA01230293B5
:1011600001951E3300934B4614225021200005F0B8
:10117000ADFD00967F2311220021200005F09FFE87
:1011800000967F2320220021200005F098FE009683
:101190007F2350220021200005F091FE00967F233E
:1011A00076220021200005F08AFE0721200004F0AD
:1011B00027FF00271E260523984605339946143538
:1011C00042E0414B414A3F21414801F0E9FEFA210A
:1011D000890003F0ABF8040041E04B460133DBB279
:1011E00099460026002398462F4F0721380004F027
:1011F00007FF009643464A4636491BA803F016F8F7
:1012000000230193FC23DB0000931BAB2D22002164
:10121000380005F0CBFA0821380004F0F1FE2A006E
:101220002D491EA803F002F8F8231B020193254B59
:1012300000931EAB55220021380005F0B7FA013D9E
:10124000ADB22700012D1BD001F060F90029B8DBF9
:10125000BDD0FA229200002303F0A6F80400E31B9D
:10126000FA2292009342EDD30136F6B23C2EBBD166
:1012700043460133DBB298463C2BAED00026B3E7A1
:10128000FA20C00001F098F9074C0021200006F078
:1012900085F80121200004F0B3FE21B0F0BCBB466C
:1012A000B246A946A046F0BDF01C0020A40F0110D4
:1012B000AC0F0110BC0F011010100110CC0F011069
:1012C000FFFF0000E0FF0000F80E0110140F0110F6
:1012D0004C0F01108C0F01109C0F0110F0B5DE4671
:1012E00057464E464546E0B587B00121504806F0C6
:1012F00064F8504F00250023984600269946059330
:101300009B4681E04C4B4D4A3F214D4801F048FE41
:10131000FA21890003F00AF85B46C31AFA22920008
:10132000934215D34B469DB26B469B8AED1AADB2E4
:101330008346434601339BB298460EF0A3FC4149D5
:1013400002F0CCFF8FB2404B9E426AD84B460593C9
:1013500001239C46E1440136B6B2354C0F220521EB
:10136000200006F027F83949200006F042F80F2245
:101370003221200006F01EF80A224146200006F025
:10138000ACF819220521200006F014F8304920009D
:1013900006F02FF819223221200006F00BF80A225D
:1013A0002900200006F099F823220521200006F0EC
:1013B00001F82849200006F01CF8232232212000E1
:1013C00005F0F8FF0A223100200006F086F80097A9
:1013D0000A235A225A21200004F01BFF7B009BB2F3
:1013E000019314239A46009350222821200005F0EF
:1013F000AAFD7B08029302230193534600935022D7
:101400000521200005F0D2FD01F080F8002900DA66
:1014100078E700D17CE7FA229200002302F0C4FFB3
:101420007AE707B0F0BCBB46B246A946A046F0BD7D
:10143000F01C002022220000F80E0110140F0110F1
:101440004C0F011060EA0000B70B0000D80F01102C
:10145000E00F0110E80F011030B589B005AC114B59
:10146000220003CB03C219001B8813808B78937072
:101470000D4D0021280005F091FF02230293002367
:101480000193FC23DB000093230032220521280076
:1014900005F01CFC054801F08FF8280004F0F0FC72
:1014A00009B030BDF00F0110F01C002088130000BF
:1014B00010B5FEF749FFFEF771FFFFF729F8FFF7B8
:1014C00039F9FFF787F9FFF7C3F9FFF791FAFFF74B
:1014D000E9FAFFF72DFBFFF76DFBFFF7B5FBFFF711
:1014E000CDFBFFF7F9FBFFF745FCFFF7ABFCFFF780
:1014F00055FDFFF7B3FD054B1B78002B03D1FFF71C
:10150000ABFF002010BDFFF7E9FEF8E7511F0020F8
:1015100010B502490120FEF7F7FE10BDFFFF0000E5
:1015200010B58300084A944663441C684022624018
:10153000C02414408022520113431C60C000034B9E
:101540009C466044416010BD04C001400040014021
:1015500010B501238340D0221206936293610521C6
:10156000FFF7DEFF10BD0000034B1B680220184090
:10157000431E9841C0B2704700C00640EFF3108090
:1015800072B6034B1B68002BFBD0BFF35F8F704715
:101590002C0100D0BFF35F8F024B00221A6080F352
:1015A000108870472C0100D0F8B506000C0015001B
:1015B000FFF7E4FFE308F718F15C0722224001235C
:1015C00093400B4205D1DBB20B433B70FFF7E2FFC8
:1015D000F8BD2100280001F07DFD0000002307E098
:1015E000054A9A189200BFF35F8F00211160013302
:1015F0001F2BF5D97047C04640000034054A1078CB
:10160000431CDBB21370172B02D9130010221A707F
:101610007047C046C0110020074B9B681030800007
:101620001950BFF35F8FBFF35F8F044B0021196028
:1016300082F310887047C04600ED00E0240100D01E
:1016400010B5091A081F0A4B9C466144094A914289
:1016500008D8C30706D440104005400D064B184378
:1016600080B210BD054B064AA321064801F098FC44
:10167000FC070000FE0F000000E0FFFF401001101B
:101680008C1201107010011010B5091A04394C08A1
:10169000090B08D14905490D064A11430180064B43
:1016A0002343438010BD054B054AAB21054801F09B
:1016B00077FCC04600F0FFFF00F8FFFFA810011004
:1016C000601201107010011001238340034A10685A
:1016D0001840431E9841C0B27047C04600E100E088
:1016E000002904D0034B1860034B18607047034B6C
:1016F0001860FBE780E200E000E100E080E100E04C
:1017000010B5012383401800FFF7EAFF10BD000069
:10171000024B9B6810308000C058704700ED00E01D
:1017200070B504000D00EFF3108672B60C4B1B6809
:10173000002BFBD0BFF35F8F2000FFF7E9FF094BC1
:10174000984201D0A84205D1320029002000FFF7BD
:1017500063FF70BD044B054A8621054801F020FC5B
:10176000240100D0CD010010B8100110A812011002
:1017700070100110F0B5CE46474680B583B0060024
:101780000D00EFF3108872B6564B1B68002BFBD090
:10179000BFF35F8F544B9A6834001034A300D758BE
:1017A000524B9F4207D0AF4200D198E00197504B77
:1017B000FB1A2F2B09D9424639003000FFF72CFFC6
:1017C00003B0C0BCB946B046F0BD3000FFF77CFFA7
:1017D000814600213000FFF793FFBFF35F8FEFF3E7
:1017E0000581002901D08C4211D10123019C9C4329
:1017F0000022A368AB4212D00622A256002A0DDBBB
:1018000053009B189B002200394CE418F1E7362165
:10181000384B394AFF31394801F0C2FB2200AB4254
:1018200056D106256557002D38DB6B005B199A00F1
:101830002F4B9B189A68A260DA79E27106229A56B9
:10184000A2719B795BB2002B0FDA2D48A0806B0050
:101850005B199B00264AD3182A4A11789971157092
:1018600049463000FFF74CFFA5E7201D6B005B19D0
:101870009B001F4A9B181A1D9B88D90A1C2907D157
:101880005B055B15023359005118FFF7D9FEDDE700
:101890001D4B1E4AB121194801F082FB002912D1CB
:1018A000002A0ED0FF239371194B9380154A1378A9
:1018B000A371184B0E49641A644163431B0D1370E6
:1018C000CEE70A4FF2E7201D1349FFF7DDFEC7E719
:1018D0006A21124B084AFF31084801F061FB034FAF
:1018E00069E7C046240100D000ED00E0CD01001002
:1018F000C4110020CC1101107812011070100110D9
:1019000001BD0000531F0020B411011098120110F6
:1019100001BDFFFFAAAA0000FE1100200012011065
:1019200070B5012101432E4BCB1A2F2B28D8EFF392
:101930000583002B2BD0EFF3108C72B6294A126866
:10194000002AFBD0BFF35F8F274A0400244D641B9D
:1019500064416243120D54B2244A92689B00D258EB
:101960008A421BD00022032A32D853009B189B00C6
:101970001B49CB189B795BB2A3421FD00132F2E71F
:10198000C7211B4B1B4A49001B4801F009FB922150
:101990001A4B184AFF31184801F002FB134A9268AB
:1019A0001749D150174B1A7882711C70BFF35F8FA3
:1019B0000C4B00221A608CF3108870BD0D00530090
:1019C000991889006918FF268E710F4A8A80E9E705
:1019D000D1210E4B074A4900074801F0E1FAC04601
:1019E000C4110020240100D0AAAA000000ED00E0EC
:1019F0000812011044120110701001103012011071
:101A0000CD010010531F002001BDFFFF3C1201104B
:101A10000022044B02E0044902C30132072AFAD92A
:101A20007047C04600E400E080808080024B9C4606
:101A300061448900016070474000003410B5040023
:101A4000FFF7DCFD01002000FFF7F0FFFF2323710B
:101A5000BFF35F8F10BD10B50400FFF7CFFD01008D
:101A60002000FFF7E3FFFF23237100236371BFF31F
:101A70005F8F10BD70B505000C00080000F070FE0F
:101A80000949200000F0B0FDFFF7B8FD074B9C4668
:101A90006044800068602C75D0231B061B786B7532
:101AA000A400034BE55070BDB91D00104000003488
:101AB000281D00200A4B1A68EFF3108172B61368D4
:101AC000002BFCD0BFF35F8F054B1B68BFF35F8F0C
:101AD00000221A6081F3108840BF00200021704767
:101AE0003C1F002010B5002922D003681B7B9942BF
:101AF0001ED8174B9C466144090183689C4661448B
:101B00000C684968002A19D003681B7B9A4215D8D3
:101B100083680F488446624412019A18106853681B
:101B2000020001208B4201D80ED00020C0B210BDAF
:101B3000084B094A3C21094801F032FA054B064A94
:101B40003C21064801F02CFAA242EFD8EDE7C0464E
:101B5000FFFFFF0FB4130110C01501108413011013
:101B600010B500291ED0037B99421BD84B005B188F
:101B7000033B0468A4466344002919D0002A1DD001
:101B8000914221D0002A25D0047BA24222D80468A9
:101B900050008018033820188170197800291FD14F
:101BA0001A7010BD104B114A6821114801F0F8F964
:101BB000104B114A6F310E4801F0F2F90F4B0E4AEB
:101BC00070210B4801F0ECF90D4B0B4A71210848CC
:101BD00001F0E6F9044B054A6821054801F0E0F9F7
:101BE00041701A70DDE7C046D81301102C160110A1
:101BF000F4130110381401100816011044140110D8
:101C00005014011070B506000D001400002914D006
:101C1000002A14D0806873689847002806D02200F4
:101C200029003000FFF79CFF280007E02A00210070
:101C30003000FFF795FF200000E0100070BD0800A5
:101C4000FCE70000F0B583B00500009201930AABF9
:101C50001C780BAB1F78002C26D003685A7B94426B
:101C600007D10123002B19D1002C3BD1200003B058
:101C7000F0BD002C0CD01A7B944209D81A6863007E
:101C80001B19033BD3189B78002BEBD00123E9E70A
:101C90003E4B3F4A68213F4801F082F93E4B3F4AA4
:101CA00067213F4801F07CF903689C7B002CDBD066
:101CB00012D01A7B94420FD862001219033A1968A5
:101CC0008C46624451789973002900D1D97300235E
:101CD000937053701370C7E72C4B2D4A68212D4821
:101CE00001F05EF9002C3AD02B681B7B9C4236D861
:101CF0002C4BE3181B01AA6894466344009A1A60AF
:101D0000019A5A60089A9A60099ADA602E68002C43
:101D10002BD030D0337B9C422DD863001B19033B62
:101D200032689446634400229A705A701A70717B2C
:101D300022003000FFF766FF7073844200D095E701
:101D4000287D009A019B00F097FC061E01D0002F11
:101D500017D00C9B002B00D188E71E7086E7124B32
:101D6000124A3C210E4801F01BF9114B114AA521E2
:101D7000084801F015F9054B054A6821054801F0AE
:101D80000FF92868210000F0AFFEE2E7D813011038
:101D90002C160110F41301106814011038160110EC
:101DA00084130110FFFFFF0FB4130110C0150110C1
:101DB000801301101C160110F0B5DE4657464E4642
:101DC0004546E0B58BB00990002308938200B54BDF
:101DD000D658370052E0B44BB44A3F21B44801F022
:101DE000DFF8B44BB44A3C21B44801F0D9F80029DB
:101DF00001D1002869D10021404600F06BFEA042CD
:101E000019D12A686B6806920793AB689846EB680D
:101E10009A464346002B14D0002C18D03B681B7BFD
:101E20009C4214D8631EFA68D35C08931B021843C3
:101E30003861002015E0A24BA24A8E219F4801F094
:101E4000AFF8A14B9F4A92219C4801F0A9F8994B09
:101E50009E4A4121994801F0A3F800239A469846EA
:101E600000207B68BFF35F8F00221A6086F3108822
:101E70004346002B32D1002800D10CE100F046FB94
:101E800002000B1EA7DB0020002106900791786856
:101E9000EFF3108672B601680029FCD0BFF35F8FA4
:101EA000396888464C7B002CD7D09AD0097B8C426D
:101EB00097D8874965182D01B9688C46654428680C
:101EC0006968801A9941002991DD2A686B68099830
:101ED00000F0D2FB00239A469846C2E7089B1B02FB
:101EE0002343994651461800C04705000E007A6802
:101EF000EFF3108B72B6136859424B41D9B2002BE5
:101F0000F9D1BFF35F8F002E1EDB002E46DD3B694B
:101F1000002B47D04B456DD100F0F8FA02000B1EA4
:101F20006EDB52197341002B70DB002B72DB00213A
:101F3000049101310391029451460191414600916F
:101F40003800FFF77FFE4CE03B69002BDDD04B45AE
:101F500014D1069A079B521BB341002B14DB002BB4
:101F600016DB002104910131039102945146019145
:101F7000414600913800FFF765FE32E0554B514A6B
:101F8000A1214E4801F00CF801225242524BE6E7E3
:101F9000454B464A3F21464801F002F8002E01D148
:101FA000002DB4D13B68002C50D05A7B944237D1DD
:101FB000012100294AD1DA7B002A4DD19A7B002ADF
:101FC00003D1DA7B002A5AD19C73DC73002C5CD0DD
:101FD0003B681B7B9C4258D8FA68013C135D013377
:101FE000135500233B617A68BFF35F8F13608BF357
:101FF000108843E7374B334AA421304800F0D0FF24
:10200000294B2A4A3F212A4800F0CAFF01225242A6
:10201000314B8AE7244B254A3F21254800F0C0FF79
:10202000002C0DD01A7B94420AD862001219033A90
:102030001868844662449278002ABAD00121B8E731
:10204000264B274A6821274800F0AAFF264B274A3B
:10205000F621244800F0A4FF002A0AD0197B8A4206
:1020600007D851008A18033A19688C4662445470A4
:10207000A4E71A4B1A4A68211A4800F091FF1C4B3A
:102080001A4AFB21174800F08BFF0A4B0F4A4121E7
:102090000A4800F085FF0BB0F0BCBB46B246A9462B
:1020A000A046F0BD281D0020F80E01108C1501106F
:1020B0004C0F0110B4130110C0150110841301104E
:1020C00090140110A4150110A8140110E4150110BA
:1020D000FFFFFF0FB4140110FFFFFF7FD8130110A3
:1020E0002C160110F4130110F0140110F815011052
:1020F0001415011010B50C4B5B68002B04D00A219D
:102100000A48FFF793FC10BD074C2300084A102132
:10211000206800F0EFFB032000F0ECF90321200021
:10212000FFF7A8FCEBE7C0460C1200203C1F002084
:10213000E51A001010B5064B5B68002B01D004486F
:1021400010BD044B044A5E21044800F029FFC0463C
:102150000C12002028150110CC1501108413011059
:10216000F0B5DE4657464E464546E0B58BB0804654
:1021700016001F00149B9A46159B994616AB1B78B8
:102180009B461F2302AA9446634400221A702BE048
:10219000002809D042461268127B904204D8421EA1
:1021A0004146C9688A5C41E0404B414A412141486F
:1021B00000F0F6FE07984CE0361BAF41002F07DB1E
:1021C000002F11DA3C4B3D4A3F213D4800F0E8FE2C
:1021D000012676423B4FF3E7374B384A3F213848D8
:1021E00000F0DEFE002F4FDB43465A68EFF3108409
:1021F00072B6136859424B41D9B20791002BF8D1FE
:10220000BFF35F8F1F3302AA9446634404930023F5
:10221000039302934B4601935346009332003B00D5
:102220004046FFF70FFD031EB2D102004146496848
:10223000BFF35F8F00250D6084F31088002B29D039
:102240001F2302A98C4663441B78002BB2D11202D3
:102250001043002B20D05B46002B1DD04946D047B1
:1022600004000D0003000B431DD00029A4DB00F087
:102270004DF906000F1EAFDB36196F41002FB1DAA2
:10228000012676420F4FADE70B4B0C4A3F210C481D
:1022900000F086FE012040420BB0F0BCBB46B246C7
:1022A000A946A046F0BD0798F6E7C046B413011052
:1022B000E415011084130110F80E01108C150110A3
:1022C0004C0F0110FFFFFF7FF8B504004268EFF3E9
:1022D000108572B6136858424341D8B2002BF9D129
:1022E000BFF35F8FCBB22268567BB3421BD1012074
:1022F000002848D0206988422BD0090AC9B2002B97
:102300002ED02068007B83422AD8581EE668305CB5
:1023100088422BD000206368BFF35F8F00221A60D1
:1023200085F31088F8BD002B0DD0167BB3420AD878
:102330005E00F618033E1768BC466644B678002E69
:10234000D6D00120D4E7134B134A6821134800F07C
:1023500027FE9521124B134A4900134800F020FE36
:10236000124B134A4121104800F01AFE19001000C8
:1023700000F0BAFB0028CED132210E4B094AFF31C2
:10238000094800F00DFE23698B42C4D1002323616C
:10239000C1E7C046D81301102C160110F413011028
:1023A0004C1501107415011084130110B4130110A1
:1023B000E41501107015011070B584B005000C0013
:1023C000EFF30583002B1ED1FFF7B4FE0023029329
:1023D0000193224B00932A002300FFF7C1FE061E43
:1023E00023DD20BFFFF7A6FE3100FFF76DFF1C4B7A
:1023F0005B6A9C422DD81A4A926AAA422CD29C420D
:1024000025D0012026E0164B5B6A994209D8144A70
:10241000926A824207D2994201D001201AE000203C
:1024200018E0002016E0012014E00D4B5B6A9C428E
:1024300009D80B4A926AAA4207D29C4201D00120D5
:1024400008E0002006E0002004E0012002E0002077
:1024500000E0002004B070BD0120FBE7B51A0010B9
:102460000040054070B5EFF305801038EFF3108C95
:1024700072B61A4B1B68002BFBD0BFF35F8F012293
:102480001300834016494B6316490B6016490978BF
:102490000C00C440224214D0114A546A8200134DE9
:1024A0005259944206D38200114C125999430E4B53
:1024B000197007E00A4A031D9B00995899500022A1
:1024C00000E00022BFF35F8F044B002119608CF302
:1024D0001088002A00D0904770BDC046280100D067
:1024E000004005403C700540541F0020401F002064
:1024F000681C002010B50100024A0348FFF754F899
:1025000010BDC04658160110521F0020044B5B6AD4
:10251000034A906A1900536A9942F9D17047C0463C
:1025200000400540084B5B6A01E0074B5B6A8B4249
:10253000FBD301E0044B5B6A8B4203D1024B9B6AE5
:102540008342F7D37047C0460040054070B5040091
:102550000D00FFF7DBFF02000B00200029008018B0
:1025600059418B4202D804D1824202D90120404213
:10257000C117002902DBFFF7D5FF70BD024B034AEC
:102580003F21034800F00CFDF80E0110F816011071
:102590004C0F011010B5002807DB064B9A6A054B5B
:1025A0009B6A9B1A8342FAD310BD0021FFF7CEFF2E
:1025B000FAE7C0460040054010B50A4B984207D8DC
:1025C00043011B1A9B001818C000FFF7E3FF10BD62
:1025D000FA2292000023002102F0E4FCFFF7B6FF8C
:1025E000F5E7C0469BC4200070B504000D00EFF372
:1025F000108672B61B4B1B68002BFBD0BFF35F8F9E
:10260000002D1CD02000FFF783F8174B83420BD01E
:1026100019002000FFF784F801212000FFF770F86F
:102620000123A340114A1360A400114BE550BFF3EE
:102630005F8F0C4B00221A6086F3108870BDA200D9
:102640000B4B0021D1500122A2400A490B78934341
:102650000B7005492000FFF78DF800212000FFF7DF
:102660004FF8E4E7280100D06524001038600540E9
:10267000681C0020541F0020F0B5DE4600B584B071
:102680000400150001921E000293FFF73FFF03951F
:102690008E4202D84ED185424CD9EFF3108B72B6E0
:1026A000274B1B68002BFBD0BFF35F8F254A1778A1
:1026B0000125A540EBB23B431370234B5D63221D04
:1026C00092000199D150A2002049029850501B6AF3
:1026D0002B4212D11C4B1B6C2B4208D00020BFF3A5
:1026E0005F8F174B00221A608BF3108823E0184B82
:1026F000184AC521184800F053FCFFF707FF8E4227
:1027000014D802D1039B834210D80E4B1B78BB42D6
:102710000ED00D4B1D625D631F2004400123A340BA
:102720000E4A1360074B1F701E38D8E70020D6E70B
:102730000120D4E7012004B080BCBB46F0BDC046F8
:10274000280100D0541F002000400540401F0020F9
:102750007C160110DC160110A016011080E200E0CA
:10276000EFF3108C72B60B4B1B68002BFBD0BFF342
:102770005F8F01238340084A136208490A789A430D
:102780000A70BFF35F8F034B00221A608CF310882E
:102790007047C046280100D000400540541F00206B
:1027A00010B500291ED0037B99421BD84B005B1843
:1027B000033B0468A4466344002919D0002A1DD0B5
:1027C000914221D0002A25D0047BA24222D804685D
:1027D00050008018033820188170197800291FD103
:1027E0001A7010BD104B114A6821114800F0D8FB37
:1027F000104B114A6F310E4800F0D2FB0F4B0E4ABE
:1028000070210B4800F0CCFB0D4B0B4A712108489E
:1028100000F0C6FB044B054A6821054800F0C0FBE8
:1028200041701A70DDE7C046D8130110F817011087
:10283000F413011038140110E417011044140110AE
:102840005014011070B506000D001400002914D0BA
:10285000002A14D0806873689847002806D02200A8
:1028600029003000FFF79CFF280007E02A00210024
:102870003000FFF795FF200000E0100070BD080059
:10288000FCE7000010B50023437301338373037B1F
:10289000C3730123027B9A4214D9002B0CD0027B14
:1028A000934209D85A00D218033A01688C46624410
:1028B0000133DBB25370EDE70B4B0C4A68210C4837
:1028C00000F06EFB002A09D0924207D8016853003D
:1028D0009A18033A8A180023537010BD024B034A1A
:1028E0006821034800F05CFBD8130110F8170110B1
:1028F000F413011010B5017342608360FFF7C2FF4B
:1029000010BD000070B50400081E00D170BD002984
:1029100034D0237B994231D84B005B18033B2268AB
:10292000944663445A78002AF0D02DD0237B9A42F3
:102930002AD853009B18033B21688C4663445D787A
:1029400000215970002825D0237B984222D84300CB
:102950001B18033B21688C46634400215970010019
:102960002000FFF76FFF060029002000FFF7CAFFD5
:10297000020031002000FFF765FFC7E7084B094A56
:102980006821094800F00CFB054B064A68210648FF
:1029900000F006FB024B034A6821034800F000FBED
:1029A000D8130110F8170110F413011070B50500C9
:1029B0000C00160000292FD034D0037B994231D867
:1029C0004B005B18033B0268944663445A78002A24
:1029D0002ED19A78002A31D11978FFF793FF03009E
:1029E000002E0AD0EA7B002A2ED1AA7B002A03D12E
:1029F000EA7B002A3BD1AC73EC73002B3DD1002C59
:102A00004FD02B7B9C424CD82B6861000C19033CA7
:102A10001C190023637070BD254B264A38212648B7
:102A200000F0BEFA254B264A6821264800F0B8FA85
:102A3000254B204A3A21204800F0B2FA234B1D4A88
:102A40003B211D4800F0ACFA002A0AD0297B8A42BB
:102A500007D851008A18033A29688C46624454709A
:102A6000C3E7164B164A6821164800F099FA184B2E
:102A7000104A4221104800F093FA002B0BD02A7B19
:102A8000934208D843001B18033B2A6894466344CA
:102A900000229A70B3E7094B094A6821094800F0FF
:102AA0007FFA064B064A6821064800F079FAC046CC
:102AB00010170110D017011018170110D8130110AA
:102AC000F8170110F41301104C17011074170110BE
:102AD0001415011070B504000A00457B2900FFF7AA
:102AE00065FF6073280070BD70B50400002967D0D1
:102AF000437B8B420ED0002911D0037B99420ED824
:102B00004B005B18033B0268D0188378002B0CD174
:102B1000002056E00121FFF7DDFF012051E0294BA5
:102B2000294A6821294800F03BFA002B20D0227B5B
:102B300093421DD85A00D318033B2268D218256847
:102B4000EB5C8B421AD0002B1BD0227B934218D80F
:102B50005A00D318033B2268D21853788B4216D000
:102B6000002BF0D11A4B1B4A6B211B4800F018FABE
:102B7000144B154A6821154800F012FA4378137077
:102B800007E0104B104A6821104800F009FA43781A
:102B9000537000238370437001222000FFF706FF6B
:102BA0000200617B814205D02000FFF74BFE60737D
:102BB000012006E0094B074A7121074800F0F0F9AF
:102BC000002070BDD8130110F8170110F413011084
:102BD0003C120110B81701101817011098170110B6
:102BE000F8B5DE4657464E464546E0B505000F00AF
:102BF00092460A9A93424ED31A0E91461E020A9AA0
:102C000000233000494601F0CFFB80466C00641978
:102C1000A4002F4B9C4664446368834200D26060EA
:102C20002B1FDBB29B46012B3BD9C0239B012343C7
:102C3000802212011A60AB00264A9958002905D05B
:102C4000506901F073FB01300138FDD153465A0140
:102C500023685A40E0231A4080235B0123431A6013
:102C60005A46012A28D980239B012343802212013E
:102C70001A6043466360424600233000494601F033
:102C800093FBAD00134B58510120F0BCBB46B2463C
:102C9000A946A046F8BD104B104A2D21104800F05F
:102CA0007FF9012FC1D1C0239B01234303221A6066
:102CB000A368DB07FCD5C9E72168794003220A40F5
:102CC0001A60A2680123BB401342FAD0CBE7C0468A
:102CD00000800040781C00200418011054180110D6
:102CE0001818011030B583B00C2000F017F9FEF76A
:102CF0003BFC00280DD0002304E099002D4A2E480B
:102D000088500133092BF8D92A4B2C4A5A6203B058
:102D100030BD2B4B00229A6700F008F9294B0122A5
:102D20001A60274B5B6C012BFBD1274B03221A60E7
:102D3000234B9B6B012BFBD1013300930433234ABC
:102D40000121234800F054F805230093214A012172
:102D5000214800F04DF8214B00930022022104206D
:102D6000FFF73EFF1E4D00952B000022012105209C
:102D7000FFF736FF104C00942300002200210720AB
:102D8000FFF72EFF00942300002200210820FFF708
:102D900027FF0A4B00932300002200210920FFF7A0
:102DA0001FFF00952B00002200210620FFF718FFCF
:102DB000ADE7C046781C0020006CDC021BB70000A9
:102DC000008000403CB0004030B00040002F685907
:102DD00000800240008C864700C00240001BB70004
:102DE000405973078000014BC0587047781C002081
:102DF000F0B5C64600B504000D00170098460C203B
:102E000001F094FA0600394BFA18394B9A4241D82E
:102E100043011B1A9901C91AC90009188901380010
:102E200001F084FA0200103A98235B009A4237D8E6
:102E30004346013B062B39D8069B013B062B35D870
:102E40003F09B74238D343461E04069B1A03164374
:102E50002368002B36DB274B9C4244D08022520152
:102E6000254B1A60254B1A60254B9B68110099432E
:102E7000FAD12560A060231DC02292011A432123AC
:102E800013602368002BFCDAE6600823136080BC23
:102E9000B846F0BD1B4B1C4A11211C4800F080F8BD
:102EA0001B4B194A1921194800F07AF8194B164A98
:102EB0001C21164800F074F8174B134A23211348BD
:102EC00000F06EF822683F231340AB42C3D1A368E1
:102ED0001B051B0D8342BED1E368EE22D2021340D4
:102EE000B342B8D1D3E780229201B9E780E84BD34F
:102EF00080F8A93200C0024000E0004000F000402D
:102F000000C000406418011080190110C41801109D
:102F1000FC180110181901106419011080239B007E
:102F20000343014AD362704700800540064BAA2242
:102F300012011A602F22DA60044B054A1A60024B14
:102F40005B68002BFBDA70470040024000600240E3
:102F500000B0FA0000BEFDE703000A4A1268002A2A
:102F600008D0084A1068C318074A9A4206D3054A8F
:102F700013607047034A05491160F2E7012040429F
:102F8000F7E7C046EC1C002000000420581F00207A
:102F90000020704701204042704710B5FFF7DAFF6C
:102FA00010B582B00C001900002A0CD0084B002A82
:102FB0000BD00192009323000200064802F092FA1F
:102FC0000120FFF7C7FF044BF1E7034AF1E7C046D2
:102FD0008C1901109C190110701E011070B52B4B3B
:102FE0002B4A1A602B4B2C4A1A602C4B9A682A4B9E
:102FF0009343FAD12A4C01E008CC9847294B9C42D4
:10300000FAD3FFF76FFE234B274A1A60234B9B68C6
:10301000DB43DB01FAD1254B40229A675A671A67D6
:10302000DA66234C09E0234B234A86212348FFF725
:10303000B7FF2000FEF702FD0834214B9C4209D265
:103040002368002BF5D0012BEDD12000FEF703FD06
:103050000834F2E71B4CA1681B4DC022280002F087
:1030600089F8A560EFF30583002B00D000BEFEF7C2
:10307000B5FAFEF7CDFCFFF73DF8144C01E008CCA3
:103080009847134B9C42FAD370BDC04600E0004005
:10309000BFCDFBFE00F00040FE7F3C0000C00040C2
:1030A000D01A0020E01A0020FFFFFF0100F00140CD
:1030B000C81A0020CC190110381A0110EC1901109F
:1030C000D01A002000ED00E000000020E01A0020EF
:1030D000EC1A00200FB400B583B0084802F0D2F912
:1030E000049B002B07D005A90191180002F0DAF922
:1030F000034802F0C7F90120FFF72CFF281A01103E
:10310000A03101109A4200D288547047704710B520
:10311000002802D00B684968984710BD01000020C4
:1031200007E083001B185B00501C08601078C01873
:1031300030380A681378303BDBB2092BF1D970477D
:10314000F0B5DE4657464E464546E0B583B0934659
:103150001F000C9B9A460D9C0E9B99460F9B9B074C
:1031600003D0B8460F00060022E00192A34688462D
:103170004E46B9460700B44207D2551C4B4641465D
:103180002020B84701342A00F5E73D004F465C4651
:10319000019B9B46B1464646B84637002E0007E0E5
:1031A000013C551C5346185D43463900B0472A0080
:1031B000002CF5D135003E0047460F9B9B0707D4F6
:1031C000100003B0F0BCBB46B246A946A046F0BD15
:1031D000B0464E46B9462F005D46531BB342EFD270
:1031E000541C4B4641462020B8472200F5E7F0B575
:1031F000CE46474680B585B0944698460C9D0D9CBA
:103200000EAB1B789946109A119B129EB7071CD4DF
:10321000002B0CD0F7070AD54F46002F02D10C37F0
:10322000374204D0013B02E030272F55013494424D
:1032300001D21F2CF8D9F70707D59C4205D21F2CC5
:1032400003D830272F550134F5E7F70615D5770554
:1032500005D4002C03D0944224D09C4222D00F9A53
:10326000102A2BD00F9A102A30D00F9A022A35D06C
:103270001F2C02D830222A5501341F2C05D84A466B
:10328000002A31D02D222A5501340396029301944D
:10329000009543466246FFF753FF05B0C0BCB946F0
:1032A000B046F0BD621E012C06D00F9F102F01D03A
:1032B0001400D4E7023CD2E71400D0E7B206D1D420
:1032C0001F2CCFD878222A550134D1E7B206CCD5AD
:1032D0001F2CCAD858222A550134C9E71F2CC7D839
:1032E00060322A550134C3E7720703D52B222A55D1
:1032F0000134CAE73207C8D520222A550134C4E771
:10330000F0B5DE4657464E464546E0B593B0814699
:103310008A46089209931CAB10CB1B789B461E9DD6
:10332000219B9846002C03D1102342469A43904695
:103330008023DB0046461E4042461A4212D0002C33
:1033400022D000260EE03033D9B2771C0AAB995553
:103350002900200000F0EAFFAC4216D31F2F14D83A
:103360003E0004002900200000F0E0FFCBB2092B52
:10337000E9D94246920605D54121C918C9B20A3990
:10338000C9B2E2E76121F8E7270043460693209B94
:1033900005931F9B049303955B46029301970AAB29
:1033A0000093099B089A51464846FFF720FF13B047
:1033B000F0BCBB46B246A946A046F0BDF0B5DE461D
:1033C00057464E464546E0B595B0089009910A9299
:1033D0000B931E9E1F9C20AB1B789B46229B9946FD
:1033E000239D269B9A463300234303D11033524634
:1033F0009A4392468023DB0057461F4052461A42AA
:1034000019D0330023432DD0002714E03033DAB233
:103410007B1C98460CABDA554A462B003000210045
:1034200000F0C2FFA5421FD819D043461F2B1BD85E
:10343000474606000C004A462B003000210000F0F1
:10344000B3FFD3B2092BE1D95246920605D54122EA
:10345000D218D2B20A3AD2B2DAE76122F8E7B1451D
:10346000E3D901E00023984653460693259B059334
:10347000249B04934B4603935B460293434601937C
:103480000CAB00930B9B0A9A09990898FFF7AFFEC3
:1034900015B0F0BCBB46B246A946A046F0BD000040
:1034A000F0B5DE4657464E464546E0B591B08346F8
:1034B0008A460C9298461A9C08941B9D09952200F6
:1034C0002B002000290001F0FAF9002800D0E5E0E7
:1034D00001225242D74B2000290001F0EBF90028CD
:1034E00000D0DBE001225242D34B2000290001F042
:1034F000CBF9002800D0D1E000220023089E300044
:10350000099D290001F0C0F9002800D0DDE00898ED
:103510000999069007918023DB001E9A1A400D92AC
:103520001E9A1A4201D106231C930698079904009B
:103530000D000A000600024300D1D1E0080D40054D
:10354000400DBE4CA44660440A03120BBC4B13430F
:103550001F0001F0C7F9BB4ABB4B01F052F9BB4A4F
:10356000BB4B01F027F904000D000022B94B3000DD
:10357000390001F016F9B84AB84B01F042F90200DF
:103580000B002000290001F015F901F0C3F9814674
:1035900001F0A8F904000D00B14AB24B01F031F975
:1035A0000022B14B01F006F901F0B4F90600AF4A70
:1035B000AF4B2000290001F024F904000D00300079
:1035C00001F090F9AB4AAC4B01F01BF902000B0083
:1035D0002000290001F0E5F804000D0002000B00B6
:1035E00001F00FF90A900B91A44BF31800261F0568
:1035F00022002B002000290001F0DCF80E900F9132
:1036000022002B0000208021C90501F0CAF8040027
:103610000D0000229A4B0A980B9901F0D4F8002271
:10362000984B01F0C7F802000B000A980B9901F0C3
:10363000CAF80022944B01F0BDF802000B000A9872
:103640000B9901F0C0F802000B002000290001F0E6
:10365000B1F802000B000E980F9901F0B4F80022A7
:10366000774B01F0A7F832003B0001F0CAF80600E2
:103670000F0004000D00069A079B01F01BF90028BB
:1036800030D001235B429C46E14400227D4B300058
:10369000390001F098F804000D0023E01E9B04930C
:1036A0001D9B03931C9B0293089A099B0092019314
:1036B00043460C9A5146584600F0FCF811B0F0BC55
:1036C000BB46B246A946A046F0BD0023002406939F
:1036D0000794069680231B069C46654407951AE7C7
:1036E000002399464B466333C62B1ED804261E9BE7
:1036F0001B0526D52B0023430FD0644A644B069844
:10370000079901F0CFF8002879D00022614B069884
:10371000079901F0B9F8002871D01C9B4B4506DDD4
:103720004A46981A431E1C9303E00526DFE7002350
:103730001C938023DB001E9A1A431E92002600234E
:1037400099461D9B9E4264D29F1B02231E9A1A40DB
:103750000A921E9A134202D0002E00D000274B4638
:10376000002B07D022002B000698079901F02BF8B8
:1037700006900791002200230898099901F084F827
:10378000002848D1444B1E9A1340049303971C9B76
:103790000293069B079C0093019443460C9A514662
:1037A000584600F087F8002E00D187E71E9B9B0645
:1037B0003DD54525441C4346020051462800D847C4
:1037C0004B46DA179B18534005220592013E04969A
:1037D000002203920A3202924A46D00F01900093CF
:1037E0004346220051465846FFF78AFD0A9B002BAC
:1037F00000D163E702005F460C9E1D9D54E01C9BB8
:10380000002B9ED00D9B002B9BD01C9B013B1C933F
:1038100097E7002799E7069C079D22002900802052
:103820000006844661440B0006920793AAE76525CB
:10383000C0E7C046FFFFEF7FFFFFEFFF01FCFFFF88
:103840000000F03FFB799F501344D33FB3C8608B17
:10385000288AC63F0000F83F61436F63A787D23FC5
:1038600071A379094F930A400000E03F1655B5BB9C
:10387000B16B0240EF39FAFE422EE63FFF03000033
:1038800000002C4000002440000018402D431CEB99
:10389000E2361A3F80842E41FFF7FFFF541C434657
:1038A00051462020B8472200931BAB42F6D31000AC
:1038B00004E7C046F0B5DE4657464E464546E0B5FD
:1038C00095B00690079193469946209F1E9A1F9B9C
:1038D0001000190000F0F3FF002831D101225242FC
:1038E000BF4B1E981F9900F0CFFF002837D101224F
:1038F0005242BC4B1E981F9900F0DCFF00283DD1BE
:103900000022B94B1E981F9900F0D4FF002850D117
:103910000022B64B1E981F9900F0B6FF002848D130
:10392000002200231E981F9900F0AEFF002850D1FE
:1039300000239846229B5B0500D4B6E0002458E0A3
:10394000229B0393219B029303230193A84B009393
:103950004B465A4607990698FFF7F2FB0EE1229B69
:103960000393219B029304230193A24B00934B46A4
:103970005A4607990698FFF7E3FBFFE00423229AD3
:103980001A4022990B4210D09B4B002A0FD00422E0
:103990002299039121990291019200934B465A4634
:1039A00007990698FFF7CCFBE8E0944BEDE703227C
:1039B000EEE7229B0493219B039302971E9B1F9C7F
:1039C000009301944B465A4607990698FFF768FD05
:1039D000D4E01E9A1F9B0020002100F0E2FE1E9002
:1039E0001F9101239846A5E70CAB30221A55013FE1
:1039F00001341F2C01D8092FF6D81E981F9900F00A
:103A000089FF050000F06EFF02000B001E981F9951
:103A100000F0C7FEFA007A4B9B181A685B680A929E
:103A20000B9300F0EEFE0890099100F097FF06005E
:103A300000F054FF02000B000898099900F0B1FE55
:103A40000890099100226F4B00F034FF00282ED01F
:103A50000136300000F042FF02000B000A980B997B
:103A600000F018FF002801D001350026002F2CD1CE
:103A7000280000F037FF02000B001E981F9900F08D
:103A800090FE06000F0000225E4B00F0FDFE0028B5
:103A900046D100225B4B3000390000F00BFF0028BC
:103AA0003ED1EB073CD501353AE0062746E7002238
:103AB000544B0898099900F0E7FE0028D6D1002E53
:103AC00001D0F307D2D50136D0E7AA461F2C11D872
:103AD000013F0A21300000F029FC651C30310CAB9D
:103AE00019550A21300000F021FC092E0ED90600DC
:103AF0002C00EBE755461F2C0CD87B1E002F09D05D
:103B00000CAA302111551F000134F4E72B00554653
:103B10001C00F0E71F2C03D80CAB2E221A550134E1
:103B20001F2C10D80A21280000F0D8FB661C303169
:103B30000CAB19550A21280000F0D0FB051E01D05E
:103B40003400EDE734000323229A1340012B1CD0EC
:103B50001F2C06D84346002B32D00CAB2D221A5511
:103B60000134229B0393219B029301940CAB00939D
:103B70004B465A4607990698FFF7E2FA15B0F0BC93
:103B8000BB46B246A946A046F0BD219B002B13D0F0
:103B90004346002B02D10C3313420FD0219B013B33
:103BA0002193190003E00CAB30221A5501348C42EA
:103BB000CED21F2CF7D9CBE72199F8E72199F6E768
:103BC000229B5B0704D50CAB2B221A550134C8E7A6
:103BD000229B1B07C5D50CAB20221A550134C0E728
:103BE000FFFFEFFFFFFFEF7F65CDCD4165CDCDC17D
:103BF000541A0110581A01104C1A0110481A0110D9
:103C0000401C01100000E03FF0B5DE4657464E462E
:103C10004546E0B593B082468B4690461193002905
:103C200000D1EBE200275546119B1878002800D1FF
:103C3000E7E2252809D07C1C43463A005946A847AC
:103C4000119B013311932700EEE7013311930024F8
:103C5000119A11780B00203BD8B2102803D88300AA
:103C6000D048C3589F460B00303BDBB2092B2CD900
:103C70002A292FD000230A93119B1A782E2A39D093
:103C800000239A46119A1378683BD9B2122976D844
:103C90008B00C549CB589F4601231C43013211922A
:103CA000D6E702231C4301321192D1E704231C43BF
:103CB00001321192CCE708231C4301321192C7E76D
:103CC00010231C4301321192C2E711A8FFF726FA14
:103CD0000A90D1E71C9B1A1D1C921868002804DB6F
:103CE0000A90119B01331193C6E702231C43434200
:103CF0000A93F6E78022D20014435A1C11925A7894
:103D00001300303BDBB2092B04D92A2A07D0002349
:103D10009A46B7E711A8FFF701FA8246B2E71C9B63
:103D20001A1D1C921868002804DB8246119B01337F
:103D30001193A7E70020F8E780235B002343511C81
:103D4000119152786C2A01D01C0018E0C0239B000E
:103D50001C430131119112E080232343511C119126
:103D60005278682A01D01C0009E0C0231C430131AD
:103D7000119104E080235B001C4301321192119BDE
:103D800018780300253BDAB2532A00D92CE29300BD
:103D9000864AD3589F4680239B001C4301321192D0
:103DA000EDE780235B001C4301321192E7E778289E
:103DB00009D0582838D06F2838D0622838D010233E
:103DC0009C430A2600E01026582833D0692803D0E7
:103DD000642801D00C229443630501D50122944349
:103DE00069282AD0642828D0A30500D59FE0E305E0
:103DF00000D5B8E0630600D4CAE01C9A111D1C91DE
:103E00001168FF220A4005940A9B049353460393CA
:103E1000029600230193009243463A005946280037
:103E2000FFF76EFA070027E01026CDE70826CBE75C
:103E30000226C9E720221443C8E7A30520D4E305DE
:103E400050D4630666D51C9A111D1C911168FF227F
:103E50000A40D317D118594005940A9B049353463E
:103E600003930296D20F0192009143463A005946BD
:103E70002800FFF745FA0700119B01331193D3E6A1
:103E80001C9BDA1D07218A43110008311C9111681F
:103E900053689C46DB170C930D930C9A0D9B1000F6
:103EA00048400E90624653400F930E980F990C9A1B
:103EB0000D9B801A99410E900F9108940A9B0793CD
:103EC000534606930496002305936346DA0F029245
:103ED0000090019143463A0059462800FFF76EFAD8
:103EE0000700C9E71C9A111D1C911268D317D1183D
:103EF000594005940A9B0493534603930296D20FAC
:103F00000192009143463A0059462800FFF7F8F91C
:103F10000700B1E7230605D51C9A111D1C9100234B
:103F2000D25E96E71C9A111D1C91126891E71C9BAA
:103F3000DA1D07218A43110008311C9108940A9B5D
:103F40000793534606930496002305930293136840
:103F500054680093019443463A0059462800FFF7FD
:103F60002DFA070088E71C9A111D1C9105940A9BE5
:103F7000049353460393029600230193136800931E
:103F800043463A0059462800FFF7BAF9070073E79D
:103F900023060DD51C9A111D1C9112681204120CD7
:103FA00031E7C046601A0110A41A0110F01A01107E
:103FB0001C9A111D1C91126825E746281AD01C9BDB
:103FC0000733072293431A0008321C9204940A9A7A
:103FD0000392524602925C681B6800930194434628
:103FE0003A0059462800FFF765FC0700119B013392
:103FF000119319E620231C43E1E7672801D04728E5
:1040000002D180231B011C43452801D0472801D140
:1040100020231C431C9B0733072293431A000832BA
:104020001C9204940A9A0392524602925C681B689E
:104030000093019443463A0059462800FFF730FAAE
:104040000700119B01331193EEE502231A00224071
:10405000924623421FD001241C9B1A1D1C927A1CDD
:104060009146187843463A005946A8475346002BD4
:1040700016D1119B013311934F46D5E5561C43468B
:1040800059462020B847230032005C1C9D42F5D8D9
:104090003D001700E0E701233A002F000A9DF4E7F6
:1040A0004A46A9460A9D06E0571C43465946202029
:1040B000C84734003A00661CA542F5D84D469146E3
:1040C000D7E71C9B1A1D1C921B6899465346002B70
:1040D00000D1013B4E4601E0013613003278002A40
:1040E00002D05A1E002BF7D14B46F21A10928023B1
:1040F000DB0026001E401C4203D0524501D9534626
:10410000109302231A0022400B92234205D03A005A
:1041100037004C46A946554620E03A00109B5F46C2
:10412000B3462E0006E0551C434639002020B04718
:1041300023002A005C1C0A999942F4D835005E4697
:10414000BB46109437004C46A946554606E01D0074
:104150000134561C43465946C8473200207800288F
:1041600004D0002FF4D06B1E002DF0D117004D4667
:104170000B9B002B03D1119B0133119354E50A9F34
:10418000109B06E0561C434659462020A8472300B2
:1041900032005C1C9F42F5D81700ECE721231C433A
:1041A0001C9B1A1D1C921B68009305940823049302
:1041B00053460393102302930023019343463A008E
:1041C00059462800FFF79CF80700119B0133119313
:1041D0002AE57C1C43463A0059462520A847119BF6
:1041E0000133119327001FE57C1C43463A005946D2
:1041F000A847119B01331193270015E50A4B9A46F6
:1042000010E5AA46474502D343465A1E00E03A004D
:10421000434659460020D047380013B0F0BCBB4697
:10422000B246A946A046F0BD0D3100100EB410B53F
:1042300085B0010007AC08CC0394012200945242DF
:104240000348FFF7E1FC05B010BC08BC03B01847F9
:104250000531001000B585B0029003910121009353
:1042600013004A4202A90248FFF7CEFC05B000BD88
:104270000F31001001480421014B18474012002063
:10428000A542001010B5010018231B8814221088C5
:10429000984710BD10B5010018231B8816221088FE
:1042A000984710BDF0B5C64600B507000E000025C2
:1042B0000123984600E00135B5420AD2AC003C1912
:1042C0002068FFF7DFFF20600028F4D10023984624
:1042D000F1E7404680BCB846F0BD0000124A936F3B
:1042E0009B0815D29066D166002905D0FFE7FFE74D
:1042F000FFE7516F106F704704B580210906C217A0
:104300005140002800D0C8430CF022FD002104BD1C
:10431000F0B5146E556E576F166FFFF7E3FF146616
:10432000556657671667F0BD000000D0114A936FBD
:104330009B0813D210665166002905D0FFE7FFE7FE
:10434000FFE7516F106F704704B5002801D00020BF
:10435000C0430CF0FDFC002104BDC046F0B5146E56
:10436000556E576F166FFFF7E5FF14665566576772
:104370001667F0BD000000D094464A4A926F92083A
:10438000624601D228E0C046F0B5464E346E756EE6
:10439000776F366F00F020F89446424A14665566EF
:1043A000576716676246F0BD94463E4A926F920880
:1043B000624601D254E0C046F0B53A4E346E756E96
:1043C000776F366F00F04CF89446364A146655669F
:1043D000576716676246F0BD002B24DB11D0002919
:1043E0003EDA00B5C943404200D1013100F038F84F
:1043F000C943404200D10131DB43524200D1013375
:1044000000BD002AEBD1002801D1002905D00020F1
:10441000C90FC90701D1C043410800B50CF070FCB9
:104420000022002300BD00B500290ADBDB43524215
:1044300000D1013300F014F8C943404200D10131EA
:1044400000BDC943404200D10131DB43524200D19B
:10445000013300F005F8DB43524200D1013300BDC7
:10446000002923D1002B18D1002A0CD0BC460D4FB7
:1044700038667A6600210023FFE7FFE7FFE77A6FDF
:10448000386F67467047002801D00748010000B523
:104490000CF036FC0022002300BD02000B000020BF
:1044A00000217047000000D0FFFFFFFF002B00D06D
:1044B000BFE0130C28D1002AE7D080B4114F396631
:1044C0007A66FFE7FFE730B4040C7B6F396F1B049B
:1044D00023433B667A66FFE7FFE7FFE7C04684B207
:1044E0007B6F3D6F1B0423433B667A66FFE7FFE764
:1044F000C04600232C042D0C7A6F386F00196941D7
:10450000B0BC7047000000D0F0B594460025140EF2
:1045100001D112020835140F01D112010435940F94
:1045200001D192000235D40F01D152000135D40BD4
:104530000134254F7C66254C3C660E0C93B2FFE798
:10454000FFE7FFE73C6F6643360C7703BE467343D5
:10455000DF0B5B04C01AB941130C7343DB18C91A93
:10456000CE086643360CB64493B273431F0F1B014B
:10457000C01AB941130C73431F0B1B05C01AB94174
:10458000860D8F023E436643360C092D24DB520A0A
:104590007243801A7703460A6643360C16235B1B68
:1045A000DE40DF40BF1964466643821B7046043517
:1045B00006330100D940A840C01900D30131A242FE
:1045C00006D20023F0BD0000000000D0FFFFFFFF77
:1045D000121B0130F3D3F1E709277F1BFE4064462D
:1045E000A2B27243801A00D20139220C7243130C1A
:1045F0001204821A99410B007046043513370100EA
:10460000F940A840801900D30131002B02D1A24209
:104610000AD2F0BD013000D30131121BFAD2013BA6
:10462000F8D1A24200D2F0BD013000D30131121BFB
:10463000F7E7F0B51C0C00D080E00CB400251C0A94
:1046400004D11B02160E3343120208351C0B04D191
:104650001B01160F3343120104359C0B04D19B0040
:10466000960F334392000235DC0B02D192185B4166
:1046700001351C00971864410134464F7C66464C56
:104680003C660E0CFFE7FFE7FFE7C0463C6F664362
:10469000360C7703BE4697B27743C01B00D2013970
:1046A000C01B00D201399FB27743C91BC91B170C2D
:1046B00077437E04FF0B801BB941CE086643360C5E
:1046C0000C2D33DBB644120B1F053A431B0B97B27C
:1046D0007743C01B00D201399FB27743C91B170C27
:1046E00077433E043F0C801BB941860D8F023E4349
:1046F000664329277F1BFE400C3D7746AF40BF191C
:1047000030BCA2B2ABB272437343801A9941220CFF
:104710007243130C1204801A994102000B000137F6
:10472000001BA941F9D2781E0021F0BD0C277F1B88
:10473000FE4077467F0BAF40FF19E0E700245D1C89
:1047400007D0144F7D663966FFE7FFE7FFE7FFE715
:104750003C6F95B29EB265436643401BB141150C58
:104760001E0C6543664336042F0C3E432D04401B4C
:10477000B141994204D202000B0020000021F0BD9B
:1047800001D19042F7D3801A994101349942F2D372
:10479000F6E70000000000D0FFFFFFFF4840414067
:1047A000484018B41B4B5B68FC46019308BD04DF0E
:1047B000774A001018B4174B1B68FC46019308BDDC
:1047C00000DF814A00109446134A926F920809D282
:1047D000624618B40F4BDB68FC46019308BD0CDF42
:1047E000394D00100C4AF0B5146E556E576F166FA8
:1047F0006246FFF7EEFF084A14665566576716676C
:10480000F0BD18B4034B9B68FC46019308BD08DF5C
:10481000DD4B0010381D0020000000D0FFB55040D7
:104820004240504059404B40594000E0FFB5154FC1
:104830004C00640D03D0BC4204D10C0314D80020FA
:10484000090D09055C00640D03D0BC4204D11C03B2
:104850000AD800221B0D1B0501264B4009D44B40F2
:1048600003D58B4200D18242FFBD9942FCD19042D8
:10487000FFBD0B43DB1803431343F5D0C94349186D
:10488000FFBD0000FF07000000B5FFF7CFFF80412C
:1048900000BDC04600B5FFF7C9FF01D9002000BD2B
:1048A000012000BD00B5FFF7B9FF01D9002000BD10
:1048B000012000BD00B5FFF7B1FF804100BD012020
:1048C00040054A00121804D85A00121801D80020D6
:1048D0007047012070470020704700000021002829
:1048E00005D17047C1174840401AFAD0C90713B51F
:1048F000064B1B6898470CBC441CA2401005120BC9
:104900000349091B09051943114310BD381E002036
:104910001F04000010B54C00620D8023D218DB008C
:10492000D21A5B057E2A10DD9E3A13DACC170903F2
:10493000490819435242D140640001341532202AFB
:1049400005DAD0400843604310BD002010BD084682
:10495000604310BDC80FC018013810BD18B4044B17
:104960005B6AFC46019308BD24DFE94E001000009D
:10497000381D002070B513231C78012C14D0012C95
:1049800014DC022C02DC1F4A1F4B9A641F48FFF7FD
:1049900079FC1F4B186070BD99001A481A4A88505C
:1049A00001331F2BF8D9EAE70023FAE71948FFF78C
:1049B00071FC05001848FFF76DFC023803789B0076
:1049C0007F2B19DD802229000F4800F0D3FB022C39
:1049D000D7D1124B1A88B5231B029A4209D1104B2A
:1049E0001A88104B9A4204D10F4B1A880F4B9A42E7
:1049F000C7D00020FEF76EFB0D4B0E4A32210E4849
:104A0000FEF7CEFA3D4A0010381D00204C3300005E
:104A1000381E002053440000534600005438000064
:104A2000D8380000494600009C3800005946000074
:104A3000901C0110341D0110F01C011007B56046D8
:104A4000002800D100BE01880A0A0230DF2AFAD10C
:104A5000C9B2820804D3028840880004104300E0F1
:104A60000068024A5050039007BD0000381D002026
:104A70000FB403BC0CBCF0B50124E407634000E0B4
:104A8000F0B50C0DCF0F661E3605891B640503D3E8
:104A9000C943404200D30131640D03D0661CF60ABD
:104AA00007D0E41B00207F00791C89078912803C15
:104AB00024031D0DDF0F6E1E36059B1B6D0503D3F2
:104AC000DB43524200D301336D0D03D06E1CF60A56
:104AD00007D0ED1B00227F007B1C9B079B12803DB3
:104AE0002D032F1B661B58D4A446202E46DA2037F0
:104AF0001400BC401D00BD40F24033412A438018E1
:104B00005941CB0F05D0C943C043002264425041F4
:104B1000514162464D0D28D10D0D07D100281FD0FF
:104B2000241940414941013A0D0DF9D0640006D3E2
:104B3000013000D30131002C01D140084000013A7E
:104B40000BD4941CE40A04D112051144DB07194468
:104B5000F0BDD907204B194300E0D9070020F0BD74
:104B60000029DDD1002CDBD1F0BD0132C6074008A1
:104B7000CD0728434908002EE1D0D9E73C2E29DA99
:104B8000203E40371400BC4000D00124F2401443C2
:104B90001A00BB401C43D317ACE7AC46202F08DA01
:104BA00020360400B4400D00B540F8403941284398
:104BB000A5E73C2F0CDA203F40360400B44000D07B
:104BC0000124F84004430800B1400C43C117EAE750
:104BD00010001900002494E70000F07FF0B50C0DE0
:104BE000661E3605891BE60A6405640D02D0651C45
:104BF000ED0A04D0002001210905803C2403A446CD
:104C00001C0D671E3F05DB1BE70A6405640D02D01F
:104C1000651CED0A04D0002201231B05803C2403FF
:104C20007740644497B484B296B27443070C7E43D1
:104C3000150C6F4380B26843361802D3012000047C
:104C40003F183004350C00197D41844688B29AB271
:104C500050430C0C62431F0C7C438EB27E4392196E
:104C600002D301263604A4191604170C361867411E
:104C700001BC81B29AB25143040C62431B0C5C43E9
:104C800080B25843121802D30120000424181004E3
:104C9000130C401863412D185E410020474106BCAB
:104CA00088B293B258430C0C6343120C544389B23C
:104CB00051435B1802D301210904641819041A0C2A
:104CC000091862416D1856410020474118BCF9028D
:104CD000720D1143F0026A0D1043ED020A0D03D16B
:104CE0006D1940414941013B124E9B1B7600B34276
:104CF0000ED26D0007D30130002671416646354360
:104D000001D1400840001B05C918E4072144F0BD4B
:104D10000BDA013306D1013004D101314F0D01D03E
:104D20004908F2E7E1070020F0BD01363105002017
:104D3000EBE70000FF030000F0B51C0D671E3F0508
:104D4000DB1BE70A6405640D02D0661CF60A04D07A
:104D5000002201231B05803C2403D0252D060026BC
:104D6000F6432E661E096E66CE0FF619B44649004C
:104D70004F0D02D07E1CF60A03D000200021403FD8
:104D80003F033E1BB600B444013F7F05C91B4908E1
:104D90002E6F013676089C02950D25437543ED1361
:104DA0007543AD1301356D10F603761B0CB4CC02C0
:104DB000450D2C43A2B2B3B25A43270C7B43350CAA
:104DC0006F43A4B26C431B1902D3012424043F197E
:104DD0001C041D0CA4187D4124196D41009A91B248
:104DE000ACB26143170C7C432B0C5F4392B25A4325
:104DF000A41802D301221204BF182204230C521853
:104E00007B41019C6C431B19520ED9010A4344019A
:104E1000A01A81B2B2B2514303145A43360C734301
:104E200087B27743D617D21900277E4136049B19E3
:104E30001704160C7F185E417316ED18F301002657
:104E400080337541A90F06D16400690AE8055B0A41
:104E5000184309D22FE00422944480337541A90AF3
:104E6000A8059B0A184326D3404149412404009ACF
:104E7000019B0D005543641B4343E41A95B286B26F
:104E80007543170C7E43030C5F4392B25A43B61826
:104E900002D301221204BF183204330C52197B4191
:104EA00052429C41002C02D4002201305141400862
:104EB000CA071043490802B06246D7079210084B50
:104EC000D218084B9A4203D212058918C919F0BDAD
:104ED0000020002A01DC3900F0BD01331905F5E797
:104EE000FD030000FE070000002200B5203200F0A4
:104EF00004F8080000BD000000220B150AD410B50C
:104F0000944600F031F81414013400DA0021CB1774
:104F1000144C20470020002170476244343A0CD4DE
:104F20000C2A07DA04009140904052422032D440CB
:104F3000214310BDD843D94310BD203207D40C46BD
:104F40009440524220321141D040204310BD08000D
:104F5000C917203203D452422032104110BD18002C
:104F6000190010BD1B4F00100A0DCC0F531E1B055E
:104F7000C91A520503D3C943404200D30131520D2F
:104F800003D0531CDB0A07D0121B00206400611CF5
:104F900089078912803A1203014BD21A7047000028
:104FA000FF03000051434343C9188C46110C83B2E0
:104FB0004B4310B4040C614392B280B2504362433D
:104FC0001C041B0C001910BC59411304120CC0180E
:104FD000514161447047000070B513231D782A4881
:104FE000FFF758F90400012D11D0012D09DDA31E92
:104FF0001B789B007F2B40DD80222100234800F09E
:10500000B9F82348FFF73EF9224B186070BD5422CF
:1050100001001E4800F0AEF81F4B1A881F4B9A4241
:105020001CD1A7239B011A881D4B9A4216D11D4BF8
:105030001A881D4B9A4211D11C4B1A8894239B014C
:105040009A420BD11A4B1A881A4B9A4206D11A4B24
:105050001A681A4B9A4201D1152307E01848FEF747
:1050600039F899001748094A885001331F2BF8D99D
:10507000144A064B1A62DA61B7E7134B134A42210E
:105080001348FDF78DFFC046534600003C1E00202C
:105090004C330000381E0020EE290000C40F000031
:1050A000C20D0000962B0000C0B50000182B0000B8
:1050B000CC2A000010B50000FC2C000051ED8764E4
:1050C000701E0110D5500010481D0110BC1D0110AC
:1050D0007C1D011007B56046002800D100BE018884
:1050E0000A0A0230DF2AFAD1C9B2820804D3028840
:1050F00040880004104300E00068024A50500390CA
:1051000007BD00003C1E002010B504000AF0E6F9BF
:10511000002804D00419034B9C4200D810BD02485B
:10512000FDF7D8FF00000420D01D011010B50C00C1
:105130000AF0C2FD002804D00419034B9C4200D899
:1051400010BD0248FDF7C6FF00000420D01D01106D
:1051500010B50AF0CDF910BD01480421014B1847E4
:1051600050120020A5420010014B1B681847000098
:1051700050120020014B5B681847000050120020BD
:1051800010B5FFF7E5FF10BD10B5030008001100D2
:105190001B68984710BD0000F8B507000D00160009
:1051A000437D002B02D0002400200CE00368110096
:1051B000280098472DE03B7D10E0022115483B6810
:1051C0009847601C0134B44214DA002CF3DD2B192B
:1051D000013B1B780D3B5A425341DBB22A5D0A2A40
:1051E000F0D1002BEED1A042E7DA211A28183B6853
:1051F0009847E2E7B04203DA311A28183B6898472B
:10520000002E06DDAD19013D2B780D3B5A4253416E
:105210003B75F8BD5C1E011070B505000368002BDE
:1052200016D00C4B1C6805E0290004C92000FFF7CC
:10523000B3FF2469002C09D02368002BF9D0064B5A
:105240001B68002BF0D0A342F3D1EDE700232B60C5
:1052500070BDC046E01C0020E81C002070B50500B1
:105260000C000B68802B05D021684B1C2360641850
:10527000257170BD0800FFF7CFFFF5E7F0B583B0EB
:1052800007000E000092019328E0A368002B04D0D1
:10529000310038009847002827DC2469002C06D00C
:1052A000134B1D68002DF0D0A542F6D1EDE7009913
:1052B000019A104B5B6A9A4209D80E48806A88426C
:1052C0000FD29A4201D0012302E0002300E0002324
:1052D000002B08D101200021FDF738F9064B1C688E
:1052E000DCE70123F4E70120404203B0F0BDC046F3
:1052F000E81C002000400540E01C002010B5FDF730
:1053000005F902000B1E0BDB0D48002112184B4162
:10531000002B0BDB002B0DDB0A480BF041FD10BD11
:10532000094B0A4A3F210A48FDF73AFE0122524240
:10533000084BEFE7044B054A3F210548FDF730FED7
:1053400040420F00C81A0020F80E0110441E011040
:105350004C0F0110FFFFFF7F10B502480BF0C8FC97
:1053600010BDC046C81A0020F0B5CE46474680B5ED
:1053700083B006000D0090461C00FFF7BFFF81467A
:105380006B1C05D0002C08D0194F1A4B1C6807E085
:1053900030000AF0E5FE0500F4E7174FF5E7246951
:1053A000002C17D02368002BF9D0144B1B68002B5E
:1053B00001D0A342F3D12A0031002000B847434670
:1053C000002BECD06B46D91D0A230B700122200064
:1053D000B847E4E74B46002B07D16B1E9D41E8B26E
:1053E00003B0C0BCB946B046F0BDFFF7B5FFF4E767
:1053F00089510010E01C002099510010E81C002089
:1054000010B5030008001100002B05D1044B1A68E9
:105410005B68FFF733FF10BD01204042FBE7C04649
:105420005016011010B5030008001400013B012BB9
:1054300006D8002300222100FFF796FF200010BDB0
:1054400001204042FBE701204042704701204042DA
:1054500070470120404270470300002002229A4218
:105460004041704710B5064B1C6801E0984724691D
:10547000002C03D06368002BF8D1F8E710BDC046BC
:10548000E01C002070B505000AF06AFE040000234D
:10549000012201002800FFF767FFFFF7E3FF20006C
:1054A00070BD000070B5A2B004000E00FFF726FF2B
:1054B0000500002301933300220001A90848FEF7EC
:1054C000C9FE040001A8FFF7A7FEFFF7CBFF002DE0
:1054D00002D1200022B070BDFFF73EFFF9E7C046C1
:1054E0005D5200100FB400B583B004A901C9019149
:1054F000FFF7D8FF03B008BC04B01847F0B5D64694
:10550000474680B583B0824688460620FDF76AFC90
:105510000700022400E02C00FE2C1CD80197002676
:10552000A51C2802424600230021FFF73BFD00296D
:1055300003D1B142EFD1B842EDD980256D00012DE4
:105540000CD96E1E210071433800FEF7EFFE404576
:1055500004D83500F3E780256D00F0E753461C6161
:105560006B1E1B02524612685340FF221202134068
:1055700080204001524610430360290061433800F7
:10558000FEF7D4FE03B0C0BCBA46B046F0BD000082
:1055900010B50400144B984222D080229202134B83
:1055A0001A60134B1A60134B9B6810009843FAD192
:1055B0002000FFF7A3FF226807235340CF221A40A1
:1055C00080235B0123431A602200243280239B0145
:1055D0001A430321116004341C430223236010BDCD
:1055E00080225202DBE7C04600C0034000E00040DA
:1055F00000F0004000C0004010B5040000F0E4FCE2
:10560000034B236034230022E254200010BDC04627
:105610000410011010B50400028E53019B1A99006A
:105620008918C900C06AFFF7B3FF2823E05601219B
:10563000FBF776FF2723E0560121FBF771FFE06AB5
:10564000026807215140CF220A4080235B010343B7
:105650001A6010BDF8B505002527C35701242200A4
:105660009A40D02636067262C35722009A40726171
:105670000A20FCF7A1FFEB5722009A40B2610A20F2
:10568000FCF79AFFEB579C4074610A20FCF794FFEB
:10569000F8BDF0B5C64600B5040006A8002545577C
:1056A00007A8007840B22826A055013EB046A5556F
:1056B0002527E155033EA25526256355FBF748FFF4
:1056C0004346E056FBF744FFE057FBF741FFA05786
:1056D000FBF73EFF6057FBF73BFF80BCB846F0BDD1
:1056E00010B504002A2100F00EFD0021200000F07A
:1056F0001FFD0221200000F01BFD0021200000F012
:1057000017FD8121200000F013FD2B21200000F067
:10571000FAFC0021200000F00BFD0121200000F028
:1057200007FD0021200000F003FDA021200000F073
:10573000FFFC10BDF0B58BB0040006AE674B320025
:1057400023CB23C21B68136002AD654B2A0083CBB9
:1057500083C21B681360634B0193634B0093012169
:10576000200000F0D0FC3220FCF726FF11212000A1
:1057700000F0C9FCFA277F003800FCF71DFF3A2132
:10578000200000F0C0FC0521200000F0D1FC0A2020
:10579000FCF712FFB121200000F0B5FC0021200031
:1057A00000F0C6FC0621200000F0C2FC032120000E
:1057B00000F0BEFC0A20FCF7FFFE3621200000F0BE
:1057C000A2FC0821200000F0B3FCB621200000F06C
:1057D0009AFC1521200000F0ABFC0221200000F013
:1057E000A7FCB421200000F08EFC0021200000F076
:1057F0009FFCC021200000F086FC0221200000F068
:1058000097FC7021200000F093FC0A20FCF7D4FEE6
:10581000C121200000F077FC0521200000F088FC69
:10582000C221200000F06FFC0121200000F080FC6C
:105830000221200000F07CFCC521200000F063FC68
:105840003C21200000F074FC3821200000F070FCA6
:105850000A20FCF7B1FEFC21200000F054FC1121CD
:10586000200000F065FC1521200000F061FCE02123
:10587000200000F048FC10223100200001F009FD5A
:10588000E121200000F03FFC10222900200001F05F
:1058900000FD0A20FCF790FE2A21200000F033FCD6
:1058A000042201A9200001F0F4FC2B21200000F0CB
:1058B0002AFC04226946200001F0EBFC13212000A1
:1058C00000F021FC0A20FCF777FE2921200000F0DF
:1058D0001AFC3800FCF770FE0BB0F0BD601E011022
:1058E000741E011000020881000108A070B50400B8
:1058F000FFF7B0FE24216256012318009040D02209
:105900001206906161561800884050622621605648
:105910001D008540556161568B4053622923E35C2D
:10592000002B1AD127202256013319009140D02292
:1059300012069161282165561E00AE4096612056E0
:105940001D008540556261568B4053622000FFF771
:10595000F1FE33230322E25470BD2000FFF75AFE0C
:10596000F4E7000030B585B004004A4B1A88694658
:105970008A819B788B7301AD474B1A6801929B8893
:10598000AB80464B1A880A809B788B70012100F00F
:10599000BAFB9620FCF710FE1121200000F0B3FBAB
:1059A000FA204000FCF708FEB121200000F0ABFB1C
:1059B000032203A9200001F06CFCB221200000F0BA
:1059C000A2FB032203A9200001F063FCB321200005
:1059D00000F099FB06222900200001F05AFCB421B6
:1059E000200000F090FB0721200000F0A1FBC02167
:1059F000200000F088FB03226946200001F049FCEA
:105A0000C121200000F07FFBC521200000F090FBA9
:105A1000C221200000F077FB0A21200000F088FB63
:105A20000021200000F084FBC321200000F06BFB6C
:105A30008A21200000F07CFB2A21200000F078FB66
:105A4000C421200000F05FFB8A21200000F070FBE1
:105A5000EE21200000F06CFBC521200000F053FB7C
:105A60000E21200000F064FB2021200000F04BFB01
:105A70003621200000F047FBC821200000F058FB31
:105A80003A21200000F03FFB0521200000F050FBF0
:105A900005B030BD881E01108C1E0110941E01102F
:105AA00010B582B00400FE23DB0501939F231B0683
:105AB00000932A2100F027FB042201A9200001F015
:105AC000E8FB2B21200000F01EFB04226946200089
:105AD00001F0DFFB02B010BDF0B589B0040004AEE8
